{
	"data": {
		"bytecode": {
			"linkReferences": {},
			"object": "6080604052348015600e575f80fd5b506108f28061001c5f395ff3fe608060405234801561000f575f80fd5b5060043610610034575f3560e01c806381e4dd8d14610038578063e67efbc014610068575b5f80fd5b610052600480360381019061004d9190610514565b610098565b60405161005f9190610589565b60405180910390f35b610082600480360381019061007d91906105a2565b6101a4565b60405161008f91906106d7565b60405180910390f35b5f805f90505f6001868690506100ae919061072d565b90505f5b81831161017657600282846100c79190610760565b6100d191906107c0565b90508460ff168787838181106100ea576100e96107f0565b5b90506020020160208101906100ff919061081d565b60ff16101561011c576001816101159190610760565b9250610171565b8460ff16878783818110610133576101326107f0565b5b9050602002016020810190610148919061081d565b60ff1611156101655760018161015e919061072d565b9150610170565b80935050505061019d565b5b6100b2565b7fffffffffffffffffffffffffffffffffffffffffffffffffffffffffffffffff93505050505b9392505050565b60605f83839050868690506101b99190610760565b67ffffffffffffffff8111156101d2576101d1610848565b5b6040519080825280602002602001820160405280156102005781602001602082028036833780820191505090505b5090505f805b878790508210801561021a57508585905081105b1561035257858582818110610232576102316107f0565b5b9050602002016020810190610247919061081d565b60ff1688888481811061025d5761025c6107f0565b5b9050602002016020810190610272919061081d565b60ff1610156102e85787878381811061028e5761028d6107f0565b5b90506020020160208101906102a3919061081d565b8382846102b09190610760565b815181106102c1576102c06107f0565b5b602002602001019060ff16908160ff168152505081806102e090610875565b925050610351565b8585828181106102fb576102fa6107f0565b5b9050602002016020810190610310919061081d565b83828461031d9190610760565b8151811061032e5761032d6107f0565b5b602002602001019060ff16908160ff1681525050808061034d90610875565b9150505b5b8188889050036103da575b858590508110156103d55785858281811061037b5761037a6107f0565b5b9050602002016020810190610390919061081d565b83828461039d9190610760565b815181106103ae576103ad6107f0565b5b602002602001019060ff16908160ff168152505080806103cd90610875565b91505061035d565b610467565b808686905003610462575b8787905082101561045d57878783818110610403576104026107f0565b5b9050602002016020810190610418919061081d565b8382846104259190610760565b81518110610436576104356107f0565b5b602002602001019060ff16908160ff1681525050818061045590610875565b9250506103e5565b610467565b610206565b829350505050949350505050565b5f80fd5b5f80fd5b5f80fd5b5f80fd5b5f80fd5b5f8083601f84011261049e5761049d61047d565b5b8235905067ffffffffffffffff8111156104bb576104ba610481565b5b6020830191508360208202830111156104d7576104d6610485565b5b9250929050565b5f60ff82169050919050565b6104f3816104de565b81146104fd575f80fd5b50565b5f8135905061050e816104ea565b92915050565b5f805f6040848603121561052b5761052a610475565b5b5f84013567ffffffffffffffff81111561054857610547610479565b5b61055486828701610489565b9350935050602061056786828701610500565b9150509250925092565b5f819050919050565b61058381610571565b82525050565b5f60208201905061059c5f83018461057a565b92915050565b5f805f80604085870312156105ba576105b9610475565b5b5f85013567ffffffffffffffff8111156105d7576105d6610479565b5b6105e387828801610489565b9450945050602085013567ffffffffffffffff81111561060657610605610479565b5b61061287828801610489565b925092505092959194509250565b5f81519050919050565b5f82825260208201905092915050565b5f819050602082019050919050565b610652816104de565b82525050565b5f6106638383610649565b60208301905092915050565b5f602082019050919050565b5f61068582610620565b61068f818561062a565b935061069a8361063a565b805f5b838110156106ca5781516106b18882610658565b97506106bc8361066f565b92505060018101905061069d565b5085935050505092915050565b5f6020820190508181035f8301526106ef818461067b565b905092915050565b5f819050919050565b7f4e487b71000000000000000000000000000000000000000000000000000000005f52601160045260245ffd5b5f610737826106f7565b9150610742836106f7565b925082820390508181111561075a57610759610700565b5b92915050565b5f61076a826106f7565b9150610775836106f7565b925082820190508082111561078d5761078c610700565b5b92915050565b7f4e487b71000000000000000000000000000000000000000000000000000000005f52601260045260245ffd5b5f6107ca826106f7565b91506107d5836106f7565b9250826107e5576107e4610793565b5b828204905092915050565b7f4e487b71000000000000000000000000000000000000000000000000000000005f52603260045260245ffd5b5f6020828403121561083257610831610475565b5b5f61083f84828501610500565b91505092915050565b7f4e487b71000000000000000000000000000000000000000000000000000000005f52604160045260245ffd5b5f61087f826106f7565b91507fffffffffffffffffffffffffffffffffffffffffffffffffffffffffffffffff82036108b1576108b0610700565b5b60018201905091905056fea26469706673582212209d25615ea261a366c248b4bfe2770da8d81cfdae419c8543085440120a36408c64736f6c634300081a0033",
			"opcodes": "PUSH1 0x80 PUSH1 0x40 MSTORE CALLVALUE DUP1 ISZERO PUSH1 0xE JUMPI PUSH0 DUP1 REVERT JUMPDEST POP PUSH2 0x8F2 DUP1 PUSH2 0x1C PUSH0 CODECOPY PUSH0 RETURN INVALID PUSH1 0x80 PUSH1 0x40 MSTORE CALLVALUE DUP1 ISZERO PUSH2 0xF JUMPI PUSH0 DUP1 REVERT JUMPDEST POP PUSH1 0x4 CALLDATASIZE LT PUSH2 0x34 JUMPI PUSH0 CALLDATALOAD PUSH1 0xE0 SHR DUP1 PUSH4 0x81E4DD8D EQ PUSH2 0x38 JUMPI DUP1 PUSH4 0xE67EFBC0 EQ PUSH2 0x68 JUMPI JUMPDEST PUSH0 DUP1 REVERT JUMPDEST PUSH2 0x52 PUSH1 0x4 DUP1 CALLDATASIZE SUB DUP2 ADD SWAP1 PUSH2 0x4D SWAP2 SWAP1 PUSH2 0x514 JUMP JUMPDEST PUSH2 0x98 JUMP JUMPDEST PUSH1 0x40 MLOAD PUSH2 0x5F SWAP2 SWAP1 PUSH2 0x589 JUMP JUMPDEST PUSH1 0x40 MLOAD DUP1 SWAP2 SUB SWAP1 RETURN JUMPDEST PUSH2 0x82 PUSH1 0x4 DUP1 CALLDATASIZE SUB DUP2 ADD SWAP1 PUSH2 0x7D SWAP2 SWAP1 PUSH2 0x5A2 JUMP JUMPDEST PUSH2 0x1A4 JUMP JUMPDEST PUSH1 0x40 MLOAD PUSH2 0x8F SWAP2 SWAP1 PUSH2 0x6D7 JUMP JUMPDEST PUSH1 0x40 MLOAD DUP1 SWAP2 SUB SWAP1 RETURN JUMPDEST PUSH0 DUP1 PUSH0 SWAP1 POP PUSH0 PUSH1 0x1 DUP7 DUP7 SWAP1 POP PUSH2 0xAE SWAP2 SWAP1 PUSH2 0x72D JUMP JUMPDEST SWAP1 POP PUSH0 JUMPDEST DUP2 DUP4 GT PUSH2 0x176 JUMPI PUSH1 0x2 DUP3 DUP5 PUSH2 0xC7 SWAP2 SWAP1 PUSH2 0x760 JUMP JUMPDEST PUSH2 0xD1 SWAP2 SWAP1 PUSH2 0x7C0 JUMP JUMPDEST SWAP1 POP DUP5 PUSH1 0xFF AND DUP8 DUP8 DUP4 DUP2 DUP2 LT PUSH2 0xEA JUMPI PUSH2 0xE9 PUSH2 0x7F0 JUMP JUMPDEST JUMPDEST SWAP1 POP PUSH1 0x20 MUL ADD PUSH1 0x20 DUP2 ADD SWAP1 PUSH2 0xFF SWAP2 SWAP1 PUSH2 0x81D JUMP JUMPDEST PUSH1 0xFF AND LT ISZERO PUSH2 0x11C JUMPI PUSH1 0x1 DUP2 PUSH2 0x115 SWAP2 SWAP1 PUSH2 0x760 JUMP JUMPDEST SWAP3 POP PUSH2 0x171 JUMP JUMPDEST DUP5 PUSH1 0xFF AND DUP8 DUP8 DUP4 DUP2 DUP2 LT PUSH2 0x133 JUMPI PUSH2 0x132 PUSH2 0x7F0 JUMP JUMPDEST JUMPDEST SWAP1 POP PUSH1 0x20 MUL ADD PUSH1 0x20 DUP2 ADD SWAP1 PUSH2 0x148 SWAP2 SWAP1 PUSH2 0x81D JUMP JUMPDEST PUSH1 0xFF AND GT ISZERO PUSH2 0x165 JUMPI PUSH1 0x1 DUP2 PUSH2 0x15E SWAP2 SWAP1 PUSH2 0x72D JUMP JUMPDEST SWAP2 POP PUSH2 0x170 JUMP JUMPDEST DUP1 SWAP4 POP POP POP POP PUSH2 0x19D JUMP JUMPDEST JUMPDEST PUSH2 0xB2 JUMP JUMPDEST PUSH32 0xFFFFFFFFFFFFFFFFFFFFFFFFFFFFFFFFFFFFFFFFFFFFFFFFFFFFFFFFFFFFFFFF SWAP4 POP POP POP POP JUMPDEST SWAP4 SWAP3 POP POP POP JUMP JUMPDEST PUSH1 0x60 PUSH0 DUP4 DUP4 SWAP1 POP DUP7 DUP7 SWAP1 POP PUSH2 0x1B9 SWAP2 SWAP1 PUSH2 0x760 JUMP JUMPDEST PUSH8 0xFFFFFFFFFFFFFFFF DUP2 GT ISZERO PUSH2 0x1D2 JUMPI PUSH2 0x1D1 PUSH2 0x848 JUMP JUMPDEST JUMPDEST PUSH1 0x40 MLOAD SWAP1 DUP1 DUP3 MSTORE DUP1 PUSH1 0x20 MUL PUSH1 0x20 ADD DUP3 ADD PUSH1 0x40 MSTORE DUP1 ISZERO PUSH2 0x200 JUMPI DUP2 PUSH1 0x20 ADD PUSH1 0x20 DUP3 MUL DUP1 CALLDATASIZE DUP4 CALLDATACOPY DUP1 DUP3 ADD SWAP2 POP POP SWAP1 POP JUMPDEST POP SWAP1 POP PUSH0 DUP1 JUMPDEST DUP8 DUP8 SWAP1 POP DUP3 LT DUP1 ISZERO PUSH2 0x21A JUMPI POP DUP6 DUP6 SWAP1 POP DUP2 LT JUMPDEST ISZERO PUSH2 0x352 JUMPI DUP6 DUP6 DUP3 DUP2 DUP2 LT PUSH2 0x232 JUMPI PUSH2 0x231 PUSH2 0x7F0 JUMP JUMPDEST JUMPDEST SWAP1 POP PUSH1 0x20 MUL ADD PUSH1 0x20 DUP2 ADD SWAP1 PUSH2 0x247 SWAP2 SWAP1 PUSH2 0x81D JUMP JUMPDEST PUSH1 0xFF AND DUP9 DUP9 DUP5 DUP2 DUP2 LT PUSH2 0x25D JUMPI PUSH2 0x25C PUSH2 0x7F0 JUMP JUMPDEST JUMPDEST SWAP1 POP PUSH1 0x20 MUL ADD PUSH1 0x20 DUP2 ADD SWAP1 PUSH2 0x272 SWAP2 SWAP1 PUSH2 0x81D JUMP JUMPDEST PUSH1 0xFF AND LT ISZERO PUSH2 0x2E8 JUMPI DUP8 DUP8 DUP4 DUP2 DUP2 LT PUSH2 0x28E JUMPI PUSH2 0x28D PUSH2 0x7F0 JUMP JUMPDEST JUMPDEST SWAP1 POP PUSH1 0x20 MUL ADD PUSH1 0x20 DUP2 ADD SWAP1 PUSH2 0x2A3 SWAP2 SWAP1 PUSH2 0x81D JUMP JUMPDEST DUP4 DUP3 DUP5 PUSH2 0x2B0 SWAP2 SWAP1 PUSH2 0x760 JUMP JUMPDEST DUP2 MLOAD DUP2 LT PUSH2 0x2C1 JUMPI PUSH2 0x2C0 PUSH2 0x7F0 JUMP JUMPDEST JUMPDEST PUSH1 0x20 MUL PUSH1 0x20 ADD ADD SWAP1 PUSH1 0xFF AND SWAP1 DUP2 PUSH1 0xFF AND DUP2 MSTORE POP POP DUP2 DUP1 PUSH2 0x2E0 SWAP1 PUSH2 0x875 JUMP JUMPDEST SWAP3 POP POP PUSH2 0x351 JUMP JUMPDEST DUP6 DUP6 DUP3 DUP2 DUP2 LT PUSH2 0x2FB JUMPI PUSH2 0x2FA PUSH2 0x7F0 JUMP JUMPDEST JUMPDEST SWAP1 POP PUSH1 0x20 MUL ADD PUSH1 0x20 DUP2 ADD SWAP1 PUSH2 0x310 SWAP2 SWAP1 PUSH2 0x81D JUMP JUMPDEST DUP4 DUP3 DUP5 PUSH2 0x31D SWAP2 SWAP1 PUSH2 0x760 JUMP JUMPDEST DUP2 MLOAD DUP2 LT PUSH2 0x32E JUMPI PUSH2 0x32D PUSH2 0x7F0 JUMP JUMPDEST JUMPDEST PUSH1 0x20 MUL PUSH1 0x20 ADD ADD SWAP1 PUSH1 0xFF AND SWAP1 DUP2 PUSH1 0xFF AND DUP2 MSTORE POP POP DUP1 DUP1 PUSH2 0x34D SWAP1 PUSH2 0x875 JUMP JUMPDEST SWAP2 POP POP JUMPDEST JUMPDEST DUP2 DUP9 DUP9 SWAP1 POP SUB PUSH2 0x3DA JUMPI JUMPDEST DUP6 DUP6 SWAP1 POP DUP2 LT ISZERO PUSH2 0x3D5 JUMPI DUP6 DUP6 DUP3 DUP2 DUP2 LT PUSH2 0x37B JUMPI PUSH2 0x37A PUSH2 0x7F0 JUMP JUMPDEST JUMPDEST SWAP1 POP PUSH1 0x20 MUL ADD PUSH1 0x20 DUP2 ADD SWAP1 PUSH2 0x390 SWAP2 SWAP1 PUSH2 0x81D JUMP JUMPDEST DUP4 DUP3 DUP5 PUSH2 0x39D SWAP2 SWAP1 PUSH2 0x760 JUMP JUMPDEST DUP2 MLOAD DUP2 LT PUSH2 0x3AE JUMPI PUSH2 0x3AD PUSH2 0x7F0 JUMP JUMPDEST JUMPDEST PUSH1 0x20 MUL PUSH1 0x20 ADD ADD SWAP1 PUSH1 0xFF AND SWAP1 DUP2 PUSH1 0xFF AND DUP2 MSTORE POP POP DUP1 DUP1 PUSH2 0x3CD SWAP1 PUSH2 0x875 JUMP JUMPDEST SWAP2 POP POP PUSH2 0x35D JUMP JUMPDEST PUSH2 0x467 JUMP JUMPDEST DUP1 DUP7 DUP7 SWAP1 POP SUB PUSH2 0x462 JUMPI JUMPDEST DUP8 DUP8 SWAP1 POP DUP3 LT ISZERO PUSH2 0x45D JUMPI DUP8 DUP8 DUP4 DUP2 DUP2 LT PUSH2 0x403 JUMPI PUSH2 0x402 PUSH2 0x7F0 JUMP JUMPDEST JUMPDEST SWAP1 POP PUSH1 0x20 MUL ADD PUSH1 0x20 DUP2 ADD SWAP1 PUSH2 0x418 SWAP2 SWAP1 PUSH2 0x81D JUMP JUMPDEST DUP4 DUP3 DUP5 PUSH2 0x425 SWAP2 SWAP1 PUSH2 0x760 JUMP JUMPDEST DUP2 MLOAD DUP2 LT PUSH2 0x436 JUMPI PUSH2 0x435 PUSH2 0x7F0 JUMP JUMPDEST JUMPDEST PUSH1 0x20 MUL PUSH1 0x20 ADD ADD SWAP1 PUSH1 0xFF AND SWAP1 DUP2 PUSH1 0xFF AND DUP2 MSTORE POP POP DUP2 DUP1 PUSH2 0x455 SWAP1 PUSH2 0x875 JUMP JUMPDEST SWAP3 POP POP PUSH2 0x3E5 JUMP JUMPDEST PUSH2 0x467 JUMP JUMPDEST PUSH2 0x206 JUMP JUMPDEST DUP3 SWAP4 POP POP POP POP SWAP5 SWAP4 POP POP POP POP JUMP JUMPDEST PUSH0 DUP1 REVERT JUMPDEST PUSH0 DUP1 REVERT JUMPDEST PUSH0 DUP1 REVERT JUMPDEST PUSH0 DUP1 REVERT JUMPDEST PUSH0 DUP1 REVERT JUMPDEST PUSH0 DUP1 DUP4 PUSH1 0x1F DUP5 ADD SLT PUSH2 0x49E JUMPI PUSH2 0x49D PUSH2 0x47D JUMP JUMPDEST JUMPDEST DUP3 CALLDATALOAD SWAP1 POP PUSH8 0xFFFFFFFFFFFFFFFF DUP2 GT ISZERO PUSH2 0x4BB JUMPI PUSH2 0x4BA PUSH2 0x481 JUMP JUMPDEST JUMPDEST PUSH1 0x20 DUP4 ADD SWAP2 POP DUP4 PUSH1 0x20 DUP3 MUL DUP4 ADD GT ISZERO PUSH2 0x4D7 JUMPI PUSH2 0x4D6 PUSH2 0x485 JUMP JUMPDEST JUMPDEST SWAP3 POP SWAP3 SWAP1 POP JUMP JUMPDEST PUSH0 PUSH1 0xFF DUP3 AND SWAP1 POP SWAP2 SWAP1 POP JUMP JUMPDEST PUSH2 0x4F3 DUP2 PUSH2 0x4DE JUMP JUMPDEST DUP2 EQ PUSH2 0x4FD JUMPI PUSH0 DUP1 REVERT JUMPDEST POP JUMP JUMPDEST PUSH0 DUP2 CALLDATALOAD SWAP1 POP PUSH2 0x50E DUP2 PUSH2 0x4EA JUMP JUMPDEST SWAP3 SWAP2 POP POP JUMP JUMPDEST PUSH0 DUP1 PUSH0 PUSH1 0x40 DUP5 DUP7 SUB SLT ISZERO PUSH2 0x52B JUMPI PUSH2 0x52A PUSH2 0x475 JUMP JUMPDEST JUMPDEST PUSH0 DUP5 ADD CALLDATALOAD PUSH8 0xFFFFFFFFFFFFFFFF DUP2 GT ISZERO PUSH2 0x548 JUMPI PUSH2 0x547 PUSH2 0x479 JUMP JUMPDEST JUMPDEST PUSH2 0x554 DUP7 DUP3 DUP8 ADD PUSH2 0x489 JUMP JUMPDEST SWAP4 POP SWAP4 POP POP PUSH1 0x20 PUSH2 0x567 DUP7 DUP3 DUP8 ADD PUSH2 0x500 JUMP JUMPDEST SWAP2 POP POP SWAP3 POP SWAP3 POP SWAP3 JUMP JUMPDEST PUSH0 DUP2 SWAP1 POP SWAP2 SWAP1 POP JUMP JUMPDEST PUSH2 0x583 DUP2 PUSH2 0x571 JUMP JUMPDEST DUP3 MSTORE POP POP JUMP JUMPDEST PUSH0 PUSH1 0x20 DUP3 ADD SWAP1 POP PUSH2 0x59C PUSH0 DUP4 ADD DUP5 PUSH2 0x57A JUMP JUMPDEST SWAP3 SWAP2 POP POP JUMP JUMPDEST PUSH0 DUP1 PUSH0 DUP1 PUSH1 0x40 DUP6 DUP8 SUB SLT ISZERO PUSH2 0x5BA JUMPI PUSH2 0x5B9 PUSH2 0x475 JUMP JUMPDEST JUMPDEST PUSH0 DUP6 ADD CALLDATALOAD PUSH8 0xFFFFFFFFFFFFFFFF DUP2 GT ISZERO PUSH2 0x5D7 JUMPI PUSH2 0x5D6 PUSH2 0x479 JUMP JUMPDEST JUMPDEST PUSH2 0x5E3 DUP8 DUP3 DUP9 ADD PUSH2 0x489 JUMP JUMPDEST SWAP5 POP SWAP5 POP POP PUSH1 0x20 DUP6 ADD CALLDATALOAD PUSH8 0xFFFFFFFFFFFFFFFF DUP2 GT ISZERO PUSH2 0x606 JUMPI PUSH2 0x605 PUSH2 0x479 JUMP JUMPDEST JUMPDEST PUSH2 0x612 DUP8 DUP3 DUP9 ADD PUSH2 0x489 JUMP JUMPDEST SWAP3 POP SWAP3 POP POP SWAP3 SWAP6 SWAP2 SWAP5 POP SWAP3 POP JUMP JUMPDEST PUSH0 DUP2 MLOAD SWAP1 POP SWAP2 SWAP1 POP JUMP JUMPDEST PUSH0 DUP3 DUP3 MSTORE PUSH1 0x20 DUP3 ADD SWAP1 POP SWAP3 SWAP2 POP POP JUMP JUMPDEST PUSH0 DUP2 SWAP1 POP PUSH1 0x20 DUP3 ADD SWAP1 POP SWAP2 SWAP1 POP JUMP JUMPDEST PUSH2 0x652 DUP2 PUSH2 0x4DE JUMP JUMPDEST DUP3 MSTORE POP POP JUMP JUMPDEST PUSH0 PUSH2 0x663 DUP4 DUP4 PUSH2 0x649 JUMP JUMPDEST PUSH1 0x20 DUP4 ADD SWAP1 POP SWAP3 SWAP2 POP POP JUMP JUMPDEST PUSH0 PUSH1 0x20 DUP3 ADD SWAP1 POP SWAP2 SWAP1 POP JUMP JUMPDEST PUSH0 PUSH2 0x685 DUP3 PUSH2 0x620 JUMP JUMPDEST PUSH2 0x68F DUP2 DUP6 PUSH2 0x62A JUMP JUMPDEST SWAP4 POP PUSH2 0x69A DUP4 PUSH2 0x63A JUMP JUMPDEST DUP1 PUSH0 JUMPDEST DUP4 DUP2 LT ISZERO PUSH2 0x6CA JUMPI DUP2 MLOAD PUSH2 0x6B1 DUP9 DUP3 PUSH2 0x658 JUMP JUMPDEST SWAP8 POP PUSH2 0x6BC DUP4 PUSH2 0x66F JUMP JUMPDEST SWAP3 POP POP PUSH1 0x1 DUP2 ADD SWAP1 POP PUSH2 0x69D JUMP JUMPDEST POP DUP6 SWAP4 POP POP POP POP SWAP3 SWAP2 POP POP JUMP JUMPDEST PUSH0 PUSH1 0x20 DUP3 ADD SWAP1 POP DUP2 DUP2 SUB PUSH0 DUP4 ADD MSTORE PUSH2 0x6EF DUP2 DUP5 PUSH2 0x67B JUMP JUMPDEST SWAP1 POP SWAP3 SWAP2 POP POP JUMP JUMPDEST PUSH0 DUP2 SWAP1 POP SWAP2 SWAP1 POP JUMP JUMPDEST PUSH32 0x4E487B7100000000000000000000000000000000000000000000000000000000 PUSH0 MSTORE PUSH1 0x11 PUSH1 0x4 MSTORE PUSH1 0x24 PUSH0 REVERT JUMPDEST PUSH0 PUSH2 0x737 DUP3 PUSH2 0x6F7 JUMP JUMPDEST SWAP2 POP PUSH2 0x742 DUP4 PUSH2 0x6F7 JUMP JUMPDEST SWAP3 POP DUP3 DUP3 SUB SWAP1 POP DUP2 DUP2 GT ISZERO PUSH2 0x75A JUMPI PUSH2 0x759 PUSH2 0x700 JUMP JUMPDEST JUMPDEST SWAP3 SWAP2 POP POP JUMP JUMPDEST PUSH0 PUSH2 0x76A DUP3 PUSH2 0x6F7 JUMP JUMPDEST SWAP2 POP PUSH2 0x775 DUP4 PUSH2 0x6F7 JUMP JUMPDEST SWAP3 POP DUP3 DUP3 ADD SWAP1 POP DUP1 DUP3 GT ISZERO PUSH2 0x78D JUMPI PUSH2 0x78C PUSH2 0x700 JUMP JUMPDEST JUMPDEST SWAP3 SWAP2 POP POP JUMP JUMPDEST PUSH32 0x4E487B7100000000000000000000000000000000000000000000000000000000 PUSH0 MSTORE PUSH1 0x12 PUSH1 0x4 MSTORE PUSH1 0x24 PUSH0 REVERT JUMPDEST PUSH0 PUSH2 0x7CA DUP3 PUSH2 0x6F7 JUMP JUMPDEST SWAP2 POP PUSH2 0x7D5 DUP4 PUSH2 0x6F7 JUMP JUMPDEST SWAP3 POP DUP3 PUSH2 0x7E5 JUMPI PUSH2 0x7E4 PUSH2 0x793 JUMP JUMPDEST JUMPDEST DUP3 DUP3 DIV SWAP1 POP SWAP3 SWAP2 POP POP JUMP JUMPDEST PUSH32 0x4E487B7100000000000000000000000000000000000000000000000000000000 PUSH0 MSTORE PUSH1 0x32 PUSH1 0x4 MSTORE PUSH1 0x24 PUSH0 REVERT JUMPDEST PUSH0 PUSH1 0x20 DUP3 DUP5 SUB SLT ISZERO PUSH2 0x832 JUMPI PUSH2 0x831 PUSH2 0x475 JUMP JUMPDEST JUMPDEST PUSH0 PUSH2 0x83F DUP5 DUP3 DUP6 ADD PUSH2 0x500 JUMP JUMPDEST SWAP2 POP POP SWAP3 SWAP2 POP POP JUMP JUMPDEST PUSH32 0x4E487B7100000000000000000000000000000000000000000000000000000000 PUSH0 MSTORE PUSH1 0x41 PUSH1 0x4 MSTORE PUSH1 0x24 PUSH0 REVERT JUMPDEST PUSH0 PUSH2 0x87F DUP3 PUSH2 0x6F7 JUMP JUMPDEST SWAP2 POP PUSH32 0xFFFFFFFFFFFFFFFFFFFFFFFFFFFFFFFFFFFFFFFFFFFFFFFFFFFFFFFFFFFFFFFF DUP3 SUB PUSH2 0x8B1 JUMPI PUSH2 0x8B0 PUSH2 0x700 JUMP JUMPDEST JUMPDEST PUSH1 0x1 DUP3 ADD SWAP1 POP SWAP2 SWAP1 POP JUMP INVALID LOG2 PUSH5 0x6970667358 0x22 SLT KECCAK256 SWAP14 0x25 PUSH2 0x5EA2 PUSH2 0xA366 0xC2 BASEFEE 0xB4 0xBF 0xE2 PUSH24 0xDA8D81CFDAE419C8543085440120A36408C64736F6C6343 STOP ADDMOD BYTE STOP CALLER "
		},
		"gasEstimates": {
			"creation": {
				"codeDepositCost": "458000",
				"executionCost": "491",
				"totalCost": "458491"
			},
			"external": {
				"findNum(uint8[],uint8)": "infinite",
				"mergeArray(uint8[],uint8[])": "infinite"
			}
		},
		"methodIdentifiers": {
			"findNum(uint8[],uint8)": "81e4dd8d",
			"mergeArray(uint8[],uint8[])": "e67efbc0"
		}
	},
	"abi": [
		{
			"inputs": [
				{
					"internalType": "uint8[]",
					"name": "arr",
					"type": "uint8[]"
				},
				{
					"internalType": "uint8",
					"name": "_num",
					"type": "uint8"
				}
			],
			"name": "findNum",
			"outputs": [
				{
					"internalType": "int256",
					"name": "",
					"type": "int256"
				}
			],
			"stateMutability": "pure",
			"type": "function"
		},
		{
			"inputs": [
				{
					"internalType": "uint8[]",
					"name": "arr1",
					"type": "uint8[]"
				},
				{
					"internalType": "uint8[]",
					"name": "arr2",
					"type": "uint8[]"
				}
			],
			"name": "mergeArray",
			"outputs": [
				{
					"internalType": "uint8[]",
					"name": "",
					"type": "uint8[]"
				}
			],
			"stateMutability": "pure",
			"type": "function"
		}
	]
}