{
	"data": {
		"bytecode": {
			"linkReferences": {},
			"object": "608060405234801561000f575f80fd5b5060015f807f49000000000000000000000000000000000000000000000000000000000000007effffffffffffffffffffffffffffffffffffffffffffffffffffffffffffff191681526020019081526020015f208190555060055f807f56000000000000000000000000000000000000000000000000000000000000007effffffffffffffffffffffffffffffffffffffffffffffffffffffffffffff191681526020019081526020015f2081905550600a5f807f58000000000000000000000000000000000000000000000000000000000000007effffffffffffffffffffffffffffffffffffffffffffffffffffffffffffff191681526020019081526020015f208190555060325f807f4c000000000000000000000000000000000000000000000000000000000000007effffffffffffffffffffffffffffffffffffffffffffffffffffffffffffff191681526020019081526020015f208190555060645f807f43000000000000000000000000000000000000000000000000000000000000007effffffffffffffffffffffffffffffffffffffffffffffffffffffffffffff191681526020019081526020015f20819055506101f45f807f44000000000000000000000000000000000000000000000000000000000000007effffffffffffffffffffffffffffffffffffffffffffffffffffffffffffff191681526020019081526020015f20819055506103e85f807f4d000000000000000000000000000000000000000000000000000000000000007effffffffffffffffffffffffffffffffffffffffffffffffffffffffffffff191681526020019081526020015f2081905550611026806102875f395ff3fe608060405234801561000f575f80fd5b506004361061003f575f3560e01c80630cbc513a146100435780632ab6faca14610073578063cb159dfe146100a3575b5f80fd5b61005d60048036038101906100589190610bd9565b6100d3565b60405161006a9190610c8e565b60405180910390f35b61008d60048036038101906100889190610dda565b610125565b60405161009a9190610e39565b60405180910390f35b6100bd60048036038101906100b89190610dda565b610264565b6040516100ca9190610e39565b60405180910390f35b60608060605b5f84111561011b576100ea8461051f565b80955081925050508181604051602001610105929190610e8c565b60405160208183030381529060405291506100d9565b8192505050919050565b5f808290505f805b6001835161013b9190610edc565b81101561021957610174836001836101539190610f0f565b8151811061016457610163610f42565b5b602001015160f81c60f81b61099c565b61019a84838151811061018a57610189610f42565b5b602001015160f81c60f81b61099c565b12156101d8576101c68382815181106101b6576101b5610f42565b5b602001015160f81c60f81b61099c565b826101d19190610f6f565b915061020c565b6101fe8382815181106101ee576101ed610f42565b5b602001015160f81c60f81b61099c565b826102099190610faf565b91505b808060010191505061012d565b5061024d826001845161022c9190610edc565b8151811061023d5761023c610f42565b5b602001015160f81c60f81b61099c565b816102589190610faf565b90508092505050919050565b5f808290505f805b6001835161027a9190610edc565b811015610488575f80846001846102919190610f0f565b815181106102a2576102a1610f42565b5b602001015160f81c60f81b7effffffffffffffffffffffffffffffffffffffffffffffffffffffffffffff19167effffffffffffffffffffffffffffffffffffffffffffffffffffffffffffff191681526020019081526020015f20545f8085848151811061031457610313610f42565b5b602001015160f81c60f81b7effffffffffffffffffffffffffffffffffffffffffffffffffffffffffffff19167effffffffffffffffffffffffffffffffffffffffffffffffffffffffffffff191681526020019081526020015f205412156103fb575f8084838151811061038c5761038b610f42565b5b602001015160f81c60f81b7effffffffffffffffffffffffffffffffffffffffffffffffffffffffffffff19167effffffffffffffffffffffffffffffffffffffffffffffffffffffffffffff191681526020019081526020015f2054826103f49190610f6f565b915061047b565b5f808483815181106104105761040f610f42565b5b602001015160f81c60f81b7effffffffffffffffffffffffffffffffffffffffffffffffffffffffffffff19167effffffffffffffffffffffffffffffffffffffffffffffffffffffffffffff191681526020019081526020015f2054826104789190610faf565b91505b808060010191505061026c565b505f80836001855161049a9190610edc565b815181106104ab576104aa610f42565b5b602001015160f81c60f81b7effffffffffffffffffffffffffffffffffffffffffffffffffffffffffffff19167effffffffffffffffffffffffffffffffffffffffffffffffffffffffffffff191681526020019081526020015f2054816105139190610faf565b90508092505050919050565b60605f6103e883111561057d576103e88361053a9190610edc565b9250826040518060400160405280600181526020017f4d000000000000000000000000000000000000000000000000000000000000008152509091509150610997565b61038483106105d757610384836105949190610edc565b9250826040518060400160405280600281526020017f434d0000000000000000000000000000000000000000000000000000000000008152509091509150610997565b6101f48310610631576101f4836105ee9190610edc565b9250826040518060400160405280600181526020017f44000000000000000000000000000000000000000000000000000000000000008152509091509150610997565b610190831061068b57610190836106489190610edc565b9250826040518060400160405280600281526020017f43440000000000000000000000000000000000000000000000000000000000008152509091509150610997565b606483106106e3576064836106a09190610edc565b9250826040518060400160405280600181526020017f43000000000000000000000000000000000000000000000000000000000000008152509091509150610997565b605a831061073b57605a836106f89190610edc565b9250826040518060400160405280600281526020017f58430000000000000000000000000000000000000000000000000000000000008152509091509150610997565b60328310610793576032836107509190610edc565b9250826040518060400160405280600181526020017f4c000000000000000000000000000000000000000000000000000000000000008152509091509150610997565b602883106107eb576028836107a89190610edc565b9250826040518060400160405280600281526020017f584c0000000000000000000000000000000000000000000000000000000000008152509091509150610997565b600a831061084357600a836108009190610edc565b9250826040518060400160405280600181526020017f58000000000000000000000000000000000000000000000000000000000000008152509091509150610997565b6009831061089b576009836108589190610edc565b9250826040518060400160405280600281526020017f49580000000000000000000000000000000000000000000000000000000000008152509091509150610997565b600583106108f3576005836108b09190610edc565b9250826040518060400160405280600181526020017f56000000000000000000000000000000000000000000000000000000000000008152509091509150610997565b6004831061094b576004836109089190610edc565b9250826040518060400160405280600281526020017f49560000000000000000000000000000000000000000000000000000000000008152509091509150610997565b6001836109589190610edc565b9250826040518060400160405280600181526020017f490000000000000000000000000000000000000000000000000000000000000081525090915091505b915091565b5f7f4900000000000000000000000000000000000000000000000000000000000000827effffffffffffffffffffffffffffffffffffffffffffffffffffffffffffff1916036109ef5760019050610b90565b7f5600000000000000000000000000000000000000000000000000000000000000827effffffffffffffffffffffffffffffffffffffffffffffffffffffffffffff191603610a415760059050610b90565b7f5800000000000000000000000000000000000000000000000000000000000000827effffffffffffffffffffffffffffffffffffffffffffffffffffffffffffff191603610a9357600a9050610b90565b7f4c00000000000000000000000000000000000000000000000000000000000000827effffffffffffffffffffffffffffffffffffffffffffffffffffffffffffff191603610ae55760329050610b90565b7f4300000000000000000000000000000000000000000000000000000000000000827effffffffffffffffffffffffffffffffffffffffffffffffffffffffffffff191603610b375760649050610b90565b7f4400000000000000000000000000000000000000000000000000000000000000827effffffffffffffffffffffffffffffffffffffffffffffffffffffffffffff191603610b8a576101f49050610b90565b6103e890505b919050565b5f604051905090565b5f80fd5b5f80fd5b5f819050919050565b610bb881610ba6565b8114610bc2575f80fd5b50565b5f81359050610bd381610baf565b92915050565b5f60208284031215610bee57610bed610b9e565b5b5f610bfb84828501610bc5565b91505092915050565b5f81519050919050565b5f82825260208201905092915050565b5f5b83811015610c3b578082015181840152602081019050610c20565b5f8484015250505050565b5f601f19601f8301169050919050565b5f610c6082610c04565b610c6a8185610c0e565b9350610c7a818560208601610c1e565b610c8381610c46565b840191505092915050565b5f6020820190508181035f830152610ca68184610c56565b905092915050565b5f80fd5b5f80fd5b7f4e487b71000000000000000000000000000000000000000000000000000000005f52604160045260245ffd5b610cec82610c46565b810181811067ffffffffffffffff82111715610d0b57610d0a610cb6565b5b80604052505050565b5f610d1d610b95565b9050610d298282610ce3565b919050565b5f67ffffffffffffffff821115610d4857610d47610cb6565b5b610d5182610c46565b9050602081019050919050565b828183375f83830152505050565b5f610d7e610d7984610d2e565b610d14565b905082815260208101848484011115610d9a57610d99610cb2565b5b610da5848285610d5e565b509392505050565b5f82601f830112610dc157610dc0610cae565b5b8135610dd1848260208601610d6c565b91505092915050565b5f60208284031215610def57610dee610b9e565b5b5f82013567ffffffffffffffff811115610e0c57610e0b610ba2565b5b610e1884828501610dad565b91505092915050565b5f819050919050565b610e3381610e21565b82525050565b5f602082019050610e4c5f830184610e2a565b92915050565b5f81905092915050565b5f610e6682610c04565b610e708185610e52565b9350610e80818560208601610c1e565b80840191505092915050565b5f610e978285610e5c565b9150610ea38284610e5c565b91508190509392505050565b7f4e487b71000000000000000000000000000000000000000000000000000000005f52601160045260245ffd5b5f610ee682610ba6565b9150610ef183610ba6565b9250828203905081811115610f0957610f08610eaf565b5b92915050565b5f610f1982610ba6565b9150610f2483610ba6565b9250828201905080821115610f3c57610f3b610eaf565b5b92915050565b7f4e487b71000000000000000000000000000000000000000000000000000000005f52603260045260245ffd5b5f610f7982610e21565b9150610f8483610e21565b925082820390508181125f8412168282135f851215161715610fa957610fa8610eaf565b5b92915050565b5f610fb982610e21565b9150610fc483610e21565b92508282019050828112155f8312168382125f841215161715610fea57610fe9610eaf565b5b9291505056fea26469706673582212203cd1584ae6912c75bb03a3c77a2b1d7bb15dbb112f4e5f66f5a9a442ad5e217c64736f6c634300081a0033",
			"opcodes": "PUSH1 0x80 PUSH1 0x40 MSTORE CALLVALUE DUP1 ISZERO PUSH2 0xF JUMPI PUSH0 DUP1 REVERT JUMPDEST POP PUSH1 0x1 PUSH0 DUP1 PUSH32 0x4900000000000000000000000000000000000000000000000000000000000000 PUSH31 0xFFFFFFFFFFFFFFFFFFFFFFFFFFFFFFFFFFFFFFFFFFFFFFFFFFFFFFFFFFFFFF NOT AND DUP2 MSTORE PUSH1 0x20 ADD SWAP1 DUP2 MSTORE PUSH1 0x20 ADD PUSH0 KECCAK256 DUP2 SWAP1 SSTORE POP PUSH1 0x5 PUSH0 DUP1 PUSH32 0x5600000000000000000000000000000000000000000000000000000000000000 PUSH31 0xFFFFFFFFFFFFFFFFFFFFFFFFFFFFFFFFFFFFFFFFFFFFFFFFFFFFFFFFFFFFFF NOT AND DUP2 MSTORE PUSH1 0x20 ADD SWAP1 DUP2 MSTORE PUSH1 0x20 ADD PUSH0 KECCAK256 DUP2 SWAP1 SSTORE POP PUSH1 0xA PUSH0 DUP1 PUSH32 0x5800000000000000000000000000000000000000000000000000000000000000 PUSH31 0xFFFFFFFFFFFFFFFFFFFFFFFFFFFFFFFFFFFFFFFFFFFFFFFFFFFFFFFFFFFFFF NOT AND DUP2 MSTORE PUSH1 0x20 ADD SWAP1 DUP2 MSTORE PUSH1 0x20 ADD PUSH0 KECCAK256 DUP2 SWAP1 SSTORE POP PUSH1 0x32 PUSH0 DUP1 PUSH32 0x4C00000000000000000000000000000000000000000000000000000000000000 PUSH31 0xFFFFFFFFFFFFFFFFFFFFFFFFFFFFFFFFFFFFFFFFFFFFFFFFFFFFFFFFFFFFFF NOT AND DUP2 MSTORE PUSH1 0x20 ADD SWAP1 DUP2 MSTORE PUSH1 0x20 ADD PUSH0 KECCAK256 DUP2 SWAP1 SSTORE POP PUSH1 0x64 PUSH0 DUP1 PUSH32 0x4300000000000000000000000000000000000000000000000000000000000000 PUSH31 0xFFFFFFFFFFFFFFFFFFFFFFFFFFFFFFFFFFFFFFFFFFFFFFFFFFFFFFFFFFFFFF NOT AND DUP2 MSTORE PUSH1 0x20 ADD SWAP1 DUP2 MSTORE PUSH1 0x20 ADD PUSH0 KECCAK256 DUP2 SWAP1 SSTORE POP PUSH2 0x1F4 PUSH0 DUP1 PUSH32 0x4400000000000000000000000000000000000000000000000000000000000000 PUSH31 0xFFFFFFFFFFFFFFFFFFFFFFFFFFFFFFFFFFFFFFFFFFFFFFFFFFFFFFFFFFFFFF NOT AND DUP2 MSTORE PUSH1 0x20 ADD SWAP1 DUP2 MSTORE PUSH1 0x20 ADD PUSH0 KECCAK256 DUP2 SWAP1 SSTORE POP PUSH2 0x3E8 PUSH0 DUP1 PUSH32 0x4D00000000000000000000000000000000000000000000000000000000000000 PUSH31 0xFFFFFFFFFFFFFFFFFFFFFFFFFFFFFFFFFFFFFFFFFFFFFFFFFFFFFFFFFFFFFF NOT AND DUP2 MSTORE PUSH1 0x20 ADD SWAP1 DUP2 MSTORE PUSH1 0x20 ADD PUSH0 KECCAK256 DUP2 SWAP1 SSTORE POP PUSH2 0x1026 DUP1 PUSH2 0x287 PUSH0 CODECOPY PUSH0 RETURN INVALID PUSH1 0x80 PUSH1 0x40 MSTORE CALLVALUE DUP1 ISZERO PUSH2 0xF JUMPI PUSH0 DUP1 REVERT JUMPDEST POP PUSH1 0x4 CALLDATASIZE LT PUSH2 0x3F JUMPI PUSH0 CALLDATALOAD PUSH1 0xE0 SHR DUP1 PUSH4 0xCBC513A EQ PUSH2 0x43 JUMPI DUP1 PUSH4 0x2AB6FACA EQ PUSH2 0x73 JUMPI DUP1 PUSH4 0xCB159DFE EQ PUSH2 0xA3 JUMPI JUMPDEST PUSH0 DUP1 REVERT JUMPDEST PUSH2 0x5D PUSH1 0x4 DUP1 CALLDATASIZE SUB DUP2 ADD SWAP1 PUSH2 0x58 SWAP2 SWAP1 PUSH2 0xBD9 JUMP JUMPDEST PUSH2 0xD3 JUMP JUMPDEST PUSH1 0x40 MLOAD PUSH2 0x6A SWAP2 SWAP1 PUSH2 0xC8E JUMP JUMPDEST PUSH1 0x40 MLOAD DUP1 SWAP2 SUB SWAP1 RETURN JUMPDEST PUSH2 0x8D PUSH1 0x4 DUP1 CALLDATASIZE SUB DUP2 ADD SWAP1 PUSH2 0x88 SWAP2 SWAP1 PUSH2 0xDDA JUMP JUMPDEST PUSH2 0x125 JUMP JUMPDEST PUSH1 0x40 MLOAD PUSH2 0x9A SWAP2 SWAP1 PUSH2 0xE39 JUMP JUMPDEST PUSH1 0x40 MLOAD DUP1 SWAP2 SUB SWAP1 RETURN JUMPDEST PUSH2 0xBD PUSH1 0x4 DUP1 CALLDATASIZE SUB DUP2 ADD SWAP1 PUSH2 0xB8 SWAP2 SWAP1 PUSH2 0xDDA JUMP JUMPDEST PUSH2 0x264 JUMP JUMPDEST PUSH1 0x40 MLOAD PUSH2 0xCA SWAP2 SWAP1 PUSH2 0xE39 JUMP JUMPDEST PUSH1 0x40 MLOAD DUP1 SWAP2 SUB SWAP1 RETURN JUMPDEST PUSH1 0x60 DUP1 PUSH1 0x60 JUMPDEST PUSH0 DUP5 GT ISZERO PUSH2 0x11B JUMPI PUSH2 0xEA DUP5 PUSH2 0x51F JUMP JUMPDEST DUP1 SWAP6 POP DUP2 SWAP3 POP POP POP DUP2 DUP2 PUSH1 0x40 MLOAD PUSH1 0x20 ADD PUSH2 0x105 SWAP3 SWAP2 SWAP1 PUSH2 0xE8C JUMP JUMPDEST PUSH1 0x40 MLOAD PUSH1 0x20 DUP2 DUP4 SUB SUB DUP2 MSTORE SWAP1 PUSH1 0x40 MSTORE SWAP2 POP PUSH2 0xD9 JUMP JUMPDEST DUP2 SWAP3 POP POP POP SWAP2 SWAP1 POP JUMP JUMPDEST PUSH0 DUP1 DUP3 SWAP1 POP PUSH0 DUP1 JUMPDEST PUSH1 0x1 DUP4 MLOAD PUSH2 0x13B SWAP2 SWAP1 PUSH2 0xEDC JUMP JUMPDEST DUP2 LT ISZERO PUSH2 0x219 JUMPI PUSH2 0x174 DUP4 PUSH1 0x1 DUP4 PUSH2 0x153 SWAP2 SWAP1 PUSH2 0xF0F JUMP JUMPDEST DUP2 MLOAD DUP2 LT PUSH2 0x164 JUMPI PUSH2 0x163 PUSH2 0xF42 JUMP JUMPDEST JUMPDEST PUSH1 0x20 ADD ADD MLOAD PUSH1 0xF8 SHR PUSH1 0xF8 SHL PUSH2 0x99C JUMP JUMPDEST PUSH2 0x19A DUP5 DUP4 DUP2 MLOAD DUP2 LT PUSH2 0x18A JUMPI PUSH2 0x189 PUSH2 0xF42 JUMP JUMPDEST JUMPDEST PUSH1 0x20 ADD ADD MLOAD PUSH1 0xF8 SHR PUSH1 0xF8 SHL PUSH2 0x99C JUMP JUMPDEST SLT ISZERO PUSH2 0x1D8 JUMPI PUSH2 0x1C6 DUP4 DUP3 DUP2 MLOAD DUP2 LT PUSH2 0x1B6 JUMPI PUSH2 0x1B5 PUSH2 0xF42 JUMP JUMPDEST JUMPDEST PUSH1 0x20 ADD ADD MLOAD PUSH1 0xF8 SHR PUSH1 0xF8 SHL PUSH2 0x99C JUMP JUMPDEST DUP3 PUSH2 0x1D1 SWAP2 SWAP1 PUSH2 0xF6F JUMP JUMPDEST SWAP2 POP PUSH2 0x20C JUMP JUMPDEST PUSH2 0x1FE DUP4 DUP3 DUP2 MLOAD DUP2 LT PUSH2 0x1EE JUMPI PUSH2 0x1ED PUSH2 0xF42 JUMP JUMPDEST JUMPDEST PUSH1 0x20 ADD ADD MLOAD PUSH1 0xF8 SHR PUSH1 0xF8 SHL PUSH2 0x99C JUMP JUMPDEST DUP3 PUSH2 0x209 SWAP2 SWAP1 PUSH2 0xFAF JUMP JUMPDEST SWAP2 POP JUMPDEST DUP1 DUP1 PUSH1 0x1 ADD SWAP2 POP POP PUSH2 0x12D JUMP JUMPDEST POP PUSH2 0x24D DUP3 PUSH1 0x1 DUP5 MLOAD PUSH2 0x22C SWAP2 SWAP1 PUSH2 0xEDC JUMP JUMPDEST DUP2 MLOAD DUP2 LT PUSH2 0x23D JUMPI PUSH2 0x23C PUSH2 0xF42 JUMP JUMPDEST JUMPDEST PUSH1 0x20 ADD ADD MLOAD PUSH1 0xF8 SHR PUSH1 0xF8 SHL PUSH2 0x99C JUMP JUMPDEST DUP2 PUSH2 0x258 SWAP2 SWAP1 PUSH2 0xFAF JUMP JUMPDEST SWAP1 POP DUP1 SWAP3 POP POP POP SWAP2 SWAP1 POP JUMP JUMPDEST PUSH0 DUP1 DUP3 SWAP1 POP PUSH0 DUP1 JUMPDEST PUSH1 0x1 DUP4 MLOAD PUSH2 0x27A SWAP2 SWAP1 PUSH2 0xEDC JUMP JUMPDEST DUP2 LT ISZERO PUSH2 0x488 JUMPI PUSH0 DUP1 DUP5 PUSH1 0x1 DUP5 PUSH2 0x291 SWAP2 SWAP1 PUSH2 0xF0F JUMP JUMPDEST DUP2 MLOAD DUP2 LT PUSH2 0x2A2 JUMPI PUSH2 0x2A1 PUSH2 0xF42 JUMP JUMPDEST JUMPDEST PUSH1 0x20 ADD ADD MLOAD PUSH1 0xF8 SHR PUSH1 0xF8 SHL PUSH31 0xFFFFFFFFFFFFFFFFFFFFFFFFFFFFFFFFFFFFFFFFFFFFFFFFFFFFFFFFFFFFFF NOT AND PUSH31 0xFFFFFFFFFFFFFFFFFFFFFFFFFFFFFFFFFFFFFFFFFFFFFFFFFFFFFFFFFFFFFF NOT AND DUP2 MSTORE PUSH1 0x20 ADD SWAP1 DUP2 MSTORE PUSH1 0x20 ADD PUSH0 KECCAK256 SLOAD PUSH0 DUP1 DUP6 DUP5 DUP2 MLOAD DUP2 LT PUSH2 0x314 JUMPI PUSH2 0x313 PUSH2 0xF42 JUMP JUMPDEST JUMPDEST PUSH1 0x20 ADD ADD MLOAD PUSH1 0xF8 SHR PUSH1 0xF8 SHL PUSH31 0xFFFFFFFFFFFFFFFFFFFFFFFFFFFFFFFFFFFFFFFFFFFFFFFFFFFFFFFFFFFFFF NOT AND PUSH31 0xFFFFFFFFFFFFFFFFFFFFFFFFFFFFFFFFFFFFFFFFFFFFFFFFFFFFFFFFFFFFFF NOT AND DUP2 MSTORE PUSH1 0x20 ADD SWAP1 DUP2 MSTORE PUSH1 0x20 ADD PUSH0 KECCAK256 SLOAD SLT ISZERO PUSH2 0x3FB JUMPI PUSH0 DUP1 DUP5 DUP4 DUP2 MLOAD DUP2 LT PUSH2 0x38C JUMPI PUSH2 0x38B PUSH2 0xF42 JUMP JUMPDEST JUMPDEST PUSH1 0x20 ADD ADD MLOAD PUSH1 0xF8 SHR PUSH1 0xF8 SHL PUSH31 0xFFFFFFFFFFFFFFFFFFFFFFFFFFFFFFFFFFFFFFFFFFFFFFFFFFFFFFFFFFFFFF NOT AND PUSH31 0xFFFFFFFFFFFFFFFFFFFFFFFFFFFFFFFFFFFFFFFFFFFFFFFFFFFFFFFFFFFFFF NOT AND DUP2 MSTORE PUSH1 0x20 ADD SWAP1 DUP2 MSTORE PUSH1 0x20 ADD PUSH0 KECCAK256 SLOAD DUP3 PUSH2 0x3F4 SWAP2 SWAP1 PUSH2 0xF6F JUMP JUMPDEST SWAP2 POP PUSH2 0x47B JUMP JUMPDEST PUSH0 DUP1 DUP5 DUP4 DUP2 MLOAD DUP2 LT PUSH2 0x410 JUMPI PUSH2 0x40F PUSH2 0xF42 JUMP JUMPDEST JUMPDEST PUSH1 0x20 ADD ADD MLOAD PUSH1 0xF8 SHR PUSH1 0xF8 SHL PUSH31 0xFFFFFFFFFFFFFFFFFFFFFFFFFFFFFFFFFFFFFFFFFFFFFFFFFFFFFFFFFFFFFF NOT AND PUSH31 0xFFFFFFFFFFFFFFFFFFFFFFFFFFFFFFFFFFFFFFFFFFFFFFFFFFFFFFFFFFFFFF NOT AND DUP2 MSTORE PUSH1 0x20 ADD SWAP1 DUP2 MSTORE PUSH1 0x20 ADD PUSH0 KECCAK256 SLOAD DUP3 PUSH2 0x478 SWAP2 SWAP1 PUSH2 0xFAF JUMP JUMPDEST SWAP2 POP JUMPDEST DUP1 DUP1 PUSH1 0x1 ADD SWAP2 POP POP PUSH2 0x26C JUMP JUMPDEST POP PUSH0 DUP1 DUP4 PUSH1 0x1 DUP6 MLOAD PUSH2 0x49A SWAP2 SWAP1 PUSH2 0xEDC JUMP JUMPDEST DUP2 MLOAD DUP2 LT PUSH2 0x4AB JUMPI PUSH2 0x4AA PUSH2 0xF42 JUMP JUMPDEST JUMPDEST PUSH1 0x20 ADD ADD MLOAD PUSH1 0xF8 SHR PUSH1 0xF8 SHL PUSH31 0xFFFFFFFFFFFFFFFFFFFFFFFFFFFFFFFFFFFFFFFFFFFFFFFFFFFFFFFFFFFFFF NOT AND PUSH31 0xFFFFFFFFFFFFFFFFFFFFFFFFFFFFFFFFFFFFFFFFFFFFFFFFFFFFFFFFFFFFFF NOT AND DUP2 MSTORE PUSH1 0x20 ADD SWAP1 DUP2 MSTORE PUSH1 0x20 ADD PUSH0 KECCAK256 SLOAD DUP2 PUSH2 0x513 SWAP2 SWAP1 PUSH2 0xFAF JUMP JUMPDEST SWAP1 POP DUP1 SWAP3 POP POP POP SWAP2 SWAP1 POP JUMP JUMPDEST PUSH1 0x60 PUSH0 PUSH2 0x3E8 DUP4 GT ISZERO PUSH2 0x57D JUMPI PUSH2 0x3E8 DUP4 PUSH2 0x53A SWAP2 SWAP1 PUSH2 0xEDC JUMP JUMPDEST SWAP3 POP DUP3 PUSH1 0x40 MLOAD DUP1 PUSH1 0x40 ADD PUSH1 0x40 MSTORE DUP1 PUSH1 0x1 DUP2 MSTORE PUSH1 0x20 ADD PUSH32 0x4D00000000000000000000000000000000000000000000000000000000000000 DUP2 MSTORE POP SWAP1 SWAP2 POP SWAP2 POP PUSH2 0x997 JUMP JUMPDEST PUSH2 0x384 DUP4 LT PUSH2 0x5D7 JUMPI PUSH2 0x384 DUP4 PUSH2 0x594 SWAP2 SWAP1 PUSH2 0xEDC JUMP JUMPDEST SWAP3 POP DUP3 PUSH1 0x40 MLOAD DUP1 PUSH1 0x40 ADD PUSH1 0x40 MSTORE DUP1 PUSH1 0x2 DUP2 MSTORE PUSH1 0x20 ADD PUSH32 0x434D000000000000000000000000000000000000000000000000000000000000 DUP2 MSTORE POP SWAP1 SWAP2 POP SWAP2 POP PUSH2 0x997 JUMP JUMPDEST PUSH2 0x1F4 DUP4 LT PUSH2 0x631 JUMPI PUSH2 0x1F4 DUP4 PUSH2 0x5EE SWAP2 SWAP1 PUSH2 0xEDC JUMP JUMPDEST SWAP3 POP DUP3 PUSH1 0x40 MLOAD DUP1 PUSH1 0x40 ADD PUSH1 0x40 MSTORE DUP1 PUSH1 0x1 DUP2 MSTORE PUSH1 0x20 ADD PUSH32 0x4400000000000000000000000000000000000000000000000000000000000000 DUP2 MSTORE POP SWAP1 SWAP2 POP SWAP2 POP PUSH2 0x997 JUMP JUMPDEST PUSH2 0x190 DUP4 LT PUSH2 0x68B JUMPI PUSH2 0x190 DUP4 PUSH2 0x648 SWAP2 SWAP1 PUSH2 0xEDC JUMP JUMPDEST SWAP3 POP DUP3 PUSH1 0x40 MLOAD DUP1 PUSH1 0x40 ADD PUSH1 0x40 MSTORE DUP1 PUSH1 0x2 DUP2 MSTORE PUSH1 0x20 ADD PUSH32 0x4344000000000000000000000000000000000000000000000000000000000000 DUP2 MSTORE POP SWAP1 SWAP2 POP SWAP2 POP PUSH2 0x997 JUMP JUMPDEST PUSH1 0x64 DUP4 LT PUSH2 0x6E3 JUMPI PUSH1 0x64 DUP4 PUSH2 0x6A0 SWAP2 SWAP1 PUSH2 0xEDC JUMP JUMPDEST SWAP3 POP DUP3 PUSH1 0x40 MLOAD DUP1 PUSH1 0x40 ADD PUSH1 0x40 MSTORE DUP1 PUSH1 0x1 DUP2 MSTORE PUSH1 0x20 ADD PUSH32 0x4300000000000000000000000000000000000000000000000000000000000000 DUP2 MSTORE POP SWAP1 SWAP2 POP SWAP2 POP PUSH2 0x997 JUMP JUMPDEST PUSH1 0x5A DUP4 LT PUSH2 0x73B JUMPI PUSH1 0x5A DUP4 PUSH2 0x6F8 SWAP2 SWAP1 PUSH2 0xEDC JUMP JUMPDEST SWAP3 POP DUP3 PUSH1 0x40 MLOAD DUP1 PUSH1 0x40 ADD PUSH1 0x40 MSTORE DUP1 PUSH1 0x2 DUP2 MSTORE PUSH1 0x20 ADD PUSH32 0x5843000000000000000000000000000000000000000000000000000000000000 DUP2 MSTORE POP SWAP1 SWAP2 POP SWAP2 POP PUSH2 0x997 JUMP JUMPDEST PUSH1 0x32 DUP4 LT PUSH2 0x793 JUMPI PUSH1 0x32 DUP4 PUSH2 0x750 SWAP2 SWAP1 PUSH2 0xEDC JUMP JUMPDEST SWAP3 POP DUP3 PUSH1 0x40 MLOAD DUP1 PUSH1 0x40 ADD PUSH1 0x40 MSTORE DUP1 PUSH1 0x1 DUP2 MSTORE PUSH1 0x20 ADD PUSH32 0x4C00000000000000000000000000000000000000000000000000000000000000 DUP2 MSTORE POP SWAP1 SWAP2 POP SWAP2 POP PUSH2 0x997 JUMP JUMPDEST PUSH1 0x28 DUP4 LT PUSH2 0x7EB JUMPI PUSH1 0x28 DUP4 PUSH2 0x7A8 SWAP2 SWAP1 PUSH2 0xEDC JUMP JUMPDEST SWAP3 POP DUP3 PUSH1 0x40 MLOAD DUP1 PUSH1 0x40 ADD PUSH1 0x40 MSTORE DUP1 PUSH1 0x2 DUP2 MSTORE PUSH1 0x20 ADD PUSH32 0x584C000000000000000000000000000000000000000000000000000000000000 DUP2 MSTORE POP SWAP1 SWAP2 POP SWAP2 POP PUSH2 0x997 JUMP JUMPDEST PUSH1 0xA DUP4 LT PUSH2 0x843 JUMPI PUSH1 0xA DUP4 PUSH2 0x800 SWAP2 SWAP1 PUSH2 0xEDC JUMP JUMPDEST SWAP3 POP DUP3 PUSH1 0x40 MLOAD DUP1 PUSH1 0x40 ADD PUSH1 0x40 MSTORE DUP1 PUSH1 0x1 DUP2 MSTORE PUSH1 0x20 ADD PUSH32 0x5800000000000000000000000000000000000000000000000000000000000000 DUP2 MSTORE POP SWAP1 SWAP2 POP SWAP2 POP PUSH2 0x997 JUMP JUMPDEST PUSH1 0x9 DUP4 LT PUSH2 0x89B JUMPI PUSH1 0x9 DUP4 PUSH2 0x858 SWAP2 SWAP1 PUSH2 0xEDC JUMP JUMPDEST SWAP3 POP DUP3 PUSH1 0x40 MLOAD DUP1 PUSH1 0x40 ADD PUSH1 0x40 MSTORE DUP1 PUSH1 0x2 DUP2 MSTORE PUSH1 0x20 ADD PUSH32 0x4958000000000000000000000000000000000000000000000000000000000000 DUP2 MSTORE POP SWAP1 SWAP2 POP SWAP2 POP PUSH2 0x997 JUMP JUMPDEST PUSH1 0x5 DUP4 LT PUSH2 0x8F3 JUMPI PUSH1 0x5 DUP4 PUSH2 0x8B0 SWAP2 SWAP1 PUSH2 0xEDC JUMP JUMPDEST SWAP3 POP DUP3 PUSH1 0x40 MLOAD DUP1 PUSH1 0x40 ADD PUSH1 0x40 MSTORE DUP1 PUSH1 0x1 DUP2 MSTORE PUSH1 0x20 ADD PUSH32 0x5600000000000000000000000000000000000000000000000000000000000000 DUP2 MSTORE POP SWAP1 SWAP2 POP SWAP2 POP PUSH2 0x997 JUMP JUMPDEST PUSH1 0x4 DUP4 LT PUSH2 0x94B JUMPI PUSH1 0x4 DUP4 PUSH2 0x908 SWAP2 SWAP1 PUSH2 0xEDC JUMP JUMPDEST SWAP3 POP DUP3 PUSH1 0x40 MLOAD DUP1 PUSH1 0x40 ADD PUSH1 0x40 MSTORE DUP1 PUSH1 0x2 DUP2 MSTORE PUSH1 0x20 ADD PUSH32 0x4956000000000000000000000000000000000000000000000000000000000000 DUP2 MSTORE POP SWAP1 SWAP2 POP SWAP2 POP PUSH2 0x997 JUMP JUMPDEST PUSH1 0x1 DUP4 PUSH2 0x958 SWAP2 SWAP1 PUSH2 0xEDC JUMP JUMPDEST SWAP3 POP DUP3 PUSH1 0x40 MLOAD DUP1 PUSH1 0x40 ADD PUSH1 0x40 MSTORE DUP1 PUSH1 0x1 DUP2 MSTORE PUSH1 0x20 ADD PUSH32 0x4900000000000000000000000000000000000000000000000000000000000000 DUP2 MSTORE POP SWAP1 SWAP2 POP SWAP2 POP JUMPDEST SWAP2 POP SWAP2 JUMP JUMPDEST PUSH0 PUSH32 0x4900000000000000000000000000000000000000000000000000000000000000 DUP3 PUSH31 0xFFFFFFFFFFFFFFFFFFFFFFFFFFFFFFFFFFFFFFFFFFFFFFFFFFFFFFFFFFFFFF NOT AND SUB PUSH2 0x9EF JUMPI PUSH1 0x1 SWAP1 POP PUSH2 0xB90 JUMP JUMPDEST PUSH32 0x5600000000000000000000000000000000000000000000000000000000000000 DUP3 PUSH31 0xFFFFFFFFFFFFFFFFFFFFFFFFFFFFFFFFFFFFFFFFFFFFFFFFFFFFFFFFFFFFFF NOT AND SUB PUSH2 0xA41 JUMPI PUSH1 0x5 SWAP1 POP PUSH2 0xB90 JUMP JUMPDEST PUSH32 0x5800000000000000000000000000000000000000000000000000000000000000 DUP3 PUSH31 0xFFFFFFFFFFFFFFFFFFFFFFFFFFFFFFFFFFFFFFFFFFFFFFFFFFFFFFFFFFFFFF NOT AND SUB PUSH2 0xA93 JUMPI PUSH1 0xA SWAP1 POP PUSH2 0xB90 JUMP JUMPDEST PUSH32 0x4C00000000000000000000000000000000000000000000000000000000000000 DUP3 PUSH31 0xFFFFFFFFFFFFFFFFFFFFFFFFFFFFFFFFFFFFFFFFFFFFFFFFFFFFFFFFFFFFFF NOT AND SUB PUSH2 0xAE5 JUMPI PUSH1 0x32 SWAP1 POP PUSH2 0xB90 JUMP JUMPDEST PUSH32 0x4300000000000000000000000000000000000000000000000000000000000000 DUP3 PUSH31 0xFFFFFFFFFFFFFFFFFFFFFFFFFFFFFFFFFFFFFFFFFFFFFFFFFFFFFFFFFFFFFF NOT AND SUB PUSH2 0xB37 JUMPI PUSH1 0x64 SWAP1 POP PUSH2 0xB90 JUMP JUMPDEST PUSH32 0x4400000000000000000000000000000000000000000000000000000000000000 DUP3 PUSH31 0xFFFFFFFFFFFFFFFFFFFFFFFFFFFFFFFFFFFFFFFFFFFFFFFFFFFFFFFFFFFFFF NOT AND SUB PUSH2 0xB8A JUMPI PUSH2 0x1F4 SWAP1 POP PUSH2 0xB90 JUMP JUMPDEST PUSH2 0x3E8 SWAP1 POP JUMPDEST SWAP2 SWAP1 POP JUMP JUMPDEST PUSH0 PUSH1 0x40 MLOAD SWAP1 POP SWAP1 JUMP JUMPDEST PUSH0 DUP1 REVERT JUMPDEST PUSH0 DUP1 REVERT JUMPDEST PUSH0 DUP2 SWAP1 POP SWAP2 SWAP1 POP JUMP JUMPDEST PUSH2 0xBB8 DUP2 PUSH2 0xBA6 JUMP JUMPDEST DUP2 EQ PUSH2 0xBC2 JUMPI PUSH0 DUP1 REVERT JUMPDEST POP JUMP JUMPDEST PUSH0 DUP2 CALLDATALOAD SWAP1 POP PUSH2 0xBD3 DUP2 PUSH2 0xBAF JUMP JUMPDEST SWAP3 SWAP2 POP POP JUMP JUMPDEST PUSH0 PUSH1 0x20 DUP3 DUP5 SUB SLT ISZERO PUSH2 0xBEE JUMPI PUSH2 0xBED PUSH2 0xB9E JUMP JUMPDEST JUMPDEST PUSH0 PUSH2 0xBFB DUP5 DUP3 DUP6 ADD PUSH2 0xBC5 JUMP JUMPDEST SWAP2 POP POP SWAP3 SWAP2 POP POP JUMP JUMPDEST PUSH0 DUP2 MLOAD SWAP1 POP SWAP2 SWAP1 POP JUMP JUMPDEST PUSH0 DUP3 DUP3 MSTORE PUSH1 0x20 DUP3 ADD SWAP1 POP SWAP3 SWAP2 POP POP JUMP JUMPDEST PUSH0 JUMPDEST DUP4 DUP2 LT ISZERO PUSH2 0xC3B JUMPI DUP1 DUP3 ADD MLOAD DUP2 DUP5 ADD MSTORE PUSH1 0x20 DUP2 ADD SWAP1 POP PUSH2 0xC20 JUMP JUMPDEST PUSH0 DUP5 DUP5 ADD MSTORE POP POP POP POP JUMP JUMPDEST PUSH0 PUSH1 0x1F NOT PUSH1 0x1F DUP4 ADD AND SWAP1 POP SWAP2 SWAP1 POP JUMP JUMPDEST PUSH0 PUSH2 0xC60 DUP3 PUSH2 0xC04 JUMP JUMPDEST PUSH2 0xC6A DUP2 DUP6 PUSH2 0xC0E JUMP JUMPDEST SWAP4 POP PUSH2 0xC7A DUP2 DUP6 PUSH1 0x20 DUP7 ADD PUSH2 0xC1E JUMP JUMPDEST PUSH2 0xC83 DUP2 PUSH2 0xC46 JUMP JUMPDEST DUP5 ADD SWAP2 POP POP SWAP3 SWAP2 POP POP JUMP JUMPDEST PUSH0 PUSH1 0x20 DUP3 ADD SWAP1 POP DUP2 DUP2 SUB PUSH0 DUP4 ADD MSTORE PUSH2 0xCA6 DUP2 DUP5 PUSH2 0xC56 JUMP JUMPDEST SWAP1 POP SWAP3 SWAP2 POP POP JUMP JUMPDEST PUSH0 DUP1 REVERT JUMPDEST PUSH0 DUP1 REVERT JUMPDEST PUSH32 0x4E487B7100000000000000000000000000000000000000000000000000000000 PUSH0 MSTORE PUSH1 0x41 PUSH1 0x4 MSTORE PUSH1 0x24 PUSH0 REVERT JUMPDEST PUSH2 0xCEC DUP3 PUSH2 0xC46 JUMP JUMPDEST DUP2 ADD DUP2 DUP2 LT PUSH8 0xFFFFFFFFFFFFFFFF DUP3 GT OR ISZERO PUSH2 0xD0B JUMPI PUSH2 0xD0A PUSH2 0xCB6 JUMP JUMPDEST JUMPDEST DUP1 PUSH1 0x40 MSTORE POP POP POP JUMP JUMPDEST PUSH0 PUSH2 0xD1D PUSH2 0xB95 JUMP JUMPDEST SWAP1 POP PUSH2 0xD29 DUP3 DUP3 PUSH2 0xCE3 JUMP JUMPDEST SWAP2 SWAP1 POP JUMP JUMPDEST PUSH0 PUSH8 0xFFFFFFFFFFFFFFFF DUP3 GT ISZERO PUSH2 0xD48 JUMPI PUSH2 0xD47 PUSH2 0xCB6 JUMP JUMPDEST JUMPDEST PUSH2 0xD51 DUP3 PUSH2 0xC46 JUMP JUMPDEST SWAP1 POP PUSH1 0x20 DUP2 ADD SWAP1 POP SWAP2 SWAP1 POP JUMP JUMPDEST DUP3 DUP2 DUP4 CALLDATACOPY PUSH0 DUP4 DUP4 ADD MSTORE POP POP POP JUMP JUMPDEST PUSH0 PUSH2 0xD7E PUSH2 0xD79 DUP5 PUSH2 0xD2E JUMP JUMPDEST PUSH2 0xD14 JUMP JUMPDEST SWAP1 POP DUP3 DUP2 MSTORE PUSH1 0x20 DUP2 ADD DUP5 DUP5 DUP5 ADD GT ISZERO PUSH2 0xD9A JUMPI PUSH2 0xD99 PUSH2 0xCB2 JUMP JUMPDEST JUMPDEST PUSH2 0xDA5 DUP5 DUP3 DUP6 PUSH2 0xD5E JUMP JUMPDEST POP SWAP4 SWAP3 POP POP POP JUMP JUMPDEST PUSH0 DUP3 PUSH1 0x1F DUP4 ADD SLT PUSH2 0xDC1 JUMPI PUSH2 0xDC0 PUSH2 0xCAE JUMP JUMPDEST JUMPDEST DUP2 CALLDATALOAD PUSH2 0xDD1 DUP5 DUP3 PUSH1 0x20 DUP7 ADD PUSH2 0xD6C JUMP JUMPDEST SWAP2 POP POP SWAP3 SWAP2 POP POP JUMP JUMPDEST PUSH0 PUSH1 0x20 DUP3 DUP5 SUB SLT ISZERO PUSH2 0xDEF JUMPI PUSH2 0xDEE PUSH2 0xB9E JUMP JUMPDEST JUMPDEST PUSH0 DUP3 ADD CALLDATALOAD PUSH8 0xFFFFFFFFFFFFFFFF DUP2 GT ISZERO PUSH2 0xE0C JUMPI PUSH2 0xE0B PUSH2 0xBA2 JUMP JUMPDEST JUMPDEST PUSH2 0xE18 DUP5 DUP3 DUP6 ADD PUSH2 0xDAD JUMP JUMPDEST SWAP2 POP POP SWAP3 SWAP2 POP POP JUMP JUMPDEST PUSH0 DUP2 SWAP1 POP SWAP2 SWAP1 POP JUMP JUMPDEST PUSH2 0xE33 DUP2 PUSH2 0xE21 JUMP JUMPDEST DUP3 MSTORE POP POP JUMP JUMPDEST PUSH0 PUSH1 0x20 DUP3 ADD SWAP1 POP PUSH2 0xE4C PUSH0 DUP4 ADD DUP5 PUSH2 0xE2A JUMP JUMPDEST SWAP3 SWAP2 POP POP JUMP JUMPDEST PUSH0 DUP2 SWAP1 POP SWAP3 SWAP2 POP POP JUMP JUMPDEST PUSH0 PUSH2 0xE66 DUP3 PUSH2 0xC04 JUMP JUMPDEST PUSH2 0xE70 DUP2 DUP6 PUSH2 0xE52 JUMP JUMPDEST SWAP4 POP PUSH2 0xE80 DUP2 DUP6 PUSH1 0x20 DUP7 ADD PUSH2 0xC1E JUMP JUMPDEST DUP1 DUP5 ADD SWAP2 POP POP SWAP3 SWAP2 POP POP JUMP JUMPDEST PUSH0 PUSH2 0xE97 DUP3 DUP6 PUSH2 0xE5C JUMP JUMPDEST SWAP2 POP PUSH2 0xEA3 DUP3 DUP5 PUSH2 0xE5C JUMP JUMPDEST SWAP2 POP DUP2 SWAP1 POP SWAP4 SWAP3 POP POP POP JUMP JUMPDEST PUSH32 0x4E487B7100000000000000000000000000000000000000000000000000000000 PUSH0 MSTORE PUSH1 0x11 PUSH1 0x4 MSTORE PUSH1 0x24 PUSH0 REVERT JUMPDEST PUSH0 PUSH2 0xEE6 DUP3 PUSH2 0xBA6 JUMP JUMPDEST SWAP2 POP PUSH2 0xEF1 DUP4 PUSH2 0xBA6 JUMP JUMPDEST SWAP3 POP DUP3 DUP3 SUB SWAP1 POP DUP2 DUP2 GT ISZERO PUSH2 0xF09 JUMPI PUSH2 0xF08 PUSH2 0xEAF JUMP JUMPDEST JUMPDEST SWAP3 SWAP2 POP POP JUMP JUMPDEST PUSH0 PUSH2 0xF19 DUP3 PUSH2 0xBA6 JUMP JUMPDEST SWAP2 POP PUSH2 0xF24 DUP4 PUSH2 0xBA6 JUMP JUMPDEST SWAP3 POP DUP3 DUP3 ADD SWAP1 POP DUP1 DUP3 GT ISZERO PUSH2 0xF3C JUMPI PUSH2 0xF3B PUSH2 0xEAF JUMP JUMPDEST JUMPDEST SWAP3 SWAP2 POP POP JUMP JUMPDEST PUSH32 0x4E487B7100000000000000000000000000000000000000000000000000000000 PUSH0 MSTORE PUSH1 0x32 PUSH1 0x4 MSTORE PUSH1 0x24 PUSH0 REVERT JUMPDEST PUSH0 PUSH2 0xF79 DUP3 PUSH2 0xE21 JUMP JUMPDEST SWAP2 POP PUSH2 0xF84 DUP4 PUSH2 0xE21 JUMP JUMPDEST SWAP3 POP DUP3 DUP3 SUB SWAP1 POP DUP2 DUP2 SLT PUSH0 DUP5 SLT AND DUP3 DUP3 SGT PUSH0 DUP6 SLT ISZERO AND OR ISZERO PUSH2 0xFA9 JUMPI PUSH2 0xFA8 PUSH2 0xEAF JUMP JUMPDEST JUMPDEST SWAP3 SWAP2 POP POP JUMP JUMPDEST PUSH0 PUSH2 0xFB9 DUP3 PUSH2 0xE21 JUMP JUMPDEST SWAP2 POP PUSH2 0xFC4 DUP4 PUSH2 0xE21 JUMP JUMPDEST SWAP3 POP DUP3 DUP3 ADD SWAP1 POP DUP3 DUP2 SLT ISZERO PUSH0 DUP4 SLT AND DUP4 DUP3 SLT PUSH0 DUP5 SLT ISZERO AND OR ISZERO PUSH2 0xFEA JUMPI PUSH2 0xFE9 PUSH2 0xEAF JUMP JUMPDEST JUMPDEST SWAP3 SWAP2 POP POP JUMP INVALID LOG2 PUSH5 0x6970667358 0x22 SLT KECCAK256 EXTCODECOPY 0xD1 PC BLOBBASEFEE 0xE6 SWAP2 0x2C PUSH22 0xBB03A3C77A2B1D7BB15DBB112F4E5F66F5A9A442AD5E 0x21 PUSH29 0x64736F6C634300081A0033000000000000000000000000000000000000 "
		},
		"gasEstimates": {
			"creation": {
				"codeDepositCost": "826800",
				"executionCost": "156255",
				"totalCost": "983055"
			},
			"external": {
				"intToRoman(uint256)": "infinite",
				"romanToInt(string)": "infinite",
				"romanToInt1(string)": "infinite"
			},
			"internal": {
				"getNum(bytes1)": "230",
				"getRom(uint256)": "infinite"
			}
		},
		"methodIdentifiers": {
			"intToRoman(uint256)": "0cbc513a",
			"romanToInt(string)": "cb159dfe",
			"romanToInt1(string)": "2ab6faca"
		}
	},
	"abi": [
		{
			"inputs": [],
			"stateMutability": "nonpayable",
			"type": "constructor"
		},
		{
			"inputs": [
				{
					"internalType": "uint256",
					"name": "_num",
					"type": "uint256"
				}
			],
			"name": "intToRoman",
			"outputs": [
				{
					"internalType": "string",
					"name": "",
					"type": "string"
				}
			],
			"stateMutability": "pure",
			"type": "function"
		},
		{
			"inputs": [
				{
					"internalType": "string",
					"name": "_s",
					"type": "string"
				}
			],
			"name": "romanToInt",
			"outputs": [
				{
					"internalType": "int256",
					"name": "",
					"type": "int256"
				}
			],
			"stateMutability": "view",
			"type": "function"
		},
		{
			"inputs": [
				{
					"internalType": "string",
					"name": "_s",
					"type": "string"
				}
			],
			"name": "romanToInt1",
			"outputs": [
				{
					"internalType": "int256",
					"name": "",
					"type": "int256"
				}
			],
			"stateMutability": "pure",
			"type": "function"
		}
	]
}