{
	"contracts/home_work/question_3.sol": {
		"Question3": {
			"abi": [
				{
					"inputs": [],
					"stateMutability": "nonpayable",
					"type": "constructor"
				},
				{
					"inputs": [
						{
							"internalType": "uint256",
							"name": "_num",
							"type": "uint256"
						}
					],
					"name": "intToRoman",
					"outputs": [
						{
							"internalType": "string",
							"name": "",
							"type": "string"
						}
					],
					"stateMutability": "pure",
					"type": "function"
				},
				{
					"inputs": [
						{
							"internalType": "string",
							"name": "_s",
							"type": "string"
						}
					],
					"name": "romanToInt",
					"outputs": [
						{
							"internalType": "int256",
							"name": "",
							"type": "int256"
						}
					],
					"stateMutability": "view",
					"type": "function"
				},
				{
					"inputs": [
						{
							"internalType": "string",
							"name": "_s",
							"type": "string"
						}
					],
					"name": "romanToInt1",
					"outputs": [
						{
							"internalType": "int256",
							"name": "",
							"type": "int256"
						}
					],
					"stateMutability": "pure",
					"type": "function"
				}
			],
			"devdoc": {
				"kind": "dev",
				"methods": {},
				"version": 1
			},
			"evm": {
				"assembly": "    /* \"contracts/home_work/question_3.sol\":61:3077  contract Question3 {... */\n  mstore(0x40, 0x80)\n    /* \"contracts/home_work/question_3.sol\":134:317  constructor(){... */\n  callvalue\n  dup1\n  iszero\n  tag_1\n  jumpi\n  0x00\n  dup1\n  revert\ntag_1:\n  pop\n    /* \"contracts/home_work/question_3.sol\":167:168  1 */\n  0x01\n    /* \"contracts/home_work/question_3.sol\":158:161  dic */\n  0x00\n    /* \"contracts/home_work/question_3.sol\":158:166  dic[\"I\"] */\n  dup1\n  and(not(0xffffffffffffffffffffffffffffffffffffffffffffffffffffffffffffff), 0x4900000000000000000000000000000000000000000000000000000000000000)\n  dup2\n  mstore\n  0x20\n  add\n  swap1\n  dup2\n  mstore\n  0x20\n  add\n  0x00\n  keccak256\n    /* \"contracts/home_work/question_3.sol\":158:168  dic[\"I\"]=1 */\n  dup2\n  swap1\n  sstore\n  pop\n    /* \"contracts/home_work/question_3.sol\":188:189  5 */\n  0x05\n    /* \"contracts/home_work/question_3.sol\":179:182  dic */\n  0x00\n    /* \"contracts/home_work/question_3.sol\":179:187  dic[\"V\"] */\n  dup1\n  and(not(0xffffffffffffffffffffffffffffffffffffffffffffffffffffffffffffff), 0x5600000000000000000000000000000000000000000000000000000000000000)\n  dup2\n  mstore\n  0x20\n  add\n  swap1\n  dup2\n  mstore\n  0x20\n  add\n  0x00\n  keccak256\n    /* \"contracts/home_work/question_3.sol\":179:189  dic[\"V\"]=5 */\n  dup2\n  swap1\n  sstore\n  pop\n    /* \"contracts/home_work/question_3.sol\":209:211  10 */\n  0x0a\n    /* \"contracts/home_work/question_3.sol\":200:203  dic */\n  0x00\n    /* \"contracts/home_work/question_3.sol\":200:208  dic[\"X\"] */\n  dup1\n  and(not(0xffffffffffffffffffffffffffffffffffffffffffffffffffffffffffffff), 0x5800000000000000000000000000000000000000000000000000000000000000)\n  dup2\n  mstore\n  0x20\n  add\n  swap1\n  dup2\n  mstore\n  0x20\n  add\n  0x00\n  keccak256\n    /* \"contracts/home_work/question_3.sol\":200:211  dic[\"X\"]=10 */\n  dup2\n  swap1\n  sstore\n  pop\n    /* \"contracts/home_work/question_3.sol\":231:233  50 */\n  0x32\n    /* \"contracts/home_work/question_3.sol\":222:225  dic */\n  0x00\n    /* \"contracts/home_work/question_3.sol\":222:230  dic[\"L\"] */\n  dup1\n  and(not(0xffffffffffffffffffffffffffffffffffffffffffffffffffffffffffffff), 0x4c00000000000000000000000000000000000000000000000000000000000000)\n  dup2\n  mstore\n  0x20\n  add\n  swap1\n  dup2\n  mstore\n  0x20\n  add\n  0x00\n  keccak256\n    /* \"contracts/home_work/question_3.sol\":222:233  dic[\"L\"]=50 */\n  dup2\n  swap1\n  sstore\n  pop\n    /* \"contracts/home_work/question_3.sol\":253:256  100 */\n  0x64\n    /* \"contracts/home_work/question_3.sol\":244:247  dic */\n  0x00\n    /* \"contracts/home_work/question_3.sol\":244:252  dic[\"C\"] */\n  dup1\n  and(not(0xffffffffffffffffffffffffffffffffffffffffffffffffffffffffffffff), 0x4300000000000000000000000000000000000000000000000000000000000000)\n  dup2\n  mstore\n  0x20\n  add\n  swap1\n  dup2\n  mstore\n  0x20\n  add\n  0x00\n  keccak256\n    /* \"contracts/home_work/question_3.sol\":244:256  dic[\"C\"]=100 */\n  dup2\n  swap1\n  sstore\n  pop\n    /* \"contracts/home_work/question_3.sol\":276:279  500 */\n  0x01f4\n    /* \"contracts/home_work/question_3.sol\":267:270  dic */\n  0x00\n    /* \"contracts/home_work/question_3.sol\":267:275  dic[\"D\"] */\n  dup1\n  and(not(0xffffffffffffffffffffffffffffffffffffffffffffffffffffffffffffff), 0x4400000000000000000000000000000000000000000000000000000000000000)\n  dup2\n  mstore\n  0x20\n  add\n  swap1\n  dup2\n  mstore\n  0x20\n  add\n  0x00\n  keccak256\n    /* \"contracts/home_work/question_3.sol\":267:279  dic[\"D\"]=500 */\n  dup2\n  swap1\n  sstore\n  pop\n    /* \"contracts/home_work/question_3.sol\":299:303  1000 */\n  0x03e8\n    /* \"contracts/home_work/question_3.sol\":290:293  dic */\n  0x00\n    /* \"contracts/home_work/question_3.sol\":290:298  dic[\"M\"] */\n  dup1\n  and(not(0xffffffffffffffffffffffffffffffffffffffffffffffffffffffffffffff), 0x4d00000000000000000000000000000000000000000000000000000000000000)\n  dup2\n  mstore\n  0x20\n  add\n  swap1\n  dup2\n  mstore\n  0x20\n  add\n  0x00\n  keccak256\n    /* \"contracts/home_work/question_3.sol\":290:303  dic[\"M\"]=1000 */\n  dup2\n  swap1\n  sstore\n  pop\n    /* \"contracts/home_work/question_3.sol\":61:3077  contract Question3 {... */\n  dataSize(sub_0)\n  dup1\n  dataOffset(sub_0)\n  0x00\n  codecopy\n  0x00\n  return\nstop\n\nsub_0: assembly {\n        /* \"contracts/home_work/question_3.sol\":61:3077  contract Question3 {... */\n      mstore(0x40, 0x80)\n      callvalue\n      dup1\n      iszero\n      tag_1\n      jumpi\n      0x00\n      dup1\n      revert\n    tag_1:\n      pop\n      jumpi(tag_2, lt(calldatasize, 0x04))\n      shr(0xe0, calldataload(0x00))\n      dup1\n      0x0cbc513a\n      eq\n      tag_3\n      jumpi\n      dup1\n      0x2ab6faca\n      eq\n      tag_4\n      jumpi\n      dup1\n      0xcb159dfe\n      eq\n      tag_5\n      jumpi\n    tag_2:\n      0x00\n      dup1\n      revert\n        /* \"contracts/home_work/question_3.sol\":1634:1899  function intToRoman(uint _num) public pure returns (string memory){... */\n    tag_3:\n      tag_6\n      0x04\n      dup1\n      calldatasize\n      sub\n      dup2\n      add\n      swap1\n      tag_7\n      swap2\n      swap1\n      tag_8\n      jump\t// in\n    tag_7:\n      tag_9\n      jump\t// in\n    tag_6:\n      mload(0x40)\n      tag_10\n      swap2\n      swap1\n      tag_11\n      jump\t// in\n    tag_10:\n      mload(0x40)\n      dup1\n      swap2\n      sub\n      swap1\n      return\n        /* \"contracts/home_work/question_3.sol\":1222:1624  function romanToInt1(string memory _s) public pure  returns (int){... */\n    tag_4:\n      tag_12\n      0x04\n      dup1\n      calldatasize\n      sub\n      dup2\n      add\n      swap1\n      tag_13\n      swap2\n      swap1\n      tag_14\n      jump\t// in\n    tag_13:\n      tag_15\n      jump\t// in\n    tag_12:\n      mload(0x40)\n      tag_16\n      swap2\n      swap1\n      tag_17\n      jump\t// in\n    tag_16:\n      mload(0x40)\n      dup1\n      swap2\n      sub\n      swap1\n      return\n        /* \"contracts/home_work/question_3.sol\":349:734  function romanToInt(string memory _s) public view returns (int){... */\n    tag_5:\n      tag_18\n      0x04\n      dup1\n      calldatasize\n      sub\n      dup2\n      add\n      swap1\n      tag_19\n      swap2\n      swap1\n      tag_14\n      jump\t// in\n    tag_19:\n      tag_20\n      jump\t// in\n    tag_18:\n      mload(0x40)\n      tag_21\n      swap2\n      swap1\n      tag_17\n      jump\t// in\n    tag_21:\n      mload(0x40)\n      dup1\n      swap2\n      sub\n      swap1\n      return\n        /* \"contracts/home_work/question_3.sol\":1634:1899  function intToRoman(uint _num) public pure returns (string memory){... */\n    tag_9:\n        /* \"contracts/home_work/question_3.sol\":1686:1699  string memory */\n      0x60\n        /* \"contracts/home_work/question_3.sol\":1711:1728  string memory res */\n      dup1\n        /* \"contracts/home_work/question_3.sol\":1739:1754  string memory t */\n      0x60\n        /* \"contracts/home_work/question_3.sol\":1765:1871  while (_num>0 ){... */\n    tag_23:\n        /* \"contracts/home_work/question_3.sol\":1777:1778  0 */\n      0x00\n        /* \"contracts/home_work/question_3.sol\":1772:1776  _num */\n      dup5\n        /* \"contracts/home_work/question_3.sol\":1772:1778  _num>0 */\n      gt\n        /* \"contracts/home_work/question_3.sol\":1765:1871  while (_num>0 ){... */\n      iszero\n      tag_24\n      jumpi\n        /* \"contracts/home_work/question_3.sol\":1806:1818  getRom(_num) */\n      tag_25\n        /* \"contracts/home_work/question_3.sol\":1813:1817  _num */\n      dup5\n        /* \"contracts/home_work/question_3.sol\":1806:1812  getRom */\n      tag_26\n        /* \"contracts/home_work/question_3.sol\":1806:1818  getRom(_num) */\n      jump\t// in\n    tag_25:\n        /* \"contracts/home_work/question_3.sol\":1795:1818  (t,_num) = getRom(_num) */\n      dup1\n      swap6\n      pop\n      dup2\n      swap3\n      pop\n      pop\n      pop\n        /* \"contracts/home_work/question_3.sol\":1853:1856  res */\n      dup2\n        /* \"contracts/home_work/question_3.sol\":1857:1858  t */\n      dup2\n        /* \"contracts/home_work/question_3.sol\":1839:1859  string.concat(res,t) */\n      add(0x20, mload(0x40))\n      tag_27\n      swap3\n      swap2\n      swap1\n      tag_28\n      jump\t// in\n    tag_27:\n      mload(0x40)\n      0x20\n      dup2\n      dup4\n      sub\n      sub\n      dup2\n      mstore\n      swap1\n      0x40\n      mstore\n        /* \"contracts/home_work/question_3.sol\":1833:1859  res = string.concat(res,t) */\n      swap2\n      pop\n        /* \"contracts/home_work/question_3.sol\":1765:1871  while (_num>0 ){... */\n      jump(tag_23)\n    tag_24:\n        /* \"contracts/home_work/question_3.sol\":1888:1891  res */\n      dup2\n        /* \"contracts/home_work/question_3.sol\":1881:1891  return res */\n      swap3\n      pop\n      pop\n      pop\n        /* \"contracts/home_work/question_3.sol\":1634:1899  function intToRoman(uint _num) public pure returns (string memory){... */\n      swap2\n      swap1\n      pop\n      jump\t// out\n        /* \"contracts/home_work/question_3.sol\":1222:1624  function romanToInt1(string memory _s) public pure  returns (int){... */\n    tag_15:\n        /* \"contracts/home_work/question_3.sol\":1283:1286  int */\n      0x00\n        /* \"contracts/home_work/question_3.sol\":1298:1312  bytes memory s */\n      dup1\n        /* \"contracts/home_work/question_3.sol\":1321:1323  _s */\n      dup3\n        /* \"contracts/home_work/question_3.sol\":1298:1324  bytes memory s = bytes(_s) */\n      swap1\n      pop\n        /* \"contracts/home_work/question_3.sol\":1335:1342  int res */\n      0x00\n        /* \"contracts/home_work/question_3.sol\":1361:1367  uint i */\n      dup1\n        /* \"contracts/home_work/question_3.sol\":1357:1557  for(uint i=0;i<s.length-1;i++ ){... */\n    tag_30:\n        /* \"contracts/home_work/question_3.sol\":1381:1382  1 */\n      0x01\n        /* \"contracts/home_work/question_3.sol\":1372:1373  s */\n      dup4\n        /* \"contracts/home_work/question_3.sol\":1372:1380  s.length */\n      mload\n        /* \"contracts/home_work/question_3.sol\":1372:1382  s.length-1 */\n      tag_33\n      swap2\n      swap1\n      tag_34\n      jump\t// in\n    tag_33:\n        /* \"contracts/home_work/question_3.sol\":1370:1371  i */\n      dup2\n        /* \"contracts/home_work/question_3.sol\":1370:1382  i<s.length-1 */\n      lt\n        /* \"contracts/home_work/question_3.sol\":1357:1557  for(uint i=0;i<s.length-1;i++ ){... */\n      iszero\n      tag_31\n      jumpi\n        /* \"contracts/home_work/question_3.sol\":1420:1434  getNum(s[i+1]) */\n      tag_35\n        /* \"contracts/home_work/question_3.sol\":1427:1428  s */\n      dup4\n        /* \"contracts/home_work/question_3.sol\":1431:1432  1 */\n      0x01\n        /* \"contracts/home_work/question_3.sol\":1429:1430  i */\n      dup4\n        /* \"contracts/home_work/question_3.sol\":1429:1432  i+1 */\n      tag_36\n      swap2\n      swap1\n      tag_37\n      jump\t// in\n    tag_36:\n        /* \"contracts/home_work/question_3.sol\":1427:1433  s[i+1] */\n      dup2\n      mload\n      dup2\n      lt\n      tag_38\n      jumpi\n      tag_39\n      tag_40\n      jump\t// in\n    tag_39:\n    tag_38:\n      0x20\n      add\n      add\n      mload\n      0xf8\n      shr\n      0xf8\n      shl\n        /* \"contracts/home_work/question_3.sol\":1420:1426  getNum */\n      tag_41\n        /* \"contracts/home_work/question_3.sol\":1420:1434  getNum(s[i+1]) */\n      jump\t// in\n    tag_35:\n        /* \"contracts/home_work/question_3.sol\":1407:1419  getNum(s[i]) */\n      tag_42\n        /* \"contracts/home_work/question_3.sol\":1414:1415  s */\n      dup5\n        /* \"contracts/home_work/question_3.sol\":1416:1417  i */\n      dup4\n        /* \"contracts/home_work/question_3.sol\":1414:1418  s[i] */\n      dup2\n      mload\n      dup2\n      lt\n      tag_43\n      jumpi\n      tag_44\n      tag_40\n      jump\t// in\n    tag_44:\n    tag_43:\n      0x20\n      add\n      add\n      mload\n      0xf8\n      shr\n      0xf8\n      shl\n        /* \"contracts/home_work/question_3.sol\":1407:1413  getNum */\n      tag_41\n        /* \"contracts/home_work/question_3.sol\":1407:1419  getNum(s[i]) */\n      jump\t// in\n    tag_42:\n        /* \"contracts/home_work/question_3.sol\":1407:1434  getNum(s[i])<getNum(s[i+1]) */\n      slt\n        /* \"contracts/home_work/question_3.sol\":1403:1546  if (getNum(s[i])<getNum(s[i+1])){... */\n      iszero\n      tag_45\n      jumpi\n        /* \"contracts/home_work/question_3.sol\":1460:1472  getNum(s[i]) */\n      tag_46\n        /* \"contracts/home_work/question_3.sol\":1467:1468  s */\n      dup4\n        /* \"contracts/home_work/question_3.sol\":1469:1470  i */\n      dup3\n        /* \"contracts/home_work/question_3.sol\":1467:1471  s[i] */\n      dup2\n      mload\n      dup2\n      lt\n      tag_47\n      jumpi\n      tag_48\n      tag_40\n      jump\t// in\n    tag_48:\n    tag_47:\n      0x20\n      add\n      add\n      mload\n      0xf8\n      shr\n      0xf8\n      shl\n        /* \"contracts/home_work/question_3.sol\":1460:1466  getNum */\n      tag_41\n        /* \"contracts/home_work/question_3.sol\":1460:1472  getNum(s[i]) */\n      jump\t// in\n    tag_46:\n        /* \"contracts/home_work/question_3.sol\":1454:1472  res -=getNum(s[i]) */\n      dup3\n      tag_49\n      swap2\n      swap1\n      tag_50\n      jump\t// in\n    tag_49:\n      swap2\n      pop\n        /* \"contracts/home_work/question_3.sol\":1403:1546  if (getNum(s[i])<getNum(s[i+1])){... */\n      jump(tag_51)\n    tag_45:\n        /* \"contracts/home_work/question_3.sol\":1518:1530  getNum(s[i]) */\n      tag_52\n        /* \"contracts/home_work/question_3.sol\":1525:1526  s */\n      dup4\n        /* \"contracts/home_work/question_3.sol\":1527:1528  i */\n      dup3\n        /* \"contracts/home_work/question_3.sol\":1525:1529  s[i] */\n      dup2\n      mload\n      dup2\n      lt\n      tag_53\n      jumpi\n      tag_54\n      tag_40\n      jump\t// in\n    tag_54:\n    tag_53:\n      0x20\n      add\n      add\n      mload\n      0xf8\n      shr\n      0xf8\n      shl\n        /* \"contracts/home_work/question_3.sol\":1518:1524  getNum */\n      tag_41\n        /* \"contracts/home_work/question_3.sol\":1518:1530  getNum(s[i]) */\n      jump\t// in\n    tag_52:\n        /* \"contracts/home_work/question_3.sol\":1511:1530  res += getNum(s[i]) */\n      dup3\n      tag_55\n      swap2\n      swap1\n      tag_56\n      jump\t// in\n    tag_55:\n      swap2\n      pop\n        /* \"contracts/home_work/question_3.sol\":1403:1546  if (getNum(s[i])<getNum(s[i+1])){... */\n    tag_51:\n        /* \"contracts/home_work/question_3.sol\":1383:1386  i++ */\n      dup1\n      dup1\n      0x01\n      add\n      swap2\n      pop\n      pop\n        /* \"contracts/home_work/question_3.sol\":1357:1557  for(uint i=0;i<s.length-1;i++ ){... */\n      jump(tag_30)\n    tag_31:\n      pop\n        /* \"contracts/home_work/question_3.sol\":1574:1595  getNum(s[s.length-1]) */\n      tag_57\n        /* \"contracts/home_work/question_3.sol\":1581:1582  s */\n      dup3\n        /* \"contracts/home_work/question_3.sol\":1592:1593  1 */\n      0x01\n        /* \"contracts/home_work/question_3.sol\":1583:1584  s */\n      dup5\n        /* \"contracts/home_work/question_3.sol\":1583:1591  s.length */\n      mload\n        /* \"contracts/home_work/question_3.sol\":1583:1593  s.length-1 */\n      tag_58\n      swap2\n      swap1\n      tag_34\n      jump\t// in\n    tag_58:\n        /* \"contracts/home_work/question_3.sol\":1581:1594  s[s.length-1] */\n      dup2\n      mload\n      dup2\n      lt\n      tag_59\n      jumpi\n      tag_60\n      tag_40\n      jump\t// in\n    tag_60:\n    tag_59:\n      0x20\n      add\n      add\n      mload\n      0xf8\n      shr\n      0xf8\n      shl\n        /* \"contracts/home_work/question_3.sol\":1574:1580  getNum */\n      tag_41\n        /* \"contracts/home_work/question_3.sol\":1574:1595  getNum(s[s.length-1]) */\n      jump\t// in\n    tag_57:\n        /* \"contracts/home_work/question_3.sol\":1567:1595  res += getNum(s[s.length-1]) */\n      dup2\n      tag_61\n      swap2\n      swap1\n      tag_56\n      jump\t// in\n    tag_61:\n      swap1\n      pop\n        /* \"contracts/home_work/question_3.sol\":1613:1616  res */\n      dup1\n        /* \"contracts/home_work/question_3.sol\":1606:1616  return res */\n      swap3\n      pop\n      pop\n      pop\n        /* \"contracts/home_work/question_3.sol\":1222:1624  function romanToInt1(string memory _s) public pure  returns (int){... */\n      swap2\n      swap1\n      pop\n      jump\t// out\n        /* \"contracts/home_work/question_3.sol\":349:734  function romanToInt(string memory _s) public view returns (int){... */\n    tag_20:\n        /* \"contracts/home_work/question_3.sol\":408:411  int */\n      0x00\n        /* \"contracts/home_work/question_3.sol\":423:437  bytes memory s */\n      dup1\n        /* \"contracts/home_work/question_3.sol\":446:448  _s */\n      dup3\n        /* \"contracts/home_work/question_3.sol\":423:449  bytes memory s = bytes(_s) */\n      swap1\n      pop\n        /* \"contracts/home_work/question_3.sol\":460:467  int res */\n      0x00\n        /* \"contracts/home_work/question_3.sol\":486:492  uint i */\n      dup1\n        /* \"contracts/home_work/question_3.sol\":482:670  for(uint i=0;i<s.length-1;i++ ){... */\n    tag_63:\n        /* \"contracts/home_work/question_3.sol\":506:507  1 */\n      0x01\n        /* \"contracts/home_work/question_3.sol\":497:498  s */\n      dup4\n        /* \"contracts/home_work/question_3.sol\":497:505  s.length */\n      mload\n        /* \"contracts/home_work/question_3.sol\":497:507  s.length-1 */\n      tag_66\n      swap2\n      swap1\n      tag_34\n      jump\t// in\n    tag_66:\n        /* \"contracts/home_work/question_3.sol\":495:496  i */\n      dup2\n        /* \"contracts/home_work/question_3.sol\":495:507  i<s.length-1 */\n      lt\n        /* \"contracts/home_work/question_3.sol\":482:670  for(uint i=0;i<s.length-1;i++ ){... */\n      iszero\n      tag_64\n      jumpi\n        /* \"contracts/home_work/question_3.sol\":542:545  dic */\n      0x00\n        /* \"contracts/home_work/question_3.sol\":542:553  dic[s[i+1]] */\n      dup1\n        /* \"contracts/home_work/question_3.sol\":546:547  s */\n      dup5\n        /* \"contracts/home_work/question_3.sol\":550:551  1 */\n      0x01\n        /* \"contracts/home_work/question_3.sol\":548:549  i */\n      dup5\n        /* \"contracts/home_work/question_3.sol\":548:551  i+1 */\n      tag_67\n      swap2\n      swap1\n      tag_37\n      jump\t// in\n    tag_67:\n        /* \"contracts/home_work/question_3.sol\":546:552  s[i+1] */\n      dup2\n      mload\n      dup2\n      lt\n      tag_68\n      jumpi\n      tag_69\n      tag_40\n      jump\t// in\n    tag_69:\n    tag_68:\n      0x20\n      add\n      add\n      mload\n      0xf8\n      shr\n      0xf8\n      shl\n        /* \"contracts/home_work/question_3.sol\":542:553  dic[s[i+1]] */\n      not(0xffffffffffffffffffffffffffffffffffffffffffffffffffffffffffffff)\n      and\n      not(0xffffffffffffffffffffffffffffffffffffffffffffffffffffffffffffff)\n      and\n      dup2\n      mstore\n      0x20\n      add\n      swap1\n      dup2\n      mstore\n      0x20\n      add\n      0x00\n      keccak256\n      sload\n        /* \"contracts/home_work/question_3.sol\":532:535  dic */\n      0x00\n        /* \"contracts/home_work/question_3.sol\":532:541  dic[s[i]] */\n      dup1\n        /* \"contracts/home_work/question_3.sol\":536:537  s */\n      dup6\n        /* \"contracts/home_work/question_3.sol\":538:539  i */\n      dup5\n        /* \"contracts/home_work/question_3.sol\":536:540  s[i] */\n      dup2\n      mload\n      dup2\n      lt\n      tag_70\n      jumpi\n      tag_71\n      tag_40\n      jump\t// in\n    tag_71:\n    tag_70:\n      0x20\n      add\n      add\n      mload\n      0xf8\n      shr\n      0xf8\n      shl\n        /* \"contracts/home_work/question_3.sol\":532:541  dic[s[i]] */\n      not(0xffffffffffffffffffffffffffffffffffffffffffffffffffffffffffffff)\n      and\n      not(0xffffffffffffffffffffffffffffffffffffffffffffffffffffffffffffff)\n      and\n      dup2\n      mstore\n      0x20\n      add\n      swap1\n      dup2\n      mstore\n      0x20\n      add\n      0x00\n      keccak256\n      sload\n        /* \"contracts/home_work/question_3.sol\":532:553  dic[s[i]]<dic[s[i+1]] */\n      slt\n        /* \"contracts/home_work/question_3.sol\":528:659  if (dic[s[i]]<dic[s[i+1]]){... */\n      iszero\n      tag_72\n      jumpi\n        /* \"contracts/home_work/question_3.sol\":579:582  dic */\n      0x00\n        /* \"contracts/home_work/question_3.sol\":579:588  dic[s[i]] */\n      dup1\n        /* \"contracts/home_work/question_3.sol\":583:584  s */\n      dup5\n        /* \"contracts/home_work/question_3.sol\":585:586  i */\n      dup4\n        /* \"contracts/home_work/question_3.sol\":583:587  s[i] */\n      dup2\n      mload\n      dup2\n      lt\n      tag_73\n      jumpi\n      tag_74\n      tag_40\n      jump\t// in\n    tag_74:\n    tag_73:\n      0x20\n      add\n      add\n      mload\n      0xf8\n      shr\n      0xf8\n      shl\n        /* \"contracts/home_work/question_3.sol\":579:588  dic[s[i]] */\n      not(0xffffffffffffffffffffffffffffffffffffffffffffffffffffffffffffff)\n      and\n      not(0xffffffffffffffffffffffffffffffffffffffffffffffffffffffffffffff)\n      and\n      dup2\n      mstore\n      0x20\n      add\n      swap1\n      dup2\n      mstore\n      0x20\n      add\n      0x00\n      keccak256\n      sload\n        /* \"contracts/home_work/question_3.sol\":573:588  res -=dic[s[i]] */\n      dup3\n      tag_75\n      swap2\n      swap1\n      tag_50\n      jump\t// in\n    tag_75:\n      swap2\n      pop\n        /* \"contracts/home_work/question_3.sol\":528:659  if (dic[s[i]]<dic[s[i+1]]){... */\n      jump(tag_76)\n    tag_72:\n        /* \"contracts/home_work/question_3.sol\":634:637  dic */\n      0x00\n        /* \"contracts/home_work/question_3.sol\":634:643  dic[s[i]] */\n      dup1\n        /* \"contracts/home_work/question_3.sol\":638:639  s */\n      dup5\n        /* \"contracts/home_work/question_3.sol\":640:641  i */\n      dup4\n        /* \"contracts/home_work/question_3.sol\":638:642  s[i] */\n      dup2\n      mload\n      dup2\n      lt\n      tag_77\n      jumpi\n      tag_78\n      tag_40\n      jump\t// in\n    tag_78:\n    tag_77:\n      0x20\n      add\n      add\n      mload\n      0xf8\n      shr\n      0xf8\n      shl\n        /* \"contracts/home_work/question_3.sol\":634:643  dic[s[i]] */\n      not(0xffffffffffffffffffffffffffffffffffffffffffffffffffffffffffffff)\n      and\n      not(0xffffffffffffffffffffffffffffffffffffffffffffffffffffffffffffff)\n      and\n      dup2\n      mstore\n      0x20\n      add\n      swap1\n      dup2\n      mstore\n      0x20\n      add\n      0x00\n      keccak256\n      sload\n        /* \"contracts/home_work/question_3.sol\":627:643  res += dic[s[i]] */\n      dup3\n      tag_79\n      swap2\n      swap1\n      tag_56\n      jump\t// in\n    tag_79:\n      swap2\n      pop\n        /* \"contracts/home_work/question_3.sol\":528:659  if (dic[s[i]]<dic[s[i+1]]){... */\n    tag_76:\n        /* \"contracts/home_work/question_3.sol\":508:511  i++ */\n      dup1\n      dup1\n      0x01\n      add\n      swap2\n      pop\n      pop\n        /* \"contracts/home_work/question_3.sol\":482:670  for(uint i=0;i<s.length-1;i++ ){... */\n      jump(tag_63)\n    tag_64:\n      pop\n        /* \"contracts/home_work/question_3.sol\":687:690  dic */\n      0x00\n        /* \"contracts/home_work/question_3.sol\":687:705  dic[s[s.length-1]] */\n      dup1\n        /* \"contracts/home_work/question_3.sol\":691:692  s */\n      dup4\n        /* \"contracts/home_work/question_3.sol\":702:703  1 */\n      0x01\n        /* \"contracts/home_work/question_3.sol\":693:694  s */\n      dup6\n        /* \"contracts/home_work/question_3.sol\":693:701  s.length */\n      mload\n        /* \"contracts/home_work/question_3.sol\":693:703  s.length-1 */\n      tag_80\n      swap2\n      swap1\n      tag_34\n      jump\t// in\n    tag_80:\n        /* \"contracts/home_work/question_3.sol\":691:704  s[s.length-1] */\n      dup2\n      mload\n      dup2\n      lt\n      tag_81\n      jumpi\n      tag_82\n      tag_40\n      jump\t// in\n    tag_82:\n    tag_81:\n      0x20\n      add\n      add\n      mload\n      0xf8\n      shr\n      0xf8\n      shl\n        /* \"contracts/home_work/question_3.sol\":687:705  dic[s[s.length-1]] */\n      not(0xffffffffffffffffffffffffffffffffffffffffffffffffffffffffffffff)\n      and\n      not(0xffffffffffffffffffffffffffffffffffffffffffffffffffffffffffffff)\n      and\n      dup2\n      mstore\n      0x20\n      add\n      swap1\n      dup2\n      mstore\n      0x20\n      add\n      0x00\n      keccak256\n      sload\n        /* \"contracts/home_work/question_3.sol\":680:705  res += dic[s[s.length-1]] */\n      dup2\n      tag_83\n      swap2\n      swap1\n      tag_56\n      jump\t// in\n    tag_83:\n      swap1\n      pop\n        /* \"contracts/home_work/question_3.sol\":723:726  res */\n      dup1\n        /* \"contracts/home_work/question_3.sol\":716:726  return res */\n      swap3\n      pop\n      pop\n      pop\n        /* \"contracts/home_work/question_3.sol\":349:734  function romanToInt(string memory _s) public view returns (int){... */\n      swap2\n      swap1\n      pop\n      jump\t// out\n        /* \"contracts/home_work/question_3.sol\":1907:3070  function getRom(uint num) internal pure returns (string memory,uint){... */\n    tag_26:\n        /* \"contracts/home_work/question_3.sol\":1956:1969  string memory */\n      0x60\n        /* \"contracts/home_work/question_3.sol\":1970:1974  uint */\n      0x00\n        /* \"contracts/home_work/question_3.sol\":1994:1998  1000 */\n      0x03e8\n        /* \"contracts/home_work/question_3.sol\":1990:1993  num */\n      dup4\n        /* \"contracts/home_work/question_3.sol\":1990:1998  num>1000 */\n      gt\n        /* \"contracts/home_work/question_3.sol\":1986:3063  if (num>1000){... */\n      iszero\n      tag_85\n      jumpi\n        /* \"contracts/home_work/question_3.sol\":2021:2025  1000 */\n      0x03e8\n        /* \"contracts/home_work/question_3.sol\":2014:2025  num -= 1000 */\n      dup4\n      tag_86\n      swap2\n      swap1\n      tag_34\n      jump\t// in\n    tag_86:\n      swap3\n      pop\n        /* \"contracts/home_work/question_3.sol\":2053:2056  num */\n      dup3\n        /* \"contracts/home_work/question_3.sol\":2040:2057  return (\"M\" ,num) */\n      mload(0x40)\n      dup1\n      0x40\n      add\n      0x40\n      mstore\n      dup1\n      0x01\n      dup2\n      mstore\n      0x20\n      add\n      0x4d00000000000000000000000000000000000000000000000000000000000000\n      dup2\n      mstore\n      pop\n      swap1\n      swap2\n      pop\n      swap2\n      pop\n      jump(tag_84)\n        /* \"contracts/home_work/question_3.sol\":1986:3063  if (num>1000){... */\n    tag_85:\n        /* \"contracts/home_work/question_3.sol\":2092:2095  900 */\n      0x0384\n        /* \"contracts/home_work/question_3.sol\":2087:2090  num */\n      dup4\n        /* \"contracts/home_work/question_3.sol\":2087:2095  num>=900 */\n      lt\n        /* \"contracts/home_work/question_3.sol\":2084:3063  if(num>=900)... */\n      tag_88\n      jumpi\n        /* \"contracts/home_work/question_3.sol\":2120:2123  900 */\n      0x0384\n        /* \"contracts/home_work/question_3.sol\":2113:2123  num -= 900 */\n      dup4\n      tag_89\n      swap2\n      swap1\n      tag_34\n      jump\t// in\n    tag_89:\n      swap3\n      pop\n        /* \"contracts/home_work/question_3.sol\":2147:2150  num */\n      dup3\n        /* \"contracts/home_work/question_3.sol\":2134:2151  return (\"CM\",num) */\n      mload(0x40)\n      dup1\n      0x40\n      add\n      0x40\n      mstore\n      dup1\n      0x02\n      dup2\n      mstore\n      0x20\n      add\n      0x434d000000000000000000000000000000000000000000000000000000000000\n      dup2\n      mstore\n      pop\n      swap1\n      swap2\n      pop\n      swap2\n      pop\n      jump(tag_84)\n        /* \"contracts/home_work/question_3.sol\":2084:3063  if(num>=900)... */\n    tag_88:\n        /* \"contracts/home_work/question_3.sol\":2178:2181  500 */\n      0x01f4\n        /* \"contracts/home_work/question_3.sol\":2173:2176  num */\n      dup4\n        /* \"contracts/home_work/question_3.sol\":2173:2181  num>=500 */\n      lt\n        /* \"contracts/home_work/question_3.sol\":2170:3063  if(num>=500)... */\n      tag_91\n      jumpi\n        /* \"contracts/home_work/question_3.sol\":2206:2209  500 */\n      0x01f4\n        /* \"contracts/home_work/question_3.sol\":2199:2209  num -= 500 */\n      dup4\n      tag_92\n      swap2\n      swap1\n      tag_34\n      jump\t// in\n    tag_92:\n      swap3\n      pop\n        /* \"contracts/home_work/question_3.sol\":2232:2235  num */\n      dup3\n        /* \"contracts/home_work/question_3.sol\":2220:2236  return (\"D\",num) */\n      mload(0x40)\n      dup1\n      0x40\n      add\n      0x40\n      mstore\n      dup1\n      0x01\n      dup2\n      mstore\n      0x20\n      add\n      0x4400000000000000000000000000000000000000000000000000000000000000\n      dup2\n      mstore\n      pop\n      swap1\n      swap2\n      pop\n      swap2\n      pop\n      jump(tag_84)\n        /* \"contracts/home_work/question_3.sol\":2170:3063  if(num>=500)... */\n    tag_91:\n        /* \"contracts/home_work/question_3.sol\":2263:2266  400 */\n      0x0190\n        /* \"contracts/home_work/question_3.sol\":2258:2261  num */\n      dup4\n        /* \"contracts/home_work/question_3.sol\":2258:2266  num>=400 */\n      lt\n        /* \"contracts/home_work/question_3.sol\":2255:3063  if(num>=400)... */\n      tag_94\n      jumpi\n        /* \"contracts/home_work/question_3.sol\":2291:2294  400 */\n      0x0190\n        /* \"contracts/home_work/question_3.sol\":2284:2294  num -= 400 */\n      dup4\n      tag_95\n      swap2\n      swap1\n      tag_34\n      jump\t// in\n    tag_95:\n      swap3\n      pop\n        /* \"contracts/home_work/question_3.sol\":2318:2321  num */\n      dup3\n        /* \"contracts/home_work/question_3.sol\":2305:2322  return (\"CD\",num) */\n      mload(0x40)\n      dup1\n      0x40\n      add\n      0x40\n      mstore\n      dup1\n      0x02\n      dup2\n      mstore\n      0x20\n      add\n      0x4344000000000000000000000000000000000000000000000000000000000000\n      dup2\n      mstore\n      pop\n      swap1\n      swap2\n      pop\n      swap2\n      pop\n      jump(tag_84)\n        /* \"contracts/home_work/question_3.sol\":2255:3063  if(num>=400)... */\n    tag_94:\n        /* \"contracts/home_work/question_3.sol\":2350:2353  100 */\n      0x64\n        /* \"contracts/home_work/question_3.sol\":2344:2347  num */\n      dup4\n        /* \"contracts/home_work/question_3.sol\":2344:2353  num >=100 */\n      lt\n        /* \"contracts/home_work/question_3.sol\":2341:3063  if(num >=100)... */\n      tag_97\n      jumpi\n        /* \"contracts/home_work/question_3.sol\":2378:2381  100 */\n      0x64\n        /* \"contracts/home_work/question_3.sol\":2371:2381  num -= 100 */\n      dup4\n      tag_98\n      swap2\n      swap1\n      tag_34\n      jump\t// in\n    tag_98:\n      swap3\n      pop\n        /* \"contracts/home_work/question_3.sol\":2404:2407  num */\n      dup3\n        /* \"contracts/home_work/question_3.sol\":2392:2408  return (\"C\",num) */\n      mload(0x40)\n      dup1\n      0x40\n      add\n      0x40\n      mstore\n      dup1\n      0x01\n      dup2\n      mstore\n      0x20\n      add\n      0x4300000000000000000000000000000000000000000000000000000000000000\n      dup2\n      mstore\n      pop\n      swap1\n      swap2\n      pop\n      swap2\n      pop\n      jump(tag_84)\n        /* \"contracts/home_work/question_3.sol\":2341:3063  if(num >=100)... */\n    tag_97:\n        /* \"contracts/home_work/question_3.sol\":2435:2437  90 */\n      0x5a\n        /* \"contracts/home_work/question_3.sol\":2430:2433  num */\n      dup4\n        /* \"contracts/home_work/question_3.sol\":2430:2437  num>=90 */\n      lt\n        /* \"contracts/home_work/question_3.sol\":2427:3063  if(num>=90)... */\n      tag_100\n      jumpi\n        /* \"contracts/home_work/question_3.sol\":2462:2464  90 */\n      0x5a\n        /* \"contracts/home_work/question_3.sol\":2455:2464  num -= 90 */\n      dup4\n      tag_101\n      swap2\n      swap1\n      tag_34\n      jump\t// in\n    tag_101:\n      swap3\n      pop\n        /* \"contracts/home_work/question_3.sol\":2488:2491  num */\n      dup3\n        /* \"contracts/home_work/question_3.sol\":2475:2492  return (\"XC\",num) */\n      mload(0x40)\n      dup1\n      0x40\n      add\n      0x40\n      mstore\n      dup1\n      0x02\n      dup2\n      mstore\n      0x20\n      add\n      0x5843000000000000000000000000000000000000000000000000000000000000\n      dup2\n      mstore\n      pop\n      swap1\n      swap2\n      pop\n      swap2\n      pop\n      jump(tag_84)\n        /* \"contracts/home_work/question_3.sol\":2427:3063  if(num>=90)... */\n    tag_100:\n        /* \"contracts/home_work/question_3.sol\":2519:2521  50 */\n      0x32\n        /* \"contracts/home_work/question_3.sol\":2514:2517  num */\n      dup4\n        /* \"contracts/home_work/question_3.sol\":2514:2521  num>=50 */\n      lt\n        /* \"contracts/home_work/question_3.sol\":2511:3063  if(num>=50)... */\n      tag_103\n      jumpi\n        /* \"contracts/home_work/question_3.sol\":2546:2548  50 */\n      0x32\n        /* \"contracts/home_work/question_3.sol\":2539:2548  num -= 50 */\n      dup4\n      tag_104\n      swap2\n      swap1\n      tag_34\n      jump\t// in\n    tag_104:\n      swap3\n      pop\n        /* \"contracts/home_work/question_3.sol\":2571:2574  num */\n      dup3\n        /* \"contracts/home_work/question_3.sol\":2559:2575  return (\"L\",num) */\n      mload(0x40)\n      dup1\n      0x40\n      add\n      0x40\n      mstore\n      dup1\n      0x01\n      dup2\n      mstore\n      0x20\n      add\n      0x4c00000000000000000000000000000000000000000000000000000000000000\n      dup2\n      mstore\n      pop\n      swap1\n      swap2\n      pop\n      swap2\n      pop\n      jump(tag_84)\n        /* \"contracts/home_work/question_3.sol\":2511:3063  if(num>=50)... */\n    tag_103:\n        /* \"contracts/home_work/question_3.sol\":2603:2605  40 */\n      0x28\n        /* \"contracts/home_work/question_3.sol\":2597:2600  num */\n      dup4\n        /* \"contracts/home_work/question_3.sol\":2597:2605  num >=40 */\n      lt\n        /* \"contracts/home_work/question_3.sol\":2594:3063  if(num >=40)... */\n      tag_106\n      jumpi\n        /* \"contracts/home_work/question_3.sol\":2629:2631  40 */\n      0x28\n        /* \"contracts/home_work/question_3.sol\":2623:2631  num-= 40 */\n      dup4\n      tag_107\n      swap2\n      swap1\n      tag_34\n      jump\t// in\n    tag_107:\n      swap3\n      pop\n        /* \"contracts/home_work/question_3.sol\":2655:2658  num */\n      dup3\n        /* \"contracts/home_work/question_3.sol\":2642:2659  return (\"XL\",num) */\n      mload(0x40)\n      dup1\n      0x40\n      add\n      0x40\n      mstore\n      dup1\n      0x02\n      dup2\n      mstore\n      0x20\n      add\n      0x584c000000000000000000000000000000000000000000000000000000000000\n      dup2\n      mstore\n      pop\n      swap1\n      swap2\n      pop\n      swap2\n      pop\n      jump(tag_84)\n        /* \"contracts/home_work/question_3.sol\":2594:3063  if(num >=40)... */\n    tag_106:\n        /* \"contracts/home_work/question_3.sol\":2686:2688  10 */\n      0x0a\n        /* \"contracts/home_work/question_3.sol\":2681:2684  num */\n      dup4\n        /* \"contracts/home_work/question_3.sol\":2681:2688  num>=10 */\n      lt\n        /* \"contracts/home_work/question_3.sol\":2678:3063  if(num>=10)... */\n      tag_109\n      jumpi\n        /* \"contracts/home_work/question_3.sol\":2713:2715  10 */\n      0x0a\n        /* \"contracts/home_work/question_3.sol\":2706:2715  num -= 10 */\n      dup4\n      tag_110\n      swap2\n      swap1\n      tag_34\n      jump\t// in\n    tag_110:\n      swap3\n      pop\n        /* \"contracts/home_work/question_3.sol\":2738:2741  num */\n      dup3\n        /* \"contracts/home_work/question_3.sol\":2726:2742  return (\"X\",num) */\n      mload(0x40)\n      dup1\n      0x40\n      add\n      0x40\n      mstore\n      dup1\n      0x01\n      dup2\n      mstore\n      0x20\n      add\n      0x5800000000000000000000000000000000000000000000000000000000000000\n      dup2\n      mstore\n      pop\n      swap1\n      swap2\n      pop\n      swap2\n      pop\n      jump(tag_84)\n        /* \"contracts/home_work/question_3.sol\":2678:3063  if(num>=10)... */\n    tag_109:\n        /* \"contracts/home_work/question_3.sol\":2769:2770  9 */\n      0x09\n        /* \"contracts/home_work/question_3.sol\":2764:2767  num */\n      dup4\n        /* \"contracts/home_work/question_3.sol\":2764:2770  num>=9 */\n      lt\n        /* \"contracts/home_work/question_3.sol\":2761:3063  if(num>=9)... */\n      tag_112\n      jumpi\n        /* \"contracts/home_work/question_3.sol\":2795:2796  9 */\n      0x09\n        /* \"contracts/home_work/question_3.sol\":2788:2796  num -= 9 */\n      dup4\n      tag_113\n      swap2\n      swap1\n      tag_34\n      jump\t// in\n    tag_113:\n      swap3\n      pop\n        /* \"contracts/home_work/question_3.sol\":2820:2823  num */\n      dup3\n        /* \"contracts/home_work/question_3.sol\":2807:2824  return (\"IX\",num) */\n      mload(0x40)\n      dup1\n      0x40\n      add\n      0x40\n      mstore\n      dup1\n      0x02\n      dup2\n      mstore\n      0x20\n      add\n      0x4958000000000000000000000000000000000000000000000000000000000000\n      dup2\n      mstore\n      pop\n      swap1\n      swap2\n      pop\n      swap2\n      pop\n      jump(tag_84)\n        /* \"contracts/home_work/question_3.sol\":2761:3063  if(num>=9)... */\n    tag_112:\n        /* \"contracts/home_work/question_3.sol\":2851:2852  5 */\n      0x05\n        /* \"contracts/home_work/question_3.sol\":2846:2849  num */\n      dup4\n        /* \"contracts/home_work/question_3.sol\":2846:2852  num>=5 */\n      lt\n        /* \"contracts/home_work/question_3.sol\":2843:3063  if(num>=5)... */\n      tag_115\n      jumpi\n        /* \"contracts/home_work/question_3.sol\":2877:2878  5 */\n      0x05\n        /* \"contracts/home_work/question_3.sol\":2870:2878  num -= 5 */\n      dup4\n      tag_116\n      swap2\n      swap1\n      tag_34\n      jump\t// in\n    tag_116:\n      swap3\n      pop\n        /* \"contracts/home_work/question_3.sol\":2901:2904  num */\n      dup3\n        /* \"contracts/home_work/question_3.sol\":2889:2905  return (\"V\",num) */\n      mload(0x40)\n      dup1\n      0x40\n      add\n      0x40\n      mstore\n      dup1\n      0x01\n      dup2\n      mstore\n      0x20\n      add\n      0x5600000000000000000000000000000000000000000000000000000000000000\n      dup2\n      mstore\n      pop\n      swap1\n      swap2\n      pop\n      swap2\n      pop\n      jump(tag_84)\n        /* \"contracts/home_work/question_3.sol\":2843:3063  if(num>=5)... */\n    tag_115:\n        /* \"contracts/home_work/question_3.sol\":2932:2933  4 */\n      0x04\n        /* \"contracts/home_work/question_3.sol\":2927:2930  num */\n      dup4\n        /* \"contracts/home_work/question_3.sol\":2927:2933  num>=4 */\n      lt\n        /* \"contracts/home_work/question_3.sol\":2924:3063  if(num>=4)... */\n      tag_118\n      jumpi\n        /* \"contracts/home_work/question_3.sol\":2958:2959  4 */\n      0x04\n        /* \"contracts/home_work/question_3.sol\":2951:2959  num -= 4 */\n      dup4\n      tag_119\n      swap2\n      swap1\n      tag_34\n      jump\t// in\n    tag_119:\n      swap3\n      pop\n        /* \"contracts/home_work/question_3.sol\":2983:2986  num */\n      dup3\n        /* \"contracts/home_work/question_3.sol\":2970:2987  return (\"IV\",num) */\n      mload(0x40)\n      dup1\n      0x40\n      add\n      0x40\n      mstore\n      dup1\n      0x02\n      dup2\n      mstore\n      0x20\n      add\n      0x4956000000000000000000000000000000000000000000000000000000000000\n      dup2\n      mstore\n      pop\n      swap1\n      swap2\n      pop\n      swap2\n      pop\n      jump(tag_84)\n        /* \"contracts/home_work/question_3.sol\":2924:3063  if(num>=4)... */\n    tag_118:\n        /* \"contracts/home_work/question_3.sol\":3027:3028  1 */\n      0x01\n        /* \"contracts/home_work/question_3.sol\":3022:3028  num-=1 */\n      dup4\n      tag_121\n      swap2\n      swap1\n      tag_34\n      jump\t// in\n    tag_121:\n      swap3\n      pop\n        /* \"contracts/home_work/question_3.sol\":3051:3054  num */\n      dup3\n        /* \"contracts/home_work/question_3.sol\":3039:3055  return (\"I\",num) */\n      mload(0x40)\n      dup1\n      0x40\n      add\n      0x40\n      mstore\n      dup1\n      0x01\n      dup2\n      mstore\n      0x20\n      add\n      0x4900000000000000000000000000000000000000000000000000000000000000\n      dup2\n      mstore\n      pop\n      swap1\n      swap2\n      pop\n      swap2\n      pop\n        /* \"contracts/home_work/question_3.sol\":1907:3070  function getRom(uint num) internal pure returns (string memory,uint){... */\n    tag_84:\n      swap2\n      pop\n      swap2\n      jump\t// out\n        /* \"contracts/home_work/question_3.sol\":742:1190  function getNum(bytes1 c) internal pure returns (int){... */\n    tag_41:\n        /* \"contracts/home_work/question_3.sol\":791:794  int */\n      0x00\n        /* \"contracts/home_work/question_3.sol\":810:818  c == \"I\" */\n      0x4900000000000000000000000000000000000000000000000000000000000000\n        /* \"contracts/home_work/question_3.sol\":810:811  c */\n      dup3\n        /* \"contracts/home_work/question_3.sol\":810:818  c == \"I\" */\n      not(0xffffffffffffffffffffffffffffffffffffffffffffffffffffffffffffff)\n      and\n      sub\n        /* \"contracts/home_work/question_3.sol\":806:854  if (c == \"I\"){... */\n      tag_123\n      jumpi\n        /* \"contracts/home_work/question_3.sol\":841:842  1 */\n      0x01\n        /* \"contracts/home_work/question_3.sol\":834:842  return 1 */\n      swap1\n      pop\n      jump(tag_122)\n        /* \"contracts/home_work/question_3.sol\":806:854  if (c == \"I\"){... */\n    tag_123:\n        /* \"contracts/home_work/question_3.sol\":868:876  c == \"V\" */\n      0x5600000000000000000000000000000000000000000000000000000000000000\n        /* \"contracts/home_work/question_3.sol\":868:869  c */\n      dup3\n        /* \"contracts/home_work/question_3.sol\":868:876  c == \"V\" */\n      not(0xffffffffffffffffffffffffffffffffffffffffffffffffffffffffffffff)\n      and\n      sub\n        /* \"contracts/home_work/question_3.sol\":864:912  if (c == \"V\"){... */\n      tag_124\n      jumpi\n        /* \"contracts/home_work/question_3.sol\":899:900  5 */\n      0x05\n        /* \"contracts/home_work/question_3.sol\":892:900  return 5 */\n      swap1\n      pop\n      jump(tag_122)\n        /* \"contracts/home_work/question_3.sol\":864:912  if (c == \"V\"){... */\n    tag_124:\n        /* \"contracts/home_work/question_3.sol\":926:934  c == \"X\" */\n      0x5800000000000000000000000000000000000000000000000000000000000000\n        /* \"contracts/home_work/question_3.sol\":926:927  c */\n      dup3\n        /* \"contracts/home_work/question_3.sol\":926:934  c == \"X\" */\n      not(0xffffffffffffffffffffffffffffffffffffffffffffffffffffffffffffff)\n      and\n      sub\n        /* \"contracts/home_work/question_3.sol\":922:971  if (c == \"X\"){... */\n      tag_125\n      jumpi\n        /* \"contracts/home_work/question_3.sol\":957:959  10 */\n      0x0a\n        /* \"contracts/home_work/question_3.sol\":950:959  return 10 */\n      swap1\n      pop\n      jump(tag_122)\n        /* \"contracts/home_work/question_3.sol\":922:971  if (c == \"X\"){... */\n    tag_125:\n        /* \"contracts/home_work/question_3.sol\":986:994  c == \"L\" */\n      0x4c00000000000000000000000000000000000000000000000000000000000000\n        /* \"contracts/home_work/question_3.sol\":986:987  c */\n      dup3\n        /* \"contracts/home_work/question_3.sol\":986:994  c == \"L\" */\n      not(0xffffffffffffffffffffffffffffffffffffffffffffffffffffffffffffff)\n      and\n      sub\n        /* \"contracts/home_work/question_3.sol\":982:1031  if (c == \"L\"){... */\n      tag_126\n      jumpi\n        /* \"contracts/home_work/question_3.sol\":1017:1019  50 */\n      0x32\n        /* \"contracts/home_work/question_3.sol\":1010:1019  return 50 */\n      swap1\n      pop\n      jump(tag_122)\n        /* \"contracts/home_work/question_3.sol\":982:1031  if (c == \"L\"){... */\n    tag_126:\n        /* \"contracts/home_work/question_3.sol\":1045:1053  c == \"C\" */\n      0x4300000000000000000000000000000000000000000000000000000000000000\n        /* \"contracts/home_work/question_3.sol\":1045:1046  c */\n      dup3\n        /* \"contracts/home_work/question_3.sol\":1045:1053  c == \"C\" */\n      not(0xffffffffffffffffffffffffffffffffffffffffffffffffffffffffffffff)\n      and\n      sub\n        /* \"contracts/home_work/question_3.sol\":1041:1091  if (c == \"C\"){... */\n      tag_127\n      jumpi\n        /* \"contracts/home_work/question_3.sol\":1076:1079  100 */\n      0x64\n        /* \"contracts/home_work/question_3.sol\":1069:1079  return 100 */\n      swap1\n      pop\n      jump(tag_122)\n        /* \"contracts/home_work/question_3.sol\":1041:1091  if (c == \"C\"){... */\n    tag_127:\n        /* \"contracts/home_work/question_3.sol\":1105:1113  c == \"D\" */\n      0x4400000000000000000000000000000000000000000000000000000000000000\n        /* \"contracts/home_work/question_3.sol\":1105:1106  c */\n      dup3\n        /* \"contracts/home_work/question_3.sol\":1105:1113  c == \"D\" */\n      not(0xffffffffffffffffffffffffffffffffffffffffffffffffffffffffffffff)\n      and\n      sub\n        /* \"contracts/home_work/question_3.sol\":1101:1151  if (c == \"D\"){... */\n      tag_128\n      jumpi\n        /* \"contracts/home_work/question_3.sol\":1136:1139  500 */\n      0x01f4\n        /* \"contracts/home_work/question_3.sol\":1129:1139  return 500 */\n      swap1\n      pop\n      jump(tag_122)\n        /* \"contracts/home_work/question_3.sol\":1101:1151  if (c == \"D\"){... */\n    tag_128:\n        /* \"contracts/home_work/question_3.sol\":1168:1172  1000 */\n      0x03e8\n        /* \"contracts/home_work/question_3.sol\":1161:1172  return 1000 */\n      swap1\n      pop\n        /* \"contracts/home_work/question_3.sol\":742:1190  function getNum(bytes1 c) internal pure returns (int){... */\n    tag_122:\n      swap2\n      swap1\n      pop\n      jump\t// out\n        /* \"#utility.yul\":7:82   */\n    tag_129:\n        /* \"#utility.yul\":40:46   */\n      0x00\n        /* \"#utility.yul\":73:75   */\n      0x40\n        /* \"#utility.yul\":67:76   */\n      mload\n        /* \"#utility.yul\":57:76   */\n      swap1\n      pop\n        /* \"#utility.yul\":7:82   */\n      swap1\n      jump\t// out\n        /* \"#utility.yul\":88:205   */\n    tag_130:\n        /* \"#utility.yul\":197:198   */\n      0x00\n        /* \"#utility.yul\":194:195   */\n      dup1\n        /* \"#utility.yul\":187:199   */\n      revert\n        /* \"#utility.yul\":211:328   */\n    tag_131:\n        /* \"#utility.yul\":320:321   */\n      0x00\n        /* \"#utility.yul\":317:318   */\n      dup1\n        /* \"#utility.yul\":310:322   */\n      revert\n        /* \"#utility.yul\":334:411   */\n    tag_132:\n        /* \"#utility.yul\":371:378   */\n      0x00\n        /* \"#utility.yul\":400:405   */\n      dup2\n        /* \"#utility.yul\":389:405   */\n      swap1\n      pop\n        /* \"#utility.yul\":334:411   */\n      swap2\n      swap1\n      pop\n      jump\t// out\n        /* \"#utility.yul\":417:539   */\n    tag_133:\n        /* \"#utility.yul\":490:514   */\n      tag_160\n        /* \"#utility.yul\":508:513   */\n      dup2\n        /* \"#utility.yul\":490:514   */\n      tag_132\n      jump\t// in\n    tag_160:\n        /* \"#utility.yul\":483:488   */\n      dup2\n        /* \"#utility.yul\":480:515   */\n      eq\n        /* \"#utility.yul\":470:533   */\n      tag_161\n      jumpi\n        /* \"#utility.yul\":529:530   */\n      0x00\n        /* \"#utility.yul\":526:527   */\n      dup1\n        /* \"#utility.yul\":519:531   */\n      revert\n        /* \"#utility.yul\":470:533   */\n    tag_161:\n        /* \"#utility.yul\":417:539   */\n      pop\n      jump\t// out\n        /* \"#utility.yul\":545:684   */\n    tag_134:\n        /* \"#utility.yul\":591:596   */\n      0x00\n        /* \"#utility.yul\":629:635   */\n      dup2\n        /* \"#utility.yul\":616:636   */\n      calldataload\n        /* \"#utility.yul\":607:636   */\n      swap1\n      pop\n        /* \"#utility.yul\":645:678   */\n      tag_163\n        /* \"#utility.yul\":672:677   */\n      dup2\n        /* \"#utility.yul\":645:678   */\n      tag_133\n      jump\t// in\n    tag_163:\n        /* \"#utility.yul\":545:684   */\n      swap3\n      swap2\n      pop\n      pop\n      jump\t// out\n        /* \"#utility.yul\":690:1019   */\n    tag_8:\n        /* \"#utility.yul\":749:755   */\n      0x00\n        /* \"#utility.yul\":798:800   */\n      0x20\n        /* \"#utility.yul\":786:795   */\n      dup3\n        /* \"#utility.yul\":777:784   */\n      dup5\n        /* \"#utility.yul\":773:796   */\n      sub\n        /* \"#utility.yul\":769:801   */\n      slt\n        /* \"#utility.yul\":766:885   */\n      iszero\n      tag_165\n      jumpi\n        /* \"#utility.yul\":804:883   */\n      tag_166\n      tag_130\n      jump\t// in\n    tag_166:\n        /* \"#utility.yul\":766:885   */\n    tag_165:\n        /* \"#utility.yul\":924:925   */\n      0x00\n        /* \"#utility.yul\":949:1002   */\n      tag_167\n        /* \"#utility.yul\":994:1001   */\n      dup5\n        /* \"#utility.yul\":985:991   */\n      dup3\n        /* \"#utility.yul\":974:983   */\n      dup6\n        /* \"#utility.yul\":970:992   */\n      add\n        /* \"#utility.yul\":949:1002   */\n      tag_134\n      jump\t// in\n    tag_167:\n        /* \"#utility.yul\":939:1002   */\n      swap2\n      pop\n        /* \"#utility.yul\":895:1012   */\n      pop\n        /* \"#utility.yul\":690:1019   */\n      swap3\n      swap2\n      pop\n      pop\n      jump\t// out\n        /* \"#utility.yul\":1025:1124   */\n    tag_135:\n        /* \"#utility.yul\":1077:1083   */\n      0x00\n        /* \"#utility.yul\":1111:1116   */\n      dup2\n        /* \"#utility.yul\":1105:1117   */\n      mload\n        /* \"#utility.yul\":1095:1117   */\n      swap1\n      pop\n        /* \"#utility.yul\":1025:1124   */\n      swap2\n      swap1\n      pop\n      jump\t// out\n        /* \"#utility.yul\":1130:1299   */\n    tag_136:\n        /* \"#utility.yul\":1214:1225   */\n      0x00\n        /* \"#utility.yul\":1248:1254   */\n      dup3\n        /* \"#utility.yul\":1243:1246   */\n      dup3\n        /* \"#utility.yul\":1236:1255   */\n      mstore\n        /* \"#utility.yul\":1288:1292   */\n      0x20\n        /* \"#utility.yul\":1283:1286   */\n      dup3\n        /* \"#utility.yul\":1279:1293   */\n      add\n        /* \"#utility.yul\":1264:1293   */\n      swap1\n      pop\n        /* \"#utility.yul\":1130:1299   */\n      swap3\n      swap2\n      pop\n      pop\n      jump\t// out\n        /* \"#utility.yul\":1305:1553   */\n    tag_137:\n        /* \"#utility.yul\":1387:1388   */\n      0x00\n        /* \"#utility.yul\":1397:1510   */\n    tag_171:\n        /* \"#utility.yul\":1411:1417   */\n      dup4\n        /* \"#utility.yul\":1408:1409   */\n      dup2\n        /* \"#utility.yul\":1405:1418   */\n      lt\n        /* \"#utility.yul\":1397:1510   */\n      iszero\n      tag_173\n      jumpi\n        /* \"#utility.yul\":1496:1497   */\n      dup1\n        /* \"#utility.yul\":1491:1494   */\n      dup3\n        /* \"#utility.yul\":1487:1498   */\n      add\n        /* \"#utility.yul\":1481:1499   */\n      mload\n        /* \"#utility.yul\":1477:1478   */\n      dup2\n        /* \"#utility.yul\":1472:1475   */\n      dup5\n        /* \"#utility.yul\":1468:1479   */\n      add\n        /* \"#utility.yul\":1461:1500   */\n      mstore\n        /* \"#utility.yul\":1433:1435   */\n      0x20\n        /* \"#utility.yul\":1430:1431   */\n      dup2\n        /* \"#utility.yul\":1426:1436   */\n      add\n        /* \"#utility.yul\":1421:1436   */\n      swap1\n      pop\n        /* \"#utility.yul\":1397:1510   */\n      jump(tag_171)\n    tag_173:\n        /* \"#utility.yul\":1544:1545   */\n      0x00\n        /* \"#utility.yul\":1535:1541   */\n      dup5\n        /* \"#utility.yul\":1530:1533   */\n      dup5\n        /* \"#utility.yul\":1526:1542   */\n      add\n        /* \"#utility.yul\":1519:1546   */\n      mstore\n        /* \"#utility.yul\":1367:1553   */\n      pop\n        /* \"#utility.yul\":1305:1553   */\n      pop\n      pop\n      pop\n      jump\t// out\n        /* \"#utility.yul\":1559:1661   */\n    tag_138:\n        /* \"#utility.yul\":1600:1606   */\n      0x00\n        /* \"#utility.yul\":1651:1653   */\n      0x1f\n        /* \"#utility.yul\":1647:1654   */\n      not\n        /* \"#utility.yul\":1642:1644   */\n      0x1f\n        /* \"#utility.yul\":1635:1640   */\n      dup4\n        /* \"#utility.yul\":1631:1645   */\n      add\n        /* \"#utility.yul\":1627:1655   */\n      and\n        /* \"#utility.yul\":1617:1655   */\n      swap1\n      pop\n        /* \"#utility.yul\":1559:1661   */\n      swap2\n      swap1\n      pop\n      jump\t// out\n        /* \"#utility.yul\":1667:2044   */\n    tag_139:\n        /* \"#utility.yul\":1755:1758   */\n      0x00\n        /* \"#utility.yul\":1783:1822   */\n      tag_176\n        /* \"#utility.yul\":1816:1821   */\n      dup3\n        /* \"#utility.yul\":1783:1822   */\n      tag_135\n      jump\t// in\n    tag_176:\n        /* \"#utility.yul\":1838:1909   */\n      tag_177\n        /* \"#utility.yul\":1902:1908   */\n      dup2\n        /* \"#utility.yul\":1897:1900   */\n      dup6\n        /* \"#utility.yul\":1838:1909   */\n      tag_136\n      jump\t// in\n    tag_177:\n        /* \"#utility.yul\":1831:1909   */\n      swap4\n      pop\n        /* \"#utility.yul\":1918:1983   */\n      tag_178\n        /* \"#utility.yul\":1976:1982   */\n      dup2\n        /* \"#utility.yul\":1971:1974   */\n      dup6\n        /* \"#utility.yul\":1964:1968   */\n      0x20\n        /* \"#utility.yul\":1957:1962   */\n      dup7\n        /* \"#utility.yul\":1953:1969   */\n      add\n        /* \"#utility.yul\":1918:1983   */\n      tag_137\n      jump\t// in\n    tag_178:\n        /* \"#utility.yul\":2008:2037   */\n      tag_179\n        /* \"#utility.yul\":2030:2036   */\n      dup2\n        /* \"#utility.yul\":2008:2037   */\n      tag_138\n      jump\t// in\n    tag_179:\n        /* \"#utility.yul\":2003:2006   */\n      dup5\n        /* \"#utility.yul\":1999:2038   */\n      add\n        /* \"#utility.yul\":1992:2038   */\n      swap2\n      pop\n        /* \"#utility.yul\":1759:2044   */\n      pop\n        /* \"#utility.yul\":1667:2044   */\n      swap3\n      swap2\n      pop\n      pop\n      jump\t// out\n        /* \"#utility.yul\":2050:2363   */\n    tag_11:\n        /* \"#utility.yul\":2163:2167   */\n      0x00\n        /* \"#utility.yul\":2201:2203   */\n      0x20\n        /* \"#utility.yul\":2190:2199   */\n      dup3\n        /* \"#utility.yul\":2186:2204   */\n      add\n        /* \"#utility.yul\":2178:2204   */\n      swap1\n      pop\n        /* \"#utility.yul\":2250:2259   */\n      dup2\n        /* \"#utility.yul\":2244:2248   */\n      dup2\n        /* \"#utility.yul\":2240:2260   */\n      sub\n        /* \"#utility.yul\":2236:2237   */\n      0x00\n        /* \"#utility.yul\":2225:2234   */\n      dup4\n        /* \"#utility.yul\":2221:2238   */\n      add\n        /* \"#utility.yul\":2214:2261   */\n      mstore\n        /* \"#utility.yul\":2278:2356   */\n      tag_181\n        /* \"#utility.yul\":2351:2355   */\n      dup2\n        /* \"#utility.yul\":2342:2348   */\n      dup5\n        /* \"#utility.yul\":2278:2356   */\n      tag_139\n      jump\t// in\n    tag_181:\n        /* \"#utility.yul\":2270:2356   */\n      swap1\n      pop\n        /* \"#utility.yul\":2050:2363   */\n      swap3\n      swap2\n      pop\n      pop\n      jump\t// out\n        /* \"#utility.yul\":2369:2486   */\n    tag_140:\n        /* \"#utility.yul\":2478:2479   */\n      0x00\n        /* \"#utility.yul\":2475:2476   */\n      dup1\n        /* \"#utility.yul\":2468:2480   */\n      revert\n        /* \"#utility.yul\":2492:2609   */\n    tag_141:\n        /* \"#utility.yul\":2601:2602   */\n      0x00\n        /* \"#utility.yul\":2598:2599   */\n      dup1\n        /* \"#utility.yul\":2591:2603   */\n      revert\n        /* \"#utility.yul\":2615:2795   */\n    tag_142:\n        /* \"#utility.yul\":2663:2740   */\n      0x4e487b7100000000000000000000000000000000000000000000000000000000\n        /* \"#utility.yul\":2660:2661   */\n      0x00\n        /* \"#utility.yul\":2653:2741   */\n      mstore\n        /* \"#utility.yul\":2760:2764   */\n      0x41\n        /* \"#utility.yul\":2757:2758   */\n      0x04\n        /* \"#utility.yul\":2750:2765   */\n      mstore\n        /* \"#utility.yul\":2784:2788   */\n      0x24\n        /* \"#utility.yul\":2781:2782   */\n      0x00\n        /* \"#utility.yul\":2774:2789   */\n      revert\n        /* \"#utility.yul\":2801:3082   */\n    tag_143:\n        /* \"#utility.yul\":2884:2911   */\n      tag_186\n        /* \"#utility.yul\":2906:2910   */\n      dup3\n        /* \"#utility.yul\":2884:2911   */\n      tag_138\n      jump\t// in\n    tag_186:\n        /* \"#utility.yul\":2876:2882   */\n      dup2\n        /* \"#utility.yul\":2872:2912   */\n      add\n        /* \"#utility.yul\":3014:3020   */\n      dup2\n        /* \"#utility.yul\":3002:3012   */\n      dup2\n        /* \"#utility.yul\":2999:3021   */\n      lt\n        /* \"#utility.yul\":2978:2996   */\n      0xffffffffffffffff\n        /* \"#utility.yul\":2966:2976   */\n      dup3\n        /* \"#utility.yul\":2963:2997   */\n      gt\n        /* \"#utility.yul\":2960:3022   */\n      or\n        /* \"#utility.yul\":2957:3045   */\n      iszero\n      tag_187\n      jumpi\n        /* \"#utility.yul\":3025:3043   */\n      tag_188\n      tag_142\n      jump\t// in\n    tag_188:\n        /* \"#utility.yul\":2957:3045   */\n    tag_187:\n        /* \"#utility.yul\":3065:3075   */\n      dup1\n        /* \"#utility.yul\":3061:3063   */\n      0x40\n        /* \"#utility.yul\":3054:3076   */\n      mstore\n        /* \"#utility.yul\":2844:3082   */\n      pop\n        /* \"#utility.yul\":2801:3082   */\n      pop\n      pop\n      jump\t// out\n        /* \"#utility.yul\":3088:3217   */\n    tag_144:\n        /* \"#utility.yul\":3122:3128   */\n      0x00\n        /* \"#utility.yul\":3149:3169   */\n      tag_190\n      tag_129\n      jump\t// in\n    tag_190:\n        /* \"#utility.yul\":3139:3169   */\n      swap1\n      pop\n        /* \"#utility.yul\":3178:3211   */\n      tag_191\n        /* \"#utility.yul\":3206:3210   */\n      dup3\n        /* \"#utility.yul\":3198:3204   */\n      dup3\n        /* \"#utility.yul\":3178:3211   */\n      tag_143\n      jump\t// in\n    tag_191:\n        /* \"#utility.yul\":3088:3217   */\n      swap2\n      swap1\n      pop\n      jump\t// out\n        /* \"#utility.yul\":3223:3531   */\n    tag_145:\n        /* \"#utility.yul\":3285:3289   */\n      0x00\n        /* \"#utility.yul\":3375:3393   */\n      0xffffffffffffffff\n        /* \"#utility.yul\":3367:3373   */\n      dup3\n        /* \"#utility.yul\":3364:3394   */\n      gt\n        /* \"#utility.yul\":3361:3417   */\n      iszero\n      tag_193\n      jumpi\n        /* \"#utility.yul\":3397:3415   */\n      tag_194\n      tag_142\n      jump\t// in\n    tag_194:\n        /* \"#utility.yul\":3361:3417   */\n    tag_193:\n        /* \"#utility.yul\":3435:3464   */\n      tag_195\n        /* \"#utility.yul\":3457:3463   */\n      dup3\n        /* \"#utility.yul\":3435:3464   */\n      tag_138\n      jump\t// in\n    tag_195:\n        /* \"#utility.yul\":3427:3464   */\n      swap1\n      pop\n        /* \"#utility.yul\":3519:3523   */\n      0x20\n        /* \"#utility.yul\":3513:3517   */\n      dup2\n        /* \"#utility.yul\":3509:3524   */\n      add\n        /* \"#utility.yul\":3501:3524   */\n      swap1\n      pop\n        /* \"#utility.yul\":3223:3531   */\n      swap2\n      swap1\n      pop\n      jump\t// out\n        /* \"#utility.yul\":3537:3685   */\n    tag_146:\n        /* \"#utility.yul\":3635:3641   */\n      dup3\n        /* \"#utility.yul\":3630:3633   */\n      dup2\n        /* \"#utility.yul\":3625:3628   */\n      dup4\n        /* \"#utility.yul\":3612:3642   */\n      calldatacopy\n        /* \"#utility.yul\":3676:3677   */\n      0x00\n        /* \"#utility.yul\":3667:3673   */\n      dup4\n        /* \"#utility.yul\":3662:3665   */\n      dup4\n        /* \"#utility.yul\":3658:3674   */\n      add\n        /* \"#utility.yul\":3651:3678   */\n      mstore\n        /* \"#utility.yul\":3537:3685   */\n      pop\n      pop\n      pop\n      jump\t// out\n        /* \"#utility.yul\":3691:4116   */\n    tag_147:\n        /* \"#utility.yul\":3769:3774   */\n      0x00\n        /* \"#utility.yul\":3794:3860   */\n      tag_198\n        /* \"#utility.yul\":3810:3859   */\n      tag_199\n        /* \"#utility.yul\":3852:3858   */\n      dup5\n        /* \"#utility.yul\":3810:3859   */\n      tag_145\n      jump\t// in\n    tag_199:\n        /* \"#utility.yul\":3794:3860   */\n      tag_144\n      jump\t// in\n    tag_198:\n        /* \"#utility.yul\":3785:3860   */\n      swap1\n      pop\n        /* \"#utility.yul\":3883:3889   */\n      dup3\n        /* \"#utility.yul\":3876:3881   */\n      dup2\n        /* \"#utility.yul\":3869:3890   */\n      mstore\n        /* \"#utility.yul\":3921:3925   */\n      0x20\n        /* \"#utility.yul\":3914:3919   */\n      dup2\n        /* \"#utility.yul\":3910:3926   */\n      add\n        /* \"#utility.yul\":3959:3962   */\n      dup5\n        /* \"#utility.yul\":3950:3956   */\n      dup5\n        /* \"#utility.yul\":3945:3948   */\n      dup5\n        /* \"#utility.yul\":3941:3957   */\n      add\n        /* \"#utility.yul\":3938:3963   */\n      gt\n        /* \"#utility.yul\":3935:4047   */\n      iszero\n      tag_200\n      jumpi\n        /* \"#utility.yul\":3966:4045   */\n      tag_201\n      tag_141\n      jump\t// in\n    tag_201:\n        /* \"#utility.yul\":3935:4047   */\n    tag_200:\n        /* \"#utility.yul\":4056:4110   */\n      tag_202\n        /* \"#utility.yul\":4103:4109   */\n      dup5\n        /* \"#utility.yul\":4098:4101   */\n      dup3\n        /* \"#utility.yul\":4093:4096   */\n      dup6\n        /* \"#utility.yul\":4056:4110   */\n      tag_146\n      jump\t// in\n    tag_202:\n        /* \"#utility.yul\":3775:4116   */\n      pop\n        /* \"#utility.yul\":3691:4116   */\n      swap4\n      swap3\n      pop\n      pop\n      pop\n      jump\t// out\n        /* \"#utility.yul\":4136:4476   */\n    tag_148:\n        /* \"#utility.yul\":4192:4197   */\n      0x00\n        /* \"#utility.yul\":4241:4244   */\n      dup3\n        /* \"#utility.yul\":4234:4238   */\n      0x1f\n        /* \"#utility.yul\":4226:4232   */\n      dup4\n        /* \"#utility.yul\":4222:4239   */\n      add\n        /* \"#utility.yul\":4218:4245   */\n      slt\n        /* \"#utility.yul\":4208:4330   */\n      tag_204\n      jumpi\n        /* \"#utility.yul\":4249:4328   */\n      tag_205\n      tag_140\n      jump\t// in\n    tag_205:\n        /* \"#utility.yul\":4208:4330   */\n    tag_204:\n        /* \"#utility.yul\":4366:4372   */\n      dup2\n        /* \"#utility.yul\":4353:4373   */\n      calldataload\n        /* \"#utility.yul\":4391:4470   */\n      tag_206\n        /* \"#utility.yul\":4466:4469   */\n      dup5\n        /* \"#utility.yul\":4458:4464   */\n      dup3\n        /* \"#utility.yul\":4451:4455   */\n      0x20\n        /* \"#utility.yul\":4443:4449   */\n      dup7\n        /* \"#utility.yul\":4439:4456   */\n      add\n        /* \"#utility.yul\":4391:4470   */\n      tag_147\n      jump\t// in\n    tag_206:\n        /* \"#utility.yul\":4382:4470   */\n      swap2\n      pop\n        /* \"#utility.yul\":4198:4476   */\n      pop\n        /* \"#utility.yul\":4136:4476   */\n      swap3\n      swap2\n      pop\n      pop\n      jump\t// out\n        /* \"#utility.yul\":4482:4991   */\n    tag_14:\n        /* \"#utility.yul\":4551:4557   */\n      0x00\n        /* \"#utility.yul\":4600:4602   */\n      0x20\n        /* \"#utility.yul\":4588:4597   */\n      dup3\n        /* \"#utility.yul\":4579:4586   */\n      dup5\n        /* \"#utility.yul\":4575:4598   */\n      sub\n        /* \"#utility.yul\":4571:4603   */\n      slt\n        /* \"#utility.yul\":4568:4687   */\n      iszero\n      tag_208\n      jumpi\n        /* \"#utility.yul\":4606:4685   */\n      tag_209\n      tag_130\n      jump\t// in\n    tag_209:\n        /* \"#utility.yul\":4568:4687   */\n    tag_208:\n        /* \"#utility.yul\":4754:4755   */\n      0x00\n        /* \"#utility.yul\":4743:4752   */\n      dup3\n        /* \"#utility.yul\":4739:4756   */\n      add\n        /* \"#utility.yul\":4726:4757   */\n      calldataload\n        /* \"#utility.yul\":4784:4802   */\n      0xffffffffffffffff\n        /* \"#utility.yul\":4776:4782   */\n      dup2\n        /* \"#utility.yul\":4773:4803   */\n      gt\n        /* \"#utility.yul\":4770:4887   */\n      iszero\n      tag_210\n      jumpi\n        /* \"#utility.yul\":4806:4885   */\n      tag_211\n      tag_131\n      jump\t// in\n    tag_211:\n        /* \"#utility.yul\":4770:4887   */\n    tag_210:\n        /* \"#utility.yul\":4911:4974   */\n      tag_212\n        /* \"#utility.yul\":4966:4973   */\n      dup5\n        /* \"#utility.yul\":4957:4963   */\n      dup3\n        /* \"#utility.yul\":4946:4955   */\n      dup6\n        /* \"#utility.yul\":4942:4964   */\n      add\n        /* \"#utility.yul\":4911:4974   */\n      tag_148\n      jump\t// in\n    tag_212:\n        /* \"#utility.yul\":4901:4974   */\n      swap2\n      pop\n        /* \"#utility.yul\":4697:4984   */\n      pop\n        /* \"#utility.yul\":4482:4991   */\n      swap3\n      swap2\n      pop\n      pop\n      jump\t// out\n        /* \"#utility.yul\":4997:5073   */\n    tag_149:\n        /* \"#utility.yul\":5033:5040   */\n      0x00\n        /* \"#utility.yul\":5062:5067   */\n      dup2\n        /* \"#utility.yul\":5051:5067   */\n      swap1\n      pop\n        /* \"#utility.yul\":4997:5073   */\n      swap2\n      swap1\n      pop\n      jump\t// out\n        /* \"#utility.yul\":5079:5194   */\n    tag_150:\n        /* \"#utility.yul\":5164:5187   */\n      tag_215\n        /* \"#utility.yul\":5181:5186   */\n      dup2\n        /* \"#utility.yul\":5164:5187   */\n      tag_149\n      jump\t// in\n    tag_215:\n        /* \"#utility.yul\":5159:5162   */\n      dup3\n        /* \"#utility.yul\":5152:5188   */\n      mstore\n        /* \"#utility.yul\":5079:5194   */\n      pop\n      pop\n      jump\t// out\n        /* \"#utility.yul\":5200:5418   */\n    tag_17:\n        /* \"#utility.yul\":5291:5295   */\n      0x00\n        /* \"#utility.yul\":5329:5331   */\n      0x20\n        /* \"#utility.yul\":5318:5327   */\n      dup3\n        /* \"#utility.yul\":5314:5332   */\n      add\n        /* \"#utility.yul\":5306:5332   */\n      swap1\n      pop\n        /* \"#utility.yul\":5342:5411   */\n      tag_217\n        /* \"#utility.yul\":5408:5409   */\n      0x00\n        /* \"#utility.yul\":5397:5406   */\n      dup4\n        /* \"#utility.yul\":5393:5410   */\n      add\n        /* \"#utility.yul\":5384:5390   */\n      dup5\n        /* \"#utility.yul\":5342:5411   */\n      tag_150\n      jump\t// in\n    tag_217:\n        /* \"#utility.yul\":5200:5418   */\n      swap3\n      swap2\n      pop\n      pop\n      jump\t// out\n        /* \"#utility.yul\":5424:5572   */\n    tag_151:\n        /* \"#utility.yul\":5526:5537   */\n      0x00\n        /* \"#utility.yul\":5563:5566   */\n      dup2\n        /* \"#utility.yul\":5548:5566   */\n      swap1\n      pop\n        /* \"#utility.yul\":5424:5572   */\n      swap3\n      swap2\n      pop\n      pop\n      jump\t// out\n        /* \"#utility.yul\":5578:5968   */\n    tag_152:\n        /* \"#utility.yul\":5684:5687   */\n      0x00\n        /* \"#utility.yul\":5712:5751   */\n      tag_220\n        /* \"#utility.yul\":5745:5750   */\n      dup3\n        /* \"#utility.yul\":5712:5751   */\n      tag_135\n      jump\t// in\n    tag_220:\n        /* \"#utility.yul\":5767:5856   */\n      tag_221\n        /* \"#utility.yul\":5849:5855   */\n      dup2\n        /* \"#utility.yul\":5844:5847   */\n      dup6\n        /* \"#utility.yul\":5767:5856   */\n      tag_151\n      jump\t// in\n    tag_221:\n        /* \"#utility.yul\":5760:5856   */\n      swap4\n      pop\n        /* \"#utility.yul\":5865:5930   */\n      tag_222\n        /* \"#utility.yul\":5923:5929   */\n      dup2\n        /* \"#utility.yul\":5918:5921   */\n      dup6\n        /* \"#utility.yul\":5911:5915   */\n      0x20\n        /* \"#utility.yul\":5904:5909   */\n      dup7\n        /* \"#utility.yul\":5900:5916   */\n      add\n        /* \"#utility.yul\":5865:5930   */\n      tag_137\n      jump\t// in\n    tag_222:\n        /* \"#utility.yul\":5955:5961   */\n      dup1\n        /* \"#utility.yul\":5950:5953   */\n      dup5\n        /* \"#utility.yul\":5946:5962   */\n      add\n        /* \"#utility.yul\":5939:5962   */\n      swap2\n      pop\n        /* \"#utility.yul\":5688:5968   */\n      pop\n        /* \"#utility.yul\":5578:5968   */\n      swap3\n      swap2\n      pop\n      pop\n      jump\t// out\n        /* \"#utility.yul\":5974:6409   */\n    tag_28:\n        /* \"#utility.yul\":6154:6157   */\n      0x00\n        /* \"#utility.yul\":6176:6271   */\n      tag_224\n        /* \"#utility.yul\":6267:6270   */\n      dup3\n        /* \"#utility.yul\":6258:6264   */\n      dup6\n        /* \"#utility.yul\":6176:6271   */\n      tag_152\n      jump\t// in\n    tag_224:\n        /* \"#utility.yul\":6169:6271   */\n      swap2\n      pop\n        /* \"#utility.yul\":6288:6383   */\n      tag_225\n        /* \"#utility.yul\":6379:6382   */\n      dup3\n        /* \"#utility.yul\":6370:6376   */\n      dup5\n        /* \"#utility.yul\":6288:6383   */\n      tag_152\n      jump\t// in\n    tag_225:\n        /* \"#utility.yul\":6281:6383   */\n      swap2\n      pop\n        /* \"#utility.yul\":6400:6403   */\n      dup2\n        /* \"#utility.yul\":6393:6403   */\n      swap1\n      pop\n        /* \"#utility.yul\":5974:6409   */\n      swap4\n      swap3\n      pop\n      pop\n      pop\n      jump\t// out\n        /* \"#utility.yul\":6415:6595   */\n    tag_153:\n        /* \"#utility.yul\":6463:6540   */\n      0x4e487b7100000000000000000000000000000000000000000000000000000000\n        /* \"#utility.yul\":6460:6461   */\n      0x00\n        /* \"#utility.yul\":6453:6541   */\n      mstore\n        /* \"#utility.yul\":6560:6564   */\n      0x11\n        /* \"#utility.yul\":6557:6558   */\n      0x04\n        /* \"#utility.yul\":6550:6565   */\n      mstore\n        /* \"#utility.yul\":6584:6588   */\n      0x24\n        /* \"#utility.yul\":6581:6582   */\n      0x00\n        /* \"#utility.yul\":6574:6589   */\n      revert\n        /* \"#utility.yul\":6601:6795   */\n    tag_34:\n        /* \"#utility.yul\":6641:6645   */\n      0x00\n        /* \"#utility.yul\":6661:6681   */\n      tag_228\n        /* \"#utility.yul\":6679:6680   */\n      dup3\n        /* \"#utility.yul\":6661:6681   */\n      tag_132\n      jump\t// in\n    tag_228:\n        /* \"#utility.yul\":6656:6681   */\n      swap2\n      pop\n        /* \"#utility.yul\":6695:6715   */\n      tag_229\n        /* \"#utility.yul\":6713:6714   */\n      dup4\n        /* \"#utility.yul\":6695:6715   */\n      tag_132\n      jump\t// in\n    tag_229:\n        /* \"#utility.yul\":6690:6715   */\n      swap3\n      pop\n        /* \"#utility.yul\":6739:6740   */\n      dup3\n        /* \"#utility.yul\":6736:6737   */\n      dup3\n        /* \"#utility.yul\":6732:6741   */\n      sub\n        /* \"#utility.yul\":6724:6741   */\n      swap1\n      pop\n        /* \"#utility.yul\":6763:6764   */\n      dup2\n        /* \"#utility.yul\":6757:6761   */\n      dup2\n        /* \"#utility.yul\":6754:6765   */\n      gt\n        /* \"#utility.yul\":6751:6788   */\n      iszero\n      tag_230\n      jumpi\n        /* \"#utility.yul\":6768:6786   */\n      tag_231\n      tag_153\n      jump\t// in\n    tag_231:\n        /* \"#utility.yul\":6751:6788   */\n    tag_230:\n        /* \"#utility.yul\":6601:6795   */\n      swap3\n      swap2\n      pop\n      pop\n      jump\t// out\n        /* \"#utility.yul\":6801:6992   */\n    tag_37:\n        /* \"#utility.yul\":6841:6844   */\n      0x00\n        /* \"#utility.yul\":6860:6880   */\n      tag_233\n        /* \"#utility.yul\":6878:6879   */\n      dup3\n        /* \"#utility.yul\":6860:6880   */\n      tag_132\n      jump\t// in\n    tag_233:\n        /* \"#utility.yul\":6855:6880   */\n      swap2\n      pop\n        /* \"#utility.yul\":6894:6914   */\n      tag_234\n        /* \"#utility.yul\":6912:6913   */\n      dup4\n        /* \"#utility.yul\":6894:6914   */\n      tag_132\n      jump\t// in\n    tag_234:\n        /* \"#utility.yul\":6889:6914   */\n      swap3\n      pop\n        /* \"#utility.yul\":6937:6938   */\n      dup3\n        /* \"#utility.yul\":6934:6935   */\n      dup3\n        /* \"#utility.yul\":6930:6939   */\n      add\n        /* \"#utility.yul\":6923:6939   */\n      swap1\n      pop\n        /* \"#utility.yul\":6958:6961   */\n      dup1\n        /* \"#utility.yul\":6955:6956   */\n      dup3\n        /* \"#utility.yul\":6952:6962   */\n      gt\n        /* \"#utility.yul\":6949:6985   */\n      iszero\n      tag_235\n      jumpi\n        /* \"#utility.yul\":6965:6983   */\n      tag_236\n      tag_153\n      jump\t// in\n    tag_236:\n        /* \"#utility.yul\":6949:6985   */\n    tag_235:\n        /* \"#utility.yul\":6801:6992   */\n      swap3\n      swap2\n      pop\n      pop\n      jump\t// out\n        /* \"#utility.yul\":6998:7178   */\n    tag_40:\n        /* \"#utility.yul\":7046:7123   */\n      0x4e487b7100000000000000000000000000000000000000000000000000000000\n        /* \"#utility.yul\":7043:7044   */\n      0x00\n        /* \"#utility.yul\":7036:7124   */\n      mstore\n        /* \"#utility.yul\":7143:7147   */\n      0x32\n        /* \"#utility.yul\":7140:7141   */\n      0x04\n        /* \"#utility.yul\":7133:7148   */\n      mstore\n        /* \"#utility.yul\":7167:7171   */\n      0x24\n        /* \"#utility.yul\":7164:7165   */\n      0x00\n        /* \"#utility.yul\":7157:7172   */\n      revert\n        /* \"#utility.yul\":7184:7556   */\n    tag_50:\n        /* \"#utility.yul\":7223:7227   */\n      0x00\n        /* \"#utility.yul\":7243:7262   */\n      tag_239\n        /* \"#utility.yul\":7260:7261   */\n      dup3\n        /* \"#utility.yul\":7243:7262   */\n      tag_149\n      jump\t// in\n    tag_239:\n        /* \"#utility.yul\":7238:7262   */\n      swap2\n      pop\n        /* \"#utility.yul\":7276:7295   */\n      tag_240\n        /* \"#utility.yul\":7293:7294   */\n      dup4\n        /* \"#utility.yul\":7276:7295   */\n      tag_149\n      jump\t// in\n    tag_240:\n        /* \"#utility.yul\":7271:7295   */\n      swap3\n      pop\n        /* \"#utility.yul\":7319:7320   */\n      dup3\n        /* \"#utility.yul\":7316:7317   */\n      dup3\n        /* \"#utility.yul\":7312:7321   */\n      sub\n        /* \"#utility.yul\":7304:7321   */\n      swap1\n      pop\n        /* \"#utility.yul\":7513:7514   */\n      dup2\n        /* \"#utility.yul\":7507:7511   */\n      dup2\n        /* \"#utility.yul\":7503:7515   */\n      slt\n        /* \"#utility.yul\":7499:7500   */\n      0x00\n        /* \"#utility.yul\":7496:7497   */\n      dup5\n        /* \"#utility.yul\":7492:7501   */\n      slt\n        /* \"#utility.yul\":7488:7516   */\n      and\n        /* \"#utility.yul\":7471:7472   */\n      dup3\n        /* \"#utility.yul\":7465:7469   */\n      dup3\n        /* \"#utility.yul\":7461:7473   */\n      sgt\n        /* \"#utility.yul\":7456:7457   */\n      0x00\n        /* \"#utility.yul\":7453:7454   */\n      dup6\n        /* \"#utility.yul\":7449:7458   */\n      slt\n        /* \"#utility.yul\":7442:7459   */\n      iszero\n        /* \"#utility.yul\":7438:7474   */\n      and\n        /* \"#utility.yul\":7422:7526   */\n      or\n        /* \"#utility.yul\":7419:7549   */\n      iszero\n      tag_241\n      jumpi\n        /* \"#utility.yul\":7529:7547   */\n      tag_242\n      tag_153\n      jump\t// in\n    tag_242:\n        /* \"#utility.yul\":7419:7549   */\n    tag_241:\n        /* \"#utility.yul\":7184:7556   */\n      swap3\n      swap2\n      pop\n      pop\n      jump\t// out\n        /* \"#utility.yul\":7562:7937   */\n    tag_56:\n        /* \"#utility.yul\":7601:7604   */\n      0x00\n        /* \"#utility.yul\":7620:7639   */\n      tag_244\n        /* \"#utility.yul\":7637:7638   */\n      dup3\n        /* \"#utility.yul\":7620:7639   */\n      tag_149\n      jump\t// in\n    tag_244:\n        /* \"#utility.yul\":7615:7639   */\n      swap2\n      pop\n        /* \"#utility.yul\":7653:7672   */\n      tag_245\n        /* \"#utility.yul\":7670:7671   */\n      dup4\n        /* \"#utility.yul\":7653:7672   */\n      tag_149\n      jump\t// in\n    tag_245:\n        /* \"#utility.yul\":7648:7672   */\n      swap3\n      pop\n        /* \"#utility.yul\":7695:7696   */\n      dup3\n        /* \"#utility.yul\":7692:7693   */\n      dup3\n        /* \"#utility.yul\":7688:7697   */\n      add\n        /* \"#utility.yul\":7681:7697   */\n      swap1\n      pop\n        /* \"#utility.yul\":7893:7894   */\n      dup3\n        /* \"#utility.yul\":7888:7891   */\n      dup2\n        /* \"#utility.yul\":7884:7895   */\n      slt\n        /* \"#utility.yul\":7877:7896   */\n      iszero\n        /* \"#utility.yul\":7873:7874   */\n      0x00\n        /* \"#utility.yul\":7870:7871   */\n      dup4\n        /* \"#utility.yul\":7866:7875   */\n      slt\n        /* \"#utility.yul\":7862:7897   */\n      and\n        /* \"#utility.yul\":7845:7846   */\n      dup4\n        /* \"#utility.yul\":7840:7843   */\n      dup3\n        /* \"#utility.yul\":7836:7847   */\n      slt\n        /* \"#utility.yul\":7831:7832   */\n      0x00\n        /* \"#utility.yul\":7828:7829   */\n      dup5\n        /* \"#utility.yul\":7824:7833   */\n      slt\n        /* \"#utility.yul\":7817:7834   */\n      iszero\n        /* \"#utility.yul\":7813:7848   */\n      and\n        /* \"#utility.yul\":7797:7907   */\n      or\n        /* \"#utility.yul\":7794:7930   */\n      iszero\n      tag_246\n      jumpi\n        /* \"#utility.yul\":7910:7928   */\n      tag_247\n      tag_153\n      jump\t// in\n    tag_247:\n        /* \"#utility.yul\":7794:7930   */\n    tag_246:\n        /* \"#utility.yul\":7562:7937   */\n      swap3\n      swap2\n      pop\n      pop\n      jump\t// out\n\n    auxdata: 0xa26469706673582212203cd1584ae6912c75bb03a3c77a2b1d7bb15dbb112f4e5f66f5a9a442ad5e217c64736f6c634300081a0033\n}\n",
				"bytecode": {
					"linkReferences": {},
					"object": "608060405234801561000f575f80fd5b5060015f807f49000000000000000000000000000000000000000000000000000000000000007effffffffffffffffffffffffffffffffffffffffffffffffffffffffffffff191681526020019081526020015f208190555060055f807f56000000000000000000000000000000000000000000000000000000000000007effffffffffffffffffffffffffffffffffffffffffffffffffffffffffffff191681526020019081526020015f2081905550600a5f807f58000000000000000000000000000000000000000000000000000000000000007effffffffffffffffffffffffffffffffffffffffffffffffffffffffffffff191681526020019081526020015f208190555060325f807f4c000000000000000000000000000000000000000000000000000000000000007effffffffffffffffffffffffffffffffffffffffffffffffffffffffffffff191681526020019081526020015f208190555060645f807f43000000000000000000000000000000000000000000000000000000000000007effffffffffffffffffffffffffffffffffffffffffffffffffffffffffffff191681526020019081526020015f20819055506101f45f807f44000000000000000000000000000000000000000000000000000000000000007effffffffffffffffffffffffffffffffffffffffffffffffffffffffffffff191681526020019081526020015f20819055506103e85f807f4d000000000000000000000000000000000000000000000000000000000000007effffffffffffffffffffffffffffffffffffffffffffffffffffffffffffff191681526020019081526020015f2081905550611026806102875f395ff3fe608060405234801561000f575f80fd5b506004361061003f575f3560e01c80630cbc513a146100435780632ab6faca14610073578063cb159dfe146100a3575b5f80fd5b61005d60048036038101906100589190610bd9565b6100d3565b60405161006a9190610c8e565b60405180910390f35b61008d60048036038101906100889190610dda565b610125565b60405161009a9190610e39565b60405180910390f35b6100bd60048036038101906100b89190610dda565b610264565b6040516100ca9190610e39565b60405180910390f35b60608060605b5f84111561011b576100ea8461051f565b80955081925050508181604051602001610105929190610e8c565b60405160208183030381529060405291506100d9565b8192505050919050565b5f808290505f805b6001835161013b9190610edc565b81101561021957610174836001836101539190610f0f565b8151811061016457610163610f42565b5b602001015160f81c60f81b61099c565b61019a84838151811061018a57610189610f42565b5b602001015160f81c60f81b61099c565b12156101d8576101c68382815181106101b6576101b5610f42565b5b602001015160f81c60f81b61099c565b826101d19190610f6f565b915061020c565b6101fe8382815181106101ee576101ed610f42565b5b602001015160f81c60f81b61099c565b826102099190610faf565b91505b808060010191505061012d565b5061024d826001845161022c9190610edc565b8151811061023d5761023c610f42565b5b602001015160f81c60f81b61099c565b816102589190610faf565b90508092505050919050565b5f808290505f805b6001835161027a9190610edc565b811015610488575f80846001846102919190610f0f565b815181106102a2576102a1610f42565b5b602001015160f81c60f81b7effffffffffffffffffffffffffffffffffffffffffffffffffffffffffffff19167effffffffffffffffffffffffffffffffffffffffffffffffffffffffffffff191681526020019081526020015f20545f8085848151811061031457610313610f42565b5b602001015160f81c60f81b7effffffffffffffffffffffffffffffffffffffffffffffffffffffffffffff19167effffffffffffffffffffffffffffffffffffffffffffffffffffffffffffff191681526020019081526020015f205412156103fb575f8084838151811061038c5761038b610f42565b5b602001015160f81c60f81b7effffffffffffffffffffffffffffffffffffffffffffffffffffffffffffff19167effffffffffffffffffffffffffffffffffffffffffffffffffffffffffffff191681526020019081526020015f2054826103f49190610f6f565b915061047b565b5f808483815181106104105761040f610f42565b5b602001015160f81c60f81b7effffffffffffffffffffffffffffffffffffffffffffffffffffffffffffff19167effffffffffffffffffffffffffffffffffffffffffffffffffffffffffffff191681526020019081526020015f2054826104789190610faf565b91505b808060010191505061026c565b505f80836001855161049a9190610edc565b815181106104ab576104aa610f42565b5b602001015160f81c60f81b7effffffffffffffffffffffffffffffffffffffffffffffffffffffffffffff19167effffffffffffffffffffffffffffffffffffffffffffffffffffffffffffff191681526020019081526020015f2054816105139190610faf565b90508092505050919050565b60605f6103e883111561057d576103e88361053a9190610edc565b9250826040518060400160405280600181526020017f4d000000000000000000000000000000000000000000000000000000000000008152509091509150610997565b61038483106105d757610384836105949190610edc565b9250826040518060400160405280600281526020017f434d0000000000000000000000000000000000000000000000000000000000008152509091509150610997565b6101f48310610631576101f4836105ee9190610edc565b9250826040518060400160405280600181526020017f44000000000000000000000000000000000000000000000000000000000000008152509091509150610997565b610190831061068b57610190836106489190610edc565b9250826040518060400160405280600281526020017f43440000000000000000000000000000000000000000000000000000000000008152509091509150610997565b606483106106e3576064836106a09190610edc565b9250826040518060400160405280600181526020017f43000000000000000000000000000000000000000000000000000000000000008152509091509150610997565b605a831061073b57605a836106f89190610edc565b9250826040518060400160405280600281526020017f58430000000000000000000000000000000000000000000000000000000000008152509091509150610997565b60328310610793576032836107509190610edc565b9250826040518060400160405280600181526020017f4c000000000000000000000000000000000000000000000000000000000000008152509091509150610997565b602883106107eb576028836107a89190610edc565b9250826040518060400160405280600281526020017f584c0000000000000000000000000000000000000000000000000000000000008152509091509150610997565b600a831061084357600a836108009190610edc565b9250826040518060400160405280600181526020017f58000000000000000000000000000000000000000000000000000000000000008152509091509150610997565b6009831061089b576009836108589190610edc565b9250826040518060400160405280600281526020017f49580000000000000000000000000000000000000000000000000000000000008152509091509150610997565b600583106108f3576005836108b09190610edc565b9250826040518060400160405280600181526020017f56000000000000000000000000000000000000000000000000000000000000008152509091509150610997565b6004831061094b576004836109089190610edc565b9250826040518060400160405280600281526020017f49560000000000000000000000000000000000000000000000000000000000008152509091509150610997565b6001836109589190610edc565b9250826040518060400160405280600181526020017f490000000000000000000000000000000000000000000000000000000000000081525090915091505b915091565b5f7f4900000000000000000000000000000000000000000000000000000000000000827effffffffffffffffffffffffffffffffffffffffffffffffffffffffffffff1916036109ef5760019050610b90565b7f5600000000000000000000000000000000000000000000000000000000000000827effffffffffffffffffffffffffffffffffffffffffffffffffffffffffffff191603610a415760059050610b90565b7f5800000000000000000000000000000000000000000000000000000000000000827effffffffffffffffffffffffffffffffffffffffffffffffffffffffffffff191603610a9357600a9050610b90565b7f4c00000000000000000000000000000000000000000000000000000000000000827effffffffffffffffffffffffffffffffffffffffffffffffffffffffffffff191603610ae55760329050610b90565b7f4300000000000000000000000000000000000000000000000000000000000000827effffffffffffffffffffffffffffffffffffffffffffffffffffffffffffff191603610b375760649050610b90565b7f4400000000000000000000000000000000000000000000000000000000000000827effffffffffffffffffffffffffffffffffffffffffffffffffffffffffffff191603610b8a576101f49050610b90565b6103e890505b919050565b5f604051905090565b5f80fd5b5f80fd5b5f819050919050565b610bb881610ba6565b8114610bc2575f80fd5b50565b5f81359050610bd381610baf565b92915050565b5f60208284031215610bee57610bed610b9e565b5b5f610bfb84828501610bc5565b91505092915050565b5f81519050919050565b5f82825260208201905092915050565b5f5b83811015610c3b578082015181840152602081019050610c20565b5f8484015250505050565b5f601f19601f8301169050919050565b5f610c6082610c04565b610c6a8185610c0e565b9350610c7a818560208601610c1e565b610c8381610c46565b840191505092915050565b5f6020820190508181035f830152610ca68184610c56565b905092915050565b5f80fd5b5f80fd5b7f4e487b71000000000000000000000000000000000000000000000000000000005f52604160045260245ffd5b610cec82610c46565b810181811067ffffffffffffffff82111715610d0b57610d0a610cb6565b5b80604052505050565b5f610d1d610b95565b9050610d298282610ce3565b919050565b5f67ffffffffffffffff821115610d4857610d47610cb6565b5b610d5182610c46565b9050602081019050919050565b828183375f83830152505050565b5f610d7e610d7984610d2e565b610d14565b905082815260208101848484011115610d9a57610d99610cb2565b5b610da5848285610d5e565b509392505050565b5f82601f830112610dc157610dc0610cae565b5b8135610dd1848260208601610d6c565b91505092915050565b5f60208284031215610def57610dee610b9e565b5b5f82013567ffffffffffffffff811115610e0c57610e0b610ba2565b5b610e1884828501610dad565b91505092915050565b5f819050919050565b610e3381610e21565b82525050565b5f602082019050610e4c5f830184610e2a565b92915050565b5f81905092915050565b5f610e6682610c04565b610e708185610e52565b9350610e80818560208601610c1e565b80840191505092915050565b5f610e978285610e5c565b9150610ea38284610e5c565b91508190509392505050565b7f4e487b71000000000000000000000000000000000000000000000000000000005f52601160045260245ffd5b5f610ee682610ba6565b9150610ef183610ba6565b9250828203905081811115610f0957610f08610eaf565b5b92915050565b5f610f1982610ba6565b9150610f2483610ba6565b9250828201905080821115610f3c57610f3b610eaf565b5b92915050565b7f4e487b71000000000000000000000000000000000000000000000000000000005f52603260045260245ffd5b5f610f7982610e21565b9150610f8483610e21565b925082820390508181125f8412168282135f851215161715610fa957610fa8610eaf565b5b92915050565b5f610fb982610e21565b9150610fc483610e21565b92508282019050828112155f8312168382125f841215161715610fea57610fe9610eaf565b5b9291505056fea26469706673582212203cd1584ae6912c75bb03a3c77a2b1d7bb15dbb112f4e5f66f5a9a442ad5e217c64736f6c634300081a0033",
					"opcodes": "PUSH1 0x80 PUSH1 0x40 MSTORE CALLVALUE DUP1 ISZERO PUSH2 0xF JUMPI PUSH0 DUP1 REVERT JUMPDEST POP PUSH1 0x1 PUSH0 DUP1 PUSH32 0x4900000000000000000000000000000000000000000000000000000000000000 PUSH31 0xFFFFFFFFFFFFFFFFFFFFFFFFFFFFFFFFFFFFFFFFFFFFFFFFFFFFFFFFFFFFFF NOT AND DUP2 MSTORE PUSH1 0x20 ADD SWAP1 DUP2 MSTORE PUSH1 0x20 ADD PUSH0 KECCAK256 DUP2 SWAP1 SSTORE POP PUSH1 0x5 PUSH0 DUP1 PUSH32 0x5600000000000000000000000000000000000000000000000000000000000000 PUSH31 0xFFFFFFFFFFFFFFFFFFFFFFFFFFFFFFFFFFFFFFFFFFFFFFFFFFFFFFFFFFFFFF NOT AND DUP2 MSTORE PUSH1 0x20 ADD SWAP1 DUP2 MSTORE PUSH1 0x20 ADD PUSH0 KECCAK256 DUP2 SWAP1 SSTORE POP PUSH1 0xA PUSH0 DUP1 PUSH32 0x5800000000000000000000000000000000000000000000000000000000000000 PUSH31 0xFFFFFFFFFFFFFFFFFFFFFFFFFFFFFFFFFFFFFFFFFFFFFFFFFFFFFFFFFFFFFF NOT AND DUP2 MSTORE PUSH1 0x20 ADD SWAP1 DUP2 MSTORE PUSH1 0x20 ADD PUSH0 KECCAK256 DUP2 SWAP1 SSTORE POP PUSH1 0x32 PUSH0 DUP1 PUSH32 0x4C00000000000000000000000000000000000000000000000000000000000000 PUSH31 0xFFFFFFFFFFFFFFFFFFFFFFFFFFFFFFFFFFFFFFFFFFFFFFFFFFFFFFFFFFFFFF NOT AND DUP2 MSTORE PUSH1 0x20 ADD SWAP1 DUP2 MSTORE PUSH1 0x20 ADD PUSH0 KECCAK256 DUP2 SWAP1 SSTORE POP PUSH1 0x64 PUSH0 DUP1 PUSH32 0x4300000000000000000000000000000000000000000000000000000000000000 PUSH31 0xFFFFFFFFFFFFFFFFFFFFFFFFFFFFFFFFFFFFFFFFFFFFFFFFFFFFFFFFFFFFFF NOT AND DUP2 MSTORE PUSH1 0x20 ADD SWAP1 DUP2 MSTORE PUSH1 0x20 ADD PUSH0 KECCAK256 DUP2 SWAP1 SSTORE POP PUSH2 0x1F4 PUSH0 DUP1 PUSH32 0x4400000000000000000000000000000000000000000000000000000000000000 PUSH31 0xFFFFFFFFFFFFFFFFFFFFFFFFFFFFFFFFFFFFFFFFFFFFFFFFFFFFFFFFFFFFFF NOT AND DUP2 MSTORE PUSH1 0x20 ADD SWAP1 DUP2 MSTORE PUSH1 0x20 ADD PUSH0 KECCAK256 DUP2 SWAP1 SSTORE POP PUSH2 0x3E8 PUSH0 DUP1 PUSH32 0x4D00000000000000000000000000000000000000000000000000000000000000 PUSH31 0xFFFFFFFFFFFFFFFFFFFFFFFFFFFFFFFFFFFFFFFFFFFFFFFFFFFFFFFFFFFFFF NOT AND DUP2 MSTORE PUSH1 0x20 ADD SWAP1 DUP2 MSTORE PUSH1 0x20 ADD PUSH0 KECCAK256 DUP2 SWAP1 SSTORE POP PUSH2 0x1026 DUP1 PUSH2 0x287 PUSH0 CODECOPY PUSH0 RETURN INVALID PUSH1 0x80 PUSH1 0x40 MSTORE CALLVALUE DUP1 ISZERO PUSH2 0xF JUMPI PUSH0 DUP1 REVERT JUMPDEST POP PUSH1 0x4 CALLDATASIZE LT PUSH2 0x3F JUMPI PUSH0 CALLDATALOAD PUSH1 0xE0 SHR DUP1 PUSH4 0xCBC513A EQ PUSH2 0x43 JUMPI DUP1 PUSH4 0x2AB6FACA EQ PUSH2 0x73 JUMPI DUP1 PUSH4 0xCB159DFE EQ PUSH2 0xA3 JUMPI JUMPDEST PUSH0 DUP1 REVERT JUMPDEST PUSH2 0x5D PUSH1 0x4 DUP1 CALLDATASIZE SUB DUP2 ADD SWAP1 PUSH2 0x58 SWAP2 SWAP1 PUSH2 0xBD9 JUMP JUMPDEST PUSH2 0xD3 JUMP JUMPDEST PUSH1 0x40 MLOAD PUSH2 0x6A SWAP2 SWAP1 PUSH2 0xC8E JUMP JUMPDEST PUSH1 0x40 MLOAD DUP1 SWAP2 SUB SWAP1 RETURN JUMPDEST PUSH2 0x8D PUSH1 0x4 DUP1 CALLDATASIZE SUB DUP2 ADD SWAP1 PUSH2 0x88 SWAP2 SWAP1 PUSH2 0xDDA JUMP JUMPDEST PUSH2 0x125 JUMP JUMPDEST PUSH1 0x40 MLOAD PUSH2 0x9A SWAP2 SWAP1 PUSH2 0xE39 JUMP JUMPDEST PUSH1 0x40 MLOAD DUP1 SWAP2 SUB SWAP1 RETURN JUMPDEST PUSH2 0xBD PUSH1 0x4 DUP1 CALLDATASIZE SUB DUP2 ADD SWAP1 PUSH2 0xB8 SWAP2 SWAP1 PUSH2 0xDDA JUMP JUMPDEST PUSH2 0x264 JUMP JUMPDEST PUSH1 0x40 MLOAD PUSH2 0xCA SWAP2 SWAP1 PUSH2 0xE39 JUMP JUMPDEST PUSH1 0x40 MLOAD DUP1 SWAP2 SUB SWAP1 RETURN JUMPDEST PUSH1 0x60 DUP1 PUSH1 0x60 JUMPDEST PUSH0 DUP5 GT ISZERO PUSH2 0x11B JUMPI PUSH2 0xEA DUP5 PUSH2 0x51F JUMP JUMPDEST DUP1 SWAP6 POP DUP2 SWAP3 POP POP POP DUP2 DUP2 PUSH1 0x40 MLOAD PUSH1 0x20 ADD PUSH2 0x105 SWAP3 SWAP2 SWAP1 PUSH2 0xE8C JUMP JUMPDEST PUSH1 0x40 MLOAD PUSH1 0x20 DUP2 DUP4 SUB SUB DUP2 MSTORE SWAP1 PUSH1 0x40 MSTORE SWAP2 POP PUSH2 0xD9 JUMP JUMPDEST DUP2 SWAP3 POP POP POP SWAP2 SWAP1 POP JUMP JUMPDEST PUSH0 DUP1 DUP3 SWAP1 POP PUSH0 DUP1 JUMPDEST PUSH1 0x1 DUP4 MLOAD PUSH2 0x13B SWAP2 SWAP1 PUSH2 0xEDC JUMP JUMPDEST DUP2 LT ISZERO PUSH2 0x219 JUMPI PUSH2 0x174 DUP4 PUSH1 0x1 DUP4 PUSH2 0x153 SWAP2 SWAP1 PUSH2 0xF0F JUMP JUMPDEST DUP2 MLOAD DUP2 LT PUSH2 0x164 JUMPI PUSH2 0x163 PUSH2 0xF42 JUMP JUMPDEST JUMPDEST PUSH1 0x20 ADD ADD MLOAD PUSH1 0xF8 SHR PUSH1 0xF8 SHL PUSH2 0x99C JUMP JUMPDEST PUSH2 0x19A DUP5 DUP4 DUP2 MLOAD DUP2 LT PUSH2 0x18A JUMPI PUSH2 0x189 PUSH2 0xF42 JUMP JUMPDEST JUMPDEST PUSH1 0x20 ADD ADD MLOAD PUSH1 0xF8 SHR PUSH1 0xF8 SHL PUSH2 0x99C JUMP JUMPDEST SLT ISZERO PUSH2 0x1D8 JUMPI PUSH2 0x1C6 DUP4 DUP3 DUP2 MLOAD DUP2 LT PUSH2 0x1B6 JUMPI PUSH2 0x1B5 PUSH2 0xF42 JUMP JUMPDEST JUMPDEST PUSH1 0x20 ADD ADD MLOAD PUSH1 0xF8 SHR PUSH1 0xF8 SHL PUSH2 0x99C JUMP JUMPDEST DUP3 PUSH2 0x1D1 SWAP2 SWAP1 PUSH2 0xF6F JUMP JUMPDEST SWAP2 POP PUSH2 0x20C JUMP JUMPDEST PUSH2 0x1FE DUP4 DUP3 DUP2 MLOAD DUP2 LT PUSH2 0x1EE JUMPI PUSH2 0x1ED PUSH2 0xF42 JUMP JUMPDEST JUMPDEST PUSH1 0x20 ADD ADD MLOAD PUSH1 0xF8 SHR PUSH1 0xF8 SHL PUSH2 0x99C JUMP JUMPDEST DUP3 PUSH2 0x209 SWAP2 SWAP1 PUSH2 0xFAF JUMP JUMPDEST SWAP2 POP JUMPDEST DUP1 DUP1 PUSH1 0x1 ADD SWAP2 POP POP PUSH2 0x12D JUMP JUMPDEST POP PUSH2 0x24D DUP3 PUSH1 0x1 DUP5 MLOAD PUSH2 0x22C SWAP2 SWAP1 PUSH2 0xEDC JUMP JUMPDEST DUP2 MLOAD DUP2 LT PUSH2 0x23D JUMPI PUSH2 0x23C PUSH2 0xF42 JUMP JUMPDEST JUMPDEST PUSH1 0x20 ADD ADD MLOAD PUSH1 0xF8 SHR PUSH1 0xF8 SHL PUSH2 0x99C JUMP JUMPDEST DUP2 PUSH2 0x258 SWAP2 SWAP1 PUSH2 0xFAF JUMP JUMPDEST SWAP1 POP DUP1 SWAP3 POP POP POP SWAP2 SWAP1 POP JUMP JUMPDEST PUSH0 DUP1 DUP3 SWAP1 POP PUSH0 DUP1 JUMPDEST PUSH1 0x1 DUP4 MLOAD PUSH2 0x27A SWAP2 SWAP1 PUSH2 0xEDC JUMP JUMPDEST DUP2 LT ISZERO PUSH2 0x488 JUMPI PUSH0 DUP1 DUP5 PUSH1 0x1 DUP5 PUSH2 0x291 SWAP2 SWAP1 PUSH2 0xF0F JUMP JUMPDEST DUP2 MLOAD DUP2 LT PUSH2 0x2A2 JUMPI PUSH2 0x2A1 PUSH2 0xF42 JUMP JUMPDEST JUMPDEST PUSH1 0x20 ADD ADD MLOAD PUSH1 0xF8 SHR PUSH1 0xF8 SHL PUSH31 0xFFFFFFFFFFFFFFFFFFFFFFFFFFFFFFFFFFFFFFFFFFFFFFFFFFFFFFFFFFFFFF NOT AND PUSH31 0xFFFFFFFFFFFFFFFFFFFFFFFFFFFFFFFFFFFFFFFFFFFFFFFFFFFFFFFFFFFFFF NOT AND DUP2 MSTORE PUSH1 0x20 ADD SWAP1 DUP2 MSTORE PUSH1 0x20 ADD PUSH0 KECCAK256 SLOAD PUSH0 DUP1 DUP6 DUP5 DUP2 MLOAD DUP2 LT PUSH2 0x314 JUMPI PUSH2 0x313 PUSH2 0xF42 JUMP JUMPDEST JUMPDEST PUSH1 0x20 ADD ADD MLOAD PUSH1 0xF8 SHR PUSH1 0xF8 SHL PUSH31 0xFFFFFFFFFFFFFFFFFFFFFFFFFFFFFFFFFFFFFFFFFFFFFFFFFFFFFFFFFFFFFF NOT AND PUSH31 0xFFFFFFFFFFFFFFFFFFFFFFFFFFFFFFFFFFFFFFFFFFFFFFFFFFFFFFFFFFFFFF NOT AND DUP2 MSTORE PUSH1 0x20 ADD SWAP1 DUP2 MSTORE PUSH1 0x20 ADD PUSH0 KECCAK256 SLOAD SLT ISZERO PUSH2 0x3FB JUMPI PUSH0 DUP1 DUP5 DUP4 DUP2 MLOAD DUP2 LT PUSH2 0x38C JUMPI PUSH2 0x38B PUSH2 0xF42 JUMP JUMPDEST JUMPDEST PUSH1 0x20 ADD ADD MLOAD PUSH1 0xF8 SHR PUSH1 0xF8 SHL PUSH31 0xFFFFFFFFFFFFFFFFFFFFFFFFFFFFFFFFFFFFFFFFFFFFFFFFFFFFFFFFFFFFFF NOT AND PUSH31 0xFFFFFFFFFFFFFFFFFFFFFFFFFFFFFFFFFFFFFFFFFFFFFFFFFFFFFFFFFFFFFF NOT AND DUP2 MSTORE PUSH1 0x20 ADD SWAP1 DUP2 MSTORE PUSH1 0x20 ADD PUSH0 KECCAK256 SLOAD DUP3 PUSH2 0x3F4 SWAP2 SWAP1 PUSH2 0xF6F JUMP JUMPDEST SWAP2 POP PUSH2 0x47B JUMP JUMPDEST PUSH0 DUP1 DUP5 DUP4 DUP2 MLOAD DUP2 LT PUSH2 0x410 JUMPI PUSH2 0x40F PUSH2 0xF42 JUMP JUMPDEST JUMPDEST PUSH1 0x20 ADD ADD MLOAD PUSH1 0xF8 SHR PUSH1 0xF8 SHL PUSH31 0xFFFFFFFFFFFFFFFFFFFFFFFFFFFFFFFFFFFFFFFFFFFFFFFFFFFFFFFFFFFFFF NOT AND PUSH31 0xFFFFFFFFFFFFFFFFFFFFFFFFFFFFFFFFFFFFFFFFFFFFFFFFFFFFFFFFFFFFFF NOT AND DUP2 MSTORE PUSH1 0x20 ADD SWAP1 DUP2 MSTORE PUSH1 0x20 ADD PUSH0 KECCAK256 SLOAD DUP3 PUSH2 0x478 SWAP2 SWAP1 PUSH2 0xFAF JUMP JUMPDEST SWAP2 POP JUMPDEST DUP1 DUP1 PUSH1 0x1 ADD SWAP2 POP POP PUSH2 0x26C JUMP JUMPDEST POP PUSH0 DUP1 DUP4 PUSH1 0x1 DUP6 MLOAD PUSH2 0x49A SWAP2 SWAP1 PUSH2 0xEDC JUMP JUMPDEST DUP2 MLOAD DUP2 LT PUSH2 0x4AB JUMPI PUSH2 0x4AA PUSH2 0xF42 JUMP JUMPDEST JUMPDEST PUSH1 0x20 ADD ADD MLOAD PUSH1 0xF8 SHR PUSH1 0xF8 SHL PUSH31 0xFFFFFFFFFFFFFFFFFFFFFFFFFFFFFFFFFFFFFFFFFFFFFFFFFFFFFFFFFFFFFF NOT AND PUSH31 0xFFFFFFFFFFFFFFFFFFFFFFFFFFFFFFFFFFFFFFFFFFFFFFFFFFFFFFFFFFFFFF NOT AND DUP2 MSTORE PUSH1 0x20 ADD SWAP1 DUP2 MSTORE PUSH1 0x20 ADD PUSH0 KECCAK256 SLOAD DUP2 PUSH2 0x513 SWAP2 SWAP1 PUSH2 0xFAF JUMP JUMPDEST SWAP1 POP DUP1 SWAP3 POP POP POP SWAP2 SWAP1 POP JUMP JUMPDEST PUSH1 0x60 PUSH0 PUSH2 0x3E8 DUP4 GT ISZERO PUSH2 0x57D JUMPI PUSH2 0x3E8 DUP4 PUSH2 0x53A SWAP2 SWAP1 PUSH2 0xEDC JUMP JUMPDEST SWAP3 POP DUP3 PUSH1 0x40 MLOAD DUP1 PUSH1 0x40 ADD PUSH1 0x40 MSTORE DUP1 PUSH1 0x1 DUP2 MSTORE PUSH1 0x20 ADD PUSH32 0x4D00000000000000000000000000000000000000000000000000000000000000 DUP2 MSTORE POP SWAP1 SWAP2 POP SWAP2 POP PUSH2 0x997 JUMP JUMPDEST PUSH2 0x384 DUP4 LT PUSH2 0x5D7 JUMPI PUSH2 0x384 DUP4 PUSH2 0x594 SWAP2 SWAP1 PUSH2 0xEDC JUMP JUMPDEST SWAP3 POP DUP3 PUSH1 0x40 MLOAD DUP1 PUSH1 0x40 ADD PUSH1 0x40 MSTORE DUP1 PUSH1 0x2 DUP2 MSTORE PUSH1 0x20 ADD PUSH32 0x434D000000000000000000000000000000000000000000000000000000000000 DUP2 MSTORE POP SWAP1 SWAP2 POP SWAP2 POP PUSH2 0x997 JUMP JUMPDEST PUSH2 0x1F4 DUP4 LT PUSH2 0x631 JUMPI PUSH2 0x1F4 DUP4 PUSH2 0x5EE SWAP2 SWAP1 PUSH2 0xEDC JUMP JUMPDEST SWAP3 POP DUP3 PUSH1 0x40 MLOAD DUP1 PUSH1 0x40 ADD PUSH1 0x40 MSTORE DUP1 PUSH1 0x1 DUP2 MSTORE PUSH1 0x20 ADD PUSH32 0x4400000000000000000000000000000000000000000000000000000000000000 DUP2 MSTORE POP SWAP1 SWAP2 POP SWAP2 POP PUSH2 0x997 JUMP JUMPDEST PUSH2 0x190 DUP4 LT PUSH2 0x68B JUMPI PUSH2 0x190 DUP4 PUSH2 0x648 SWAP2 SWAP1 PUSH2 0xEDC JUMP JUMPDEST SWAP3 POP DUP3 PUSH1 0x40 MLOAD DUP1 PUSH1 0x40 ADD PUSH1 0x40 MSTORE DUP1 PUSH1 0x2 DUP2 MSTORE PUSH1 0x20 ADD PUSH32 0x4344000000000000000000000000000000000000000000000000000000000000 DUP2 MSTORE POP SWAP1 SWAP2 POP SWAP2 POP PUSH2 0x997 JUMP JUMPDEST PUSH1 0x64 DUP4 LT PUSH2 0x6E3 JUMPI PUSH1 0x64 DUP4 PUSH2 0x6A0 SWAP2 SWAP1 PUSH2 0xEDC JUMP JUMPDEST SWAP3 POP DUP3 PUSH1 0x40 MLOAD DUP1 PUSH1 0x40 ADD PUSH1 0x40 MSTORE DUP1 PUSH1 0x1 DUP2 MSTORE PUSH1 0x20 ADD PUSH32 0x4300000000000000000000000000000000000000000000000000000000000000 DUP2 MSTORE POP SWAP1 SWAP2 POP SWAP2 POP PUSH2 0x997 JUMP JUMPDEST PUSH1 0x5A DUP4 LT PUSH2 0x73B JUMPI PUSH1 0x5A DUP4 PUSH2 0x6F8 SWAP2 SWAP1 PUSH2 0xEDC JUMP JUMPDEST SWAP3 POP DUP3 PUSH1 0x40 MLOAD DUP1 PUSH1 0x40 ADD PUSH1 0x40 MSTORE DUP1 PUSH1 0x2 DUP2 MSTORE PUSH1 0x20 ADD PUSH32 0x5843000000000000000000000000000000000000000000000000000000000000 DUP2 MSTORE POP SWAP1 SWAP2 POP SWAP2 POP PUSH2 0x997 JUMP JUMPDEST PUSH1 0x32 DUP4 LT PUSH2 0x793 JUMPI PUSH1 0x32 DUP4 PUSH2 0x750 SWAP2 SWAP1 PUSH2 0xEDC JUMP JUMPDEST SWAP3 POP DUP3 PUSH1 0x40 MLOAD DUP1 PUSH1 0x40 ADD PUSH1 0x40 MSTORE DUP1 PUSH1 0x1 DUP2 MSTORE PUSH1 0x20 ADD PUSH32 0x4C00000000000000000000000000000000000000000000000000000000000000 DUP2 MSTORE POP SWAP1 SWAP2 POP SWAP2 POP PUSH2 0x997 JUMP JUMPDEST PUSH1 0x28 DUP4 LT PUSH2 0x7EB JUMPI PUSH1 0x28 DUP4 PUSH2 0x7A8 SWAP2 SWAP1 PUSH2 0xEDC JUMP JUMPDEST SWAP3 POP DUP3 PUSH1 0x40 MLOAD DUP1 PUSH1 0x40 ADD PUSH1 0x40 MSTORE DUP1 PUSH1 0x2 DUP2 MSTORE PUSH1 0x20 ADD PUSH32 0x584C000000000000000000000000000000000000000000000000000000000000 DUP2 MSTORE POP SWAP1 SWAP2 POP SWAP2 POP PUSH2 0x997 JUMP JUMPDEST PUSH1 0xA DUP4 LT PUSH2 0x843 JUMPI PUSH1 0xA DUP4 PUSH2 0x800 SWAP2 SWAP1 PUSH2 0xEDC JUMP JUMPDEST SWAP3 POP DUP3 PUSH1 0x40 MLOAD DUP1 PUSH1 0x40 ADD PUSH1 0x40 MSTORE DUP1 PUSH1 0x1 DUP2 MSTORE PUSH1 0x20 ADD PUSH32 0x5800000000000000000000000000000000000000000000000000000000000000 DUP2 MSTORE POP SWAP1 SWAP2 POP SWAP2 POP PUSH2 0x997 JUMP JUMPDEST PUSH1 0x9 DUP4 LT PUSH2 0x89B JUMPI PUSH1 0x9 DUP4 PUSH2 0x858 SWAP2 SWAP1 PUSH2 0xEDC JUMP JUMPDEST SWAP3 POP DUP3 PUSH1 0x40 MLOAD DUP1 PUSH1 0x40 ADD PUSH1 0x40 MSTORE DUP1 PUSH1 0x2 DUP2 MSTORE PUSH1 0x20 ADD PUSH32 0x4958000000000000000000000000000000000000000000000000000000000000 DUP2 MSTORE POP SWAP1 SWAP2 POP SWAP2 POP PUSH2 0x997 JUMP JUMPDEST PUSH1 0x5 DUP4 LT PUSH2 0x8F3 JUMPI PUSH1 0x5 DUP4 PUSH2 0x8B0 SWAP2 SWAP1 PUSH2 0xEDC JUMP JUMPDEST SWAP3 POP DUP3 PUSH1 0x40 MLOAD DUP1 PUSH1 0x40 ADD PUSH1 0x40 MSTORE DUP1 PUSH1 0x1 DUP2 MSTORE PUSH1 0x20 ADD PUSH32 0x5600000000000000000000000000000000000000000000000000000000000000 DUP2 MSTORE POP SWAP1 SWAP2 POP SWAP2 POP PUSH2 0x997 JUMP JUMPDEST PUSH1 0x4 DUP4 LT PUSH2 0x94B JUMPI PUSH1 0x4 DUP4 PUSH2 0x908 SWAP2 SWAP1 PUSH2 0xEDC JUMP JUMPDEST SWAP3 POP DUP3 PUSH1 0x40 MLOAD DUP1 PUSH1 0x40 ADD PUSH1 0x40 MSTORE DUP1 PUSH1 0x2 DUP2 MSTORE PUSH1 0x20 ADD PUSH32 0x4956000000000000000000000000000000000000000000000000000000000000 DUP2 MSTORE POP SWAP1 SWAP2 POP SWAP2 POP PUSH2 0x997 JUMP JUMPDEST PUSH1 0x1 DUP4 PUSH2 0x958 SWAP2 SWAP1 PUSH2 0xEDC JUMP JUMPDEST SWAP3 POP DUP3 PUSH1 0x40 MLOAD DUP1 PUSH1 0x40 ADD PUSH1 0x40 MSTORE DUP1 PUSH1 0x1 DUP2 MSTORE PUSH1 0x20 ADD PUSH32 0x4900000000000000000000000000000000000000000000000000000000000000 DUP2 MSTORE POP SWAP1 SWAP2 POP SWAP2 POP JUMPDEST SWAP2 POP SWAP2 JUMP JUMPDEST PUSH0 PUSH32 0x4900000000000000000000000000000000000000000000000000000000000000 DUP3 PUSH31 0xFFFFFFFFFFFFFFFFFFFFFFFFFFFFFFFFFFFFFFFFFFFFFFFFFFFFFFFFFFFFFF NOT AND SUB PUSH2 0x9EF JUMPI PUSH1 0x1 SWAP1 POP PUSH2 0xB90 JUMP JUMPDEST PUSH32 0x5600000000000000000000000000000000000000000000000000000000000000 DUP3 PUSH31 0xFFFFFFFFFFFFFFFFFFFFFFFFFFFFFFFFFFFFFFFFFFFFFFFFFFFFFFFFFFFFFF NOT AND SUB PUSH2 0xA41 JUMPI PUSH1 0x5 SWAP1 POP PUSH2 0xB90 JUMP JUMPDEST PUSH32 0x5800000000000000000000000000000000000000000000000000000000000000 DUP3 PUSH31 0xFFFFFFFFFFFFFFFFFFFFFFFFFFFFFFFFFFFFFFFFFFFFFFFFFFFFFFFFFFFFFF NOT AND SUB PUSH2 0xA93 JUMPI PUSH1 0xA SWAP1 POP PUSH2 0xB90 JUMP JUMPDEST PUSH32 0x4C00000000000000000000000000000000000000000000000000000000000000 DUP3 PUSH31 0xFFFFFFFFFFFFFFFFFFFFFFFFFFFFFFFFFFFFFFFFFFFFFFFFFFFFFFFFFFFFFF NOT AND SUB PUSH2 0xAE5 JUMPI PUSH1 0x32 SWAP1 POP PUSH2 0xB90 JUMP JUMPDEST PUSH32 0x4300000000000000000000000000000000000000000000000000000000000000 DUP3 PUSH31 0xFFFFFFFFFFFFFFFFFFFFFFFFFFFFFFFFFFFFFFFFFFFFFFFFFFFFFFFFFFFFFF NOT AND SUB PUSH2 0xB37 JUMPI PUSH1 0x64 SWAP1 POP PUSH2 0xB90 JUMP JUMPDEST PUSH32 0x4400000000000000000000000000000000000000000000000000000000000000 DUP3 PUSH31 0xFFFFFFFFFFFFFFFFFFFFFFFFFFFFFFFFFFFFFFFFFFFFFFFFFFFFFFFFFFFFFF NOT AND SUB PUSH2 0xB8A JUMPI PUSH2 0x1F4 SWAP1 POP PUSH2 0xB90 JUMP JUMPDEST PUSH2 0x3E8 SWAP1 POP JUMPDEST SWAP2 SWAP1 POP JUMP JUMPDEST PUSH0 PUSH1 0x40 MLOAD SWAP1 POP SWAP1 JUMP JUMPDEST PUSH0 DUP1 REVERT JUMPDEST PUSH0 DUP1 REVERT JUMPDEST PUSH0 DUP2 SWAP1 POP SWAP2 SWAP1 POP JUMP JUMPDEST PUSH2 0xBB8 DUP2 PUSH2 0xBA6 JUMP JUMPDEST DUP2 EQ PUSH2 0xBC2 JUMPI PUSH0 DUP1 REVERT JUMPDEST POP JUMP JUMPDEST PUSH0 DUP2 CALLDATALOAD SWAP1 POP PUSH2 0xBD3 DUP2 PUSH2 0xBAF JUMP JUMPDEST SWAP3 SWAP2 POP POP JUMP JUMPDEST PUSH0 PUSH1 0x20 DUP3 DUP5 SUB SLT ISZERO PUSH2 0xBEE JUMPI PUSH2 0xBED PUSH2 0xB9E JUMP JUMPDEST JUMPDEST PUSH0 PUSH2 0xBFB DUP5 DUP3 DUP6 ADD PUSH2 0xBC5 JUMP JUMPDEST SWAP2 POP POP SWAP3 SWAP2 POP POP JUMP JUMPDEST PUSH0 DUP2 MLOAD SWAP1 POP SWAP2 SWAP1 POP JUMP JUMPDEST PUSH0 DUP3 DUP3 MSTORE PUSH1 0x20 DUP3 ADD SWAP1 POP SWAP3 SWAP2 POP POP JUMP JUMPDEST PUSH0 JUMPDEST DUP4 DUP2 LT ISZERO PUSH2 0xC3B JUMPI DUP1 DUP3 ADD MLOAD DUP2 DUP5 ADD MSTORE PUSH1 0x20 DUP2 ADD SWAP1 POP PUSH2 0xC20 JUMP JUMPDEST PUSH0 DUP5 DUP5 ADD MSTORE POP POP POP POP JUMP JUMPDEST PUSH0 PUSH1 0x1F NOT PUSH1 0x1F DUP4 ADD AND SWAP1 POP SWAP2 SWAP1 POP JUMP JUMPDEST PUSH0 PUSH2 0xC60 DUP3 PUSH2 0xC04 JUMP JUMPDEST PUSH2 0xC6A DUP2 DUP6 PUSH2 0xC0E JUMP JUMPDEST SWAP4 POP PUSH2 0xC7A DUP2 DUP6 PUSH1 0x20 DUP7 ADD PUSH2 0xC1E JUMP JUMPDEST PUSH2 0xC83 DUP2 PUSH2 0xC46 JUMP JUMPDEST DUP5 ADD SWAP2 POP POP SWAP3 SWAP2 POP POP JUMP JUMPDEST PUSH0 PUSH1 0x20 DUP3 ADD SWAP1 POP DUP2 DUP2 SUB PUSH0 DUP4 ADD MSTORE PUSH2 0xCA6 DUP2 DUP5 PUSH2 0xC56 JUMP JUMPDEST SWAP1 POP SWAP3 SWAP2 POP POP JUMP JUMPDEST PUSH0 DUP1 REVERT JUMPDEST PUSH0 DUP1 REVERT JUMPDEST PUSH32 0x4E487B7100000000000000000000000000000000000000000000000000000000 PUSH0 MSTORE PUSH1 0x41 PUSH1 0x4 MSTORE PUSH1 0x24 PUSH0 REVERT JUMPDEST PUSH2 0xCEC DUP3 PUSH2 0xC46 JUMP JUMPDEST DUP2 ADD DUP2 DUP2 LT PUSH8 0xFFFFFFFFFFFFFFFF DUP3 GT OR ISZERO PUSH2 0xD0B JUMPI PUSH2 0xD0A PUSH2 0xCB6 JUMP JUMPDEST JUMPDEST DUP1 PUSH1 0x40 MSTORE POP POP POP JUMP JUMPDEST PUSH0 PUSH2 0xD1D PUSH2 0xB95 JUMP JUMPDEST SWAP1 POP PUSH2 0xD29 DUP3 DUP3 PUSH2 0xCE3 JUMP JUMPDEST SWAP2 SWAP1 POP JUMP JUMPDEST PUSH0 PUSH8 0xFFFFFFFFFFFFFFFF DUP3 GT ISZERO PUSH2 0xD48 JUMPI PUSH2 0xD47 PUSH2 0xCB6 JUMP JUMPDEST JUMPDEST PUSH2 0xD51 DUP3 PUSH2 0xC46 JUMP JUMPDEST SWAP1 POP PUSH1 0x20 DUP2 ADD SWAP1 POP SWAP2 SWAP1 POP JUMP JUMPDEST DUP3 DUP2 DUP4 CALLDATACOPY PUSH0 DUP4 DUP4 ADD MSTORE POP POP POP JUMP JUMPDEST PUSH0 PUSH2 0xD7E PUSH2 0xD79 DUP5 PUSH2 0xD2E JUMP JUMPDEST PUSH2 0xD14 JUMP JUMPDEST SWAP1 POP DUP3 DUP2 MSTORE PUSH1 0x20 DUP2 ADD DUP5 DUP5 DUP5 ADD GT ISZERO PUSH2 0xD9A JUMPI PUSH2 0xD99 PUSH2 0xCB2 JUMP JUMPDEST JUMPDEST PUSH2 0xDA5 DUP5 DUP3 DUP6 PUSH2 0xD5E JUMP JUMPDEST POP SWAP4 SWAP3 POP POP POP JUMP JUMPDEST PUSH0 DUP3 PUSH1 0x1F DUP4 ADD SLT PUSH2 0xDC1 JUMPI PUSH2 0xDC0 PUSH2 0xCAE JUMP JUMPDEST JUMPDEST DUP2 CALLDATALOAD PUSH2 0xDD1 DUP5 DUP3 PUSH1 0x20 DUP7 ADD PUSH2 0xD6C JUMP JUMPDEST SWAP2 POP POP SWAP3 SWAP2 POP POP JUMP JUMPDEST PUSH0 PUSH1 0x20 DUP3 DUP5 SUB SLT ISZERO PUSH2 0xDEF JUMPI PUSH2 0xDEE PUSH2 0xB9E JUMP JUMPDEST JUMPDEST PUSH0 DUP3 ADD CALLDATALOAD PUSH8 0xFFFFFFFFFFFFFFFF DUP2 GT ISZERO PUSH2 0xE0C JUMPI PUSH2 0xE0B PUSH2 0xBA2 JUMP JUMPDEST JUMPDEST PUSH2 0xE18 DUP5 DUP3 DUP6 ADD PUSH2 0xDAD JUMP JUMPDEST SWAP2 POP POP SWAP3 SWAP2 POP POP JUMP JUMPDEST PUSH0 DUP2 SWAP1 POP SWAP2 SWAP1 POP JUMP JUMPDEST PUSH2 0xE33 DUP2 PUSH2 0xE21 JUMP JUMPDEST DUP3 MSTORE POP POP JUMP JUMPDEST PUSH0 PUSH1 0x20 DUP3 ADD SWAP1 POP PUSH2 0xE4C PUSH0 DUP4 ADD DUP5 PUSH2 0xE2A JUMP JUMPDEST SWAP3 SWAP2 POP POP JUMP JUMPDEST PUSH0 DUP2 SWAP1 POP SWAP3 SWAP2 POP POP JUMP JUMPDEST PUSH0 PUSH2 0xE66 DUP3 PUSH2 0xC04 JUMP JUMPDEST PUSH2 0xE70 DUP2 DUP6 PUSH2 0xE52 JUMP JUMPDEST SWAP4 POP PUSH2 0xE80 DUP2 DUP6 PUSH1 0x20 DUP7 ADD PUSH2 0xC1E JUMP JUMPDEST DUP1 DUP5 ADD SWAP2 POP POP SWAP3 SWAP2 POP POP JUMP JUMPDEST PUSH0 PUSH2 0xE97 DUP3 DUP6 PUSH2 0xE5C JUMP JUMPDEST SWAP2 POP PUSH2 0xEA3 DUP3 DUP5 PUSH2 0xE5C JUMP JUMPDEST SWAP2 POP DUP2 SWAP1 POP SWAP4 SWAP3 POP POP POP JUMP JUMPDEST PUSH32 0x4E487B7100000000000000000000000000000000000000000000000000000000 PUSH0 MSTORE PUSH1 0x11 PUSH1 0x4 MSTORE PUSH1 0x24 PUSH0 REVERT JUMPDEST PUSH0 PUSH2 0xEE6 DUP3 PUSH2 0xBA6 JUMP JUMPDEST SWAP2 POP PUSH2 0xEF1 DUP4 PUSH2 0xBA6 JUMP JUMPDEST SWAP3 POP DUP3 DUP3 SUB SWAP1 POP DUP2 DUP2 GT ISZERO PUSH2 0xF09 JUMPI PUSH2 0xF08 PUSH2 0xEAF JUMP JUMPDEST JUMPDEST SWAP3 SWAP2 POP POP JUMP JUMPDEST PUSH0 PUSH2 0xF19 DUP3 PUSH2 0xBA6 JUMP JUMPDEST SWAP2 POP PUSH2 0xF24 DUP4 PUSH2 0xBA6 JUMP JUMPDEST SWAP3 POP DUP3 DUP3 ADD SWAP1 POP DUP1 DUP3 GT ISZERO PUSH2 0xF3C JUMPI PUSH2 0xF3B PUSH2 0xEAF JUMP JUMPDEST JUMPDEST SWAP3 SWAP2 POP POP JUMP JUMPDEST PUSH32 0x4E487B7100000000000000000000000000000000000000000000000000000000 PUSH0 MSTORE PUSH1 0x32 PUSH1 0x4 MSTORE PUSH1 0x24 PUSH0 REVERT JUMPDEST PUSH0 PUSH2 0xF79 DUP3 PUSH2 0xE21 JUMP JUMPDEST SWAP2 POP PUSH2 0xF84 DUP4 PUSH2 0xE21 JUMP JUMPDEST SWAP3 POP DUP3 DUP3 SUB SWAP1 POP DUP2 DUP2 SLT PUSH0 DUP5 SLT AND DUP3 DUP3 SGT PUSH0 DUP6 SLT ISZERO AND OR ISZERO PUSH2 0xFA9 JUMPI PUSH2 0xFA8 PUSH2 0xEAF JUMP JUMPDEST JUMPDEST SWAP3 SWAP2 POP POP JUMP JUMPDEST PUSH0 PUSH2 0xFB9 DUP3 PUSH2 0xE21 JUMP JUMPDEST SWAP2 POP PUSH2 0xFC4 DUP4 PUSH2 0xE21 JUMP JUMPDEST SWAP3 POP DUP3 DUP3 ADD SWAP1 POP DUP3 DUP2 SLT ISZERO PUSH0 DUP4 SLT AND DUP4 DUP3 SLT PUSH0 DUP5 SLT ISZERO AND OR ISZERO PUSH2 0xFEA JUMPI PUSH2 0xFE9 PUSH2 0xEAF JUMP JUMPDEST JUMPDEST SWAP3 SWAP2 POP POP JUMP INVALID LOG2 PUSH5 0x6970667358 0x22 SLT KECCAK256 EXTCODECOPY 0xD1 PC BLOBBASEFEE 0xE6 SWAP2 0x2C PUSH22 0xBB03A3C77A2B1D7BB15DBB112F4E5F66F5A9A442AD5E 0x21 PUSH29 0x64736F6C634300081A0033000000000000000000000000000000000000 "
				},
				"gasEstimates": {
					"creation": {
						"codeDepositCost": "826800",
						"executionCost": "156255",
						"totalCost": "983055"
					},
					"external": {
						"intToRoman(uint256)": "infinite",
						"romanToInt(string)": "infinite",
						"romanToInt1(string)": "infinite"
					},
					"internal": {
						"getNum(bytes1)": "230",
						"getRom(uint256)": "infinite"
					}
				},
				"methodIdentifiers": {
					"intToRoman(uint256)": "0cbc513a",
					"romanToInt(string)": "cb159dfe",
					"romanToInt1(string)": "2ab6faca"
				}
			},
			"storageLayout": {
				"storage": [
					{
						"astId": 5,
						"contract": "contracts/home_work/question_3.sol:Question3",
						"label": "dic",
						"offset": 0,
						"slot": "0",
						"type": "t_mapping(t_bytes1,t_int256)"
					}
				],
				"types": {
					"t_bytes1": {
						"encoding": "inplace",
						"label": "bytes1",
						"numberOfBytes": "1"
					},
					"t_int256": {
						"encoding": "inplace",
						"label": "int256",
						"numberOfBytes": "32"
					},
					"t_mapping(t_bytes1,t_int256)": {
						"encoding": "mapping",
						"key": "t_bytes1",
						"label": "mapping(bytes1 => int256)",
						"numberOfBytes": "32",
						"value": "t_int256"
					}
				}
			},
			"userdoc": {
				"kind": "user",
				"methods": {},
				"version": 1
			}
		}
	}
}