{
	"contracts/SendEther.sol": {
		"SendEther": {
			"abi": [
				{
					"inputs": [],
					"stateMutability": "payable",
					"type": "constructor"
				},
				{
					"inputs": [
						{
							"internalType": "address payable",
							"name": "_to",
							"type": "address"
						}
					],
					"name": "call",
					"outputs": [],
					"stateMutability": "payable",
					"type": "function"
				},
				{
					"inputs": [
						{
							"internalType": "address payable",
							"name": "_to",
							"type": "address"
						}
					],
					"name": "send",
					"outputs": [],
					"stateMutability": "payable",
					"type": "function"
				},
				{
					"inputs": [
						{
							"internalType": "address payable",
							"name": "_to",
							"type": "address"
						}
					],
					"name": "tracfer",
					"outputs": [],
					"stateMutability": "payable",
					"type": "function"
				},
				{
					"stateMutability": "payable",
					"type": "receive"
				}
			],
			"devdoc": {
				"kind": "dev",
				"methods": {},
				"version": 1
			},
			"evm": {
				"assembly": "    /* \"contracts/SendEther.sol\":63:562  contract SendEther {... */\n  mstore(0x40, 0x80)\n  dataSize(sub_0)\n  dup1\n  dataOffset(sub_0)\n  0x00\n  codecopy\n  0x00\n  return\nstop\n\nsub_0: assembly {\n        /* \"contracts/SendEther.sol\":63:562  contract SendEther {... */\n      mstore(0x40, 0x80)\n      jumpi(tag_1, lt(calldatasize, 0x04))\n      shr(0xe0, calldataload(0x00))\n      dup1\n      0x3e58c58c\n      eq\n      tag_3\n      jumpi\n      dup1\n      0xbd6435a7\n      eq\n      tag_4\n      jumpi\n      dup1\n      0xf55332ab\n      eq\n      tag_5\n      jumpi\n      jump(tag_2)\n    tag_1:\n      jumpi(tag_2, calldatasize)\n      stop\n    tag_2:\n      0x00\n      dup1\n      revert\n        /* \"contracts/SendEther.sol\":271:405  function send(address payable  _to) external payable {... */\n    tag_3:\n      tag_8\n      0x04\n      dup1\n      calldatasize\n      sub\n      dup2\n      add\n      swap1\n      tag_9\n      swap2\n      swap1\n      tag_10\n      jump\t// in\n    tag_9:\n      tag_11\n      jump\t// in\n    tag_8:\n      stop\n        /* \"contracts/SendEther.sol\":167:263  function tracfer(address payable _to) external payable { ... */\n    tag_4:\n      tag_12\n      0x04\n      dup1\n      calldatasize\n      sub\n      dup2\n      add\n      swap1\n      tag_13\n      swap2\n      swap1\n      tag_10\n      jump\t// in\n    tag_13:\n      tag_14\n      jump\t// in\n    tag_12:\n      stop\n        /* \"contracts/SendEther.sol\":413:555  function call(address payable _to) external payable  {... */\n    tag_5:\n      tag_15\n      0x04\n      dup1\n      calldatasize\n      sub\n      dup2\n      add\n      swap1\n      tag_16\n      swap2\n      swap1\n      tag_10\n      jump\t// in\n    tag_16:\n      tag_17\n      jump\t// in\n    tag_15:\n      stop\n        /* \"contracts/SendEther.sol\":271:405  function send(address payable  _to) external payable {... */\n    tag_11:\n        /* \"contracts/SendEther.sol\":335:341  bool s */\n      0x00\n        /* \"contracts/SendEther.sol\":343:346  _to */\n      dup2\n        /* \"contracts/SendEther.sol\":343:351  _to.send */\n      0xffffffffffffffffffffffffffffffffffffffff\n      and\n        /* \"contracts/SendEther.sol\":343:362  _to.send(msg.value) */\n      0x08fc\n        /* \"contracts/SendEther.sol\":352:361  msg.value */\n      callvalue\n        /* \"contracts/SendEther.sol\":343:362  _to.send(msg.value) */\n      swap1\n      dup2\n      iszero\n      mul\n      swap1\n      mload(0x40)\n      0x00\n      mload(0x40)\n      dup1\n      dup4\n      sub\n      dup2\n      dup6\n      dup9\n      dup9\n      call\n      swap4\n      pop\n      pop\n      pop\n      pop\n        /* \"contracts/SendEther.sol\":335:362  bool s =_to.send(msg.value) */\n      swap1\n      pop\n        /* \"contracts/SendEther.sol\":381:382  s */\n      dup1\n        /* \"contracts/SendEther.sol\":373:397  require(s,\"send failed\") */\n      tag_20\n      jumpi\n      mload(0x40)\n      0x08c379a000000000000000000000000000000000000000000000000000000000\n      dup2\n      mstore\n      0x04\n      add\n      tag_21\n      swap1\n      tag_22\n      jump\t// in\n    tag_21:\n      mload(0x40)\n      dup1\n      swap2\n      sub\n      swap1\n      revert\n    tag_20:\n        /* \"contracts/SendEther.sol\":324:405  {... */\n      pop\n        /* \"contracts/SendEther.sol\":271:405  function send(address payable  _to) external payable {... */\n      pop\n      jump\t// out\n        /* \"contracts/SendEther.sol\":167:263  function tracfer(address payable _to) external payable { ... */\n    tag_14:\n        /* \"contracts/SendEther.sol\":234:237  _to */\n      dup1\n        /* \"contracts/SendEther.sol\":234:246  _to.transfer */\n      0xffffffffffffffffffffffffffffffffffffffff\n      and\n        /* \"contracts/SendEther.sol\":234:255  _to.transfer(123 wei) */\n      0x08fc\n        /* \"contracts/SendEther.sol\":247:254  123 wei */\n      0x7b\n        /* \"contracts/SendEther.sol\":234:255  _to.transfer(123 wei) */\n      swap1\n      dup2\n      iszero\n      mul\n      swap1\n      mload(0x40)\n      0x00\n      mload(0x40)\n      dup1\n      dup4\n      sub\n      dup2\n      dup6\n      dup9\n      dup9\n      call\n      swap4\n      pop\n      pop\n      pop\n      pop\n      iszero\n      dup1\n      iszero\n      tag_25\n      jumpi\n      returndatasize\n      0x00\n      dup1\n      returndatacopy\n      revert(0x00, returndatasize)\n    tag_25:\n      pop\n        /* \"contracts/SendEther.sol\":167:263  function tracfer(address payable _to) external payable { ... */\n      pop\n      jump\t// out\n        /* \"contracts/SendEther.sol\":413:555  function call(address payable _to) external payable  {... */\n    tag_17:\n        /* \"contracts/SendEther.sol\":478:484  bool s */\n      0x00\n        /* \"contracts/SendEther.sol\":489:492  _to */\n      dup2\n        /* \"contracts/SendEther.sol\":489:497  _to.call */\n      0xffffffffffffffffffffffffffffffffffffffff\n      and\n        /* \"contracts/SendEther.sol\":504:507  222 */\n      0xde\n        /* \"contracts/SendEther.sol\":489:512  _to.call{value:222}(\"\") */\n      mload(0x40)\n      tag_27\n      swap1\n      tag_28\n      jump\t// in\n    tag_27:\n      0x00\n      mload(0x40)\n      dup1\n      dup4\n      sub\n      dup2\n      dup6\n      dup8\n      gas\n      call\n      swap3\n      pop\n      pop\n      pop\n      returndatasize\n      dup1\n      0x00\n      dup2\n      eq\n      tag_31\n      jumpi\n      mload(0x40)\n      swap2\n      pop\n      and(add(returndatasize, 0x3f), not(0x1f))\n      dup3\n      add\n      0x40\n      mstore\n      returndatasize\n      dup3\n      mstore\n      returndatasize\n      0x00\n      0x20\n      dup5\n      add\n      returndatacopy\n      jump(tag_30)\n    tag_31:\n      0x60\n      swap2\n      pop\n    tag_30:\n      pop\n        /* \"contracts/SendEther.sol\":477:512  (bool s,) = _to.call{value:222}(\"\") */\n      pop\n      swap1\n      pop\n        /* \"contracts/SendEther.sol\":531:532  s */\n      dup1\n        /* \"contracts/SendEther.sol\":523:547  require(s,\"call failed\") */\n      tag_32\n      jumpi\n      mload(0x40)\n      0x08c379a000000000000000000000000000000000000000000000000000000000\n      dup2\n      mstore\n      0x04\n      add\n      tag_33\n      swap1\n      tag_34\n      jump\t// in\n    tag_33:\n      mload(0x40)\n      dup1\n      swap2\n      sub\n      swap1\n      revert\n    tag_32:\n        /* \"contracts/SendEther.sol\":466:555  {... */\n      pop\n        /* \"contracts/SendEther.sol\":413:555  function call(address payable _to) external payable  {... */\n      pop\n      jump\t// out\n        /* \"#utility.yul\":88:205   */\n    tag_36:\n        /* \"#utility.yul\":197:198   */\n      0x00\n        /* \"#utility.yul\":194:195   */\n      dup1\n        /* \"#utility.yul\":187:199   */\n      revert\n        /* \"#utility.yul\":334:460   */\n    tag_38:\n        /* \"#utility.yul\":371:378   */\n      0x00\n        /* \"#utility.yul\":411:453   */\n      0xffffffffffffffffffffffffffffffffffffffff\n        /* \"#utility.yul\":404:409   */\n      dup3\n        /* \"#utility.yul\":400:454   */\n      and\n        /* \"#utility.yul\":389:454   */\n      swap1\n      pop\n        /* \"#utility.yul\":334:460   */\n      swap2\n      swap1\n      pop\n      jump\t// out\n        /* \"#utility.yul\":466:570   */\n    tag_39:\n        /* \"#utility.yul\":511:518   */\n      0x00\n        /* \"#utility.yul\":540:564   */\n      tag_56\n        /* \"#utility.yul\":558:563   */\n      dup3\n        /* \"#utility.yul\":540:564   */\n      tag_38\n      jump\t// in\n    tag_56:\n        /* \"#utility.yul\":529:564   */\n      swap1\n      pop\n        /* \"#utility.yul\":466:570   */\n      swap2\n      swap1\n      pop\n      jump\t// out\n        /* \"#utility.yul\":576:714   */\n    tag_40:\n        /* \"#utility.yul\":657:689   */\n      tag_58\n        /* \"#utility.yul\":683:688   */\n      dup2\n        /* \"#utility.yul\":657:689   */\n      tag_39\n      jump\t// in\n    tag_58:\n        /* \"#utility.yul\":650:655   */\n      dup2\n        /* \"#utility.yul\":647:690   */\n      eq\n        /* \"#utility.yul\":637:708   */\n      tag_59\n      jumpi\n        /* \"#utility.yul\":704:705   */\n      0x00\n        /* \"#utility.yul\":701:702   */\n      dup1\n        /* \"#utility.yul\":694:706   */\n      revert\n        /* \"#utility.yul\":637:708   */\n    tag_59:\n        /* \"#utility.yul\":576:714   */\n      pop\n      jump\t// out\n        /* \"#utility.yul\":720:875   */\n    tag_41:\n        /* \"#utility.yul\":774:779   */\n      0x00\n        /* \"#utility.yul\":812:818   */\n      dup2\n        /* \"#utility.yul\":799:819   */\n      calldataload\n        /* \"#utility.yul\":790:819   */\n      swap1\n      pop\n        /* \"#utility.yul\":828:869   */\n      tag_61\n        /* \"#utility.yul\":863:868   */\n      dup2\n        /* \"#utility.yul\":828:869   */\n      tag_40\n      jump\t// in\n    tag_61:\n        /* \"#utility.yul\":720:875   */\n      swap3\n      swap2\n      pop\n      pop\n      jump\t// out\n        /* \"#utility.yul\":881:1226   */\n    tag_10:\n        /* \"#utility.yul\":948:954   */\n      0x00\n        /* \"#utility.yul\":997:999   */\n      0x20\n        /* \"#utility.yul\":985:994   */\n      dup3\n        /* \"#utility.yul\":976:983   */\n      dup5\n        /* \"#utility.yul\":972:995   */\n      sub\n        /* \"#utility.yul\":968:1000   */\n      slt\n        /* \"#utility.yul\":965:1084   */\n      iszero\n      tag_63\n      jumpi\n        /* \"#utility.yul\":1003:1082   */\n      tag_64\n      tag_36\n      jump\t// in\n    tag_64:\n        /* \"#utility.yul\":965:1084   */\n    tag_63:\n        /* \"#utility.yul\":1123:1124   */\n      0x00\n        /* \"#utility.yul\":1148:1209   */\n      tag_65\n        /* \"#utility.yul\":1201:1208   */\n      dup5\n        /* \"#utility.yul\":1192:1198   */\n      dup3\n        /* \"#utility.yul\":1181:1190   */\n      dup6\n        /* \"#utility.yul\":1177:1199   */\n      add\n        /* \"#utility.yul\":1148:1209   */\n      tag_41\n      jump\t// in\n    tag_65:\n        /* \"#utility.yul\":1138:1209   */\n      swap2\n      pop\n        /* \"#utility.yul\":1094:1219   */\n      pop\n        /* \"#utility.yul\":881:1226   */\n      swap3\n      swap2\n      pop\n      pop\n      jump\t// out\n        /* \"#utility.yul\":1232:1401   */\n    tag_42:\n        /* \"#utility.yul\":1316:1327   */\n      0x00\n        /* \"#utility.yul\":1350:1356   */\n      dup3\n        /* \"#utility.yul\":1345:1348   */\n      dup3\n        /* \"#utility.yul\":1338:1357   */\n      mstore\n        /* \"#utility.yul\":1390:1394   */\n      0x20\n        /* \"#utility.yul\":1385:1388   */\n      dup3\n        /* \"#utility.yul\":1381:1395   */\n      add\n        /* \"#utility.yul\":1366:1395   */\n      swap1\n      pop\n        /* \"#utility.yul\":1232:1401   */\n      swap3\n      swap2\n      pop\n      pop\n      jump\t// out\n        /* \"#utility.yul\":1407:1568   */\n    tag_43:\n        /* \"#utility.yul\":1547:1560   */\n      0x73656e64206661696c6564000000000000000000000000000000000000000000\n        /* \"#utility.yul\":1543:1544   */\n      0x00\n        /* \"#utility.yul\":1535:1541   */\n      dup3\n        /* \"#utility.yul\":1531:1545   */\n      add\n        /* \"#utility.yul\":1524:1561   */\n      mstore\n        /* \"#utility.yul\":1407:1568   */\n      pop\n      jump\t// out\n        /* \"#utility.yul\":1574:1940   */\n    tag_44:\n        /* \"#utility.yul\":1716:1719   */\n      0x00\n        /* \"#utility.yul\":1737:1804   */\n      tag_69\n        /* \"#utility.yul\":1801:1803   */\n      0x0b\n        /* \"#utility.yul\":1796:1799   */\n      dup4\n        /* \"#utility.yul\":1737:1804   */\n      tag_42\n      jump\t// in\n    tag_69:\n        /* \"#utility.yul\":1730:1804   */\n      swap2\n      pop\n        /* \"#utility.yul\":1813:1906   */\n      tag_70\n        /* \"#utility.yul\":1902:1905   */\n      dup3\n        /* \"#utility.yul\":1813:1906   */\n      tag_43\n      jump\t// in\n    tag_70:\n        /* \"#utility.yul\":1931:1933   */\n      0x20\n        /* \"#utility.yul\":1926:1929   */\n      dup3\n        /* \"#utility.yul\":1922:1934   */\n      add\n        /* \"#utility.yul\":1915:1934   */\n      swap1\n      pop\n        /* \"#utility.yul\":1574:1940   */\n      swap2\n      swap1\n      pop\n      jump\t// out\n        /* \"#utility.yul\":1946:2365   */\n    tag_22:\n        /* \"#utility.yul\":2112:2116   */\n      0x00\n        /* \"#utility.yul\":2150:2152   */\n      0x20\n        /* \"#utility.yul\":2139:2148   */\n      dup3\n        /* \"#utility.yul\":2135:2153   */\n      add\n        /* \"#utility.yul\":2127:2153   */\n      swap1\n      pop\n        /* \"#utility.yul\":2199:2208   */\n      dup2\n        /* \"#utility.yul\":2193:2197   */\n      dup2\n        /* \"#utility.yul\":2189:2209   */\n      sub\n        /* \"#utility.yul\":2185:2186   */\n      0x00\n        /* \"#utility.yul\":2174:2183   */\n      dup4\n        /* \"#utility.yul\":2170:2187   */\n      add\n        /* \"#utility.yul\":2163:2210   */\n      mstore\n        /* \"#utility.yul\":2227:2358   */\n      tag_72\n        /* \"#utility.yul\":2353:2357   */\n      dup2\n        /* \"#utility.yul\":2227:2358   */\n      tag_44\n      jump\t// in\n    tag_72:\n        /* \"#utility.yul\":2219:2358   */\n      swap1\n      pop\n        /* \"#utility.yul\":1946:2365   */\n      swap2\n      swap1\n      pop\n      jump\t// out\n        /* \"#utility.yul\":2371:2518   */\n    tag_45:\n        /* \"#utility.yul\":2472:2483   */\n      0x00\n        /* \"#utility.yul\":2509:2512   */\n      dup2\n        /* \"#utility.yul\":2494:2512   */\n      swap1\n      pop\n        /* \"#utility.yul\":2371:2518   */\n      swap3\n      swap2\n      pop\n      pop\n      jump\t// out\n        /* \"#utility.yul\":2524:2638   */\n    tag_46:\n      pop\n      jump\t// out\n        /* \"#utility.yul\":2644:3042   */\n    tag_47:\n        /* \"#utility.yul\":2803:2806   */\n      0x00\n        /* \"#utility.yul\":2824:2907   */\n      tag_76\n        /* \"#utility.yul\":2905:2906   */\n      0x00\n        /* \"#utility.yul\":2900:2903   */\n      dup4\n        /* \"#utility.yul\":2824:2907   */\n      tag_45\n      jump\t// in\n    tag_76:\n        /* \"#utility.yul\":2817:2907   */\n      swap2\n      pop\n        /* \"#utility.yul\":2916:3009   */\n      tag_77\n        /* \"#utility.yul\":3005:3008   */\n      dup3\n        /* \"#utility.yul\":2916:3009   */\n      tag_46\n      jump\t// in\n    tag_77:\n        /* \"#utility.yul\":3034:3035   */\n      0x00\n        /* \"#utility.yul\":3029:3032   */\n      dup3\n        /* \"#utility.yul\":3025:3036   */\n      add\n        /* \"#utility.yul\":3018:3036   */\n      swap1\n      pop\n        /* \"#utility.yul\":2644:3042   */\n      swap2\n      swap1\n      pop\n      jump\t// out\n        /* \"#utility.yul\":3048:3427   */\n    tag_28:\n        /* \"#utility.yul\":3232:3235   */\n      0x00\n        /* \"#utility.yul\":3254:3401   */\n      tag_79\n        /* \"#utility.yul\":3397:3400   */\n      dup3\n        /* \"#utility.yul\":3254:3401   */\n      tag_47\n      jump\t// in\n    tag_79:\n        /* \"#utility.yul\":3247:3401   */\n      swap2\n      pop\n        /* \"#utility.yul\":3418:3421   */\n      dup2\n        /* \"#utility.yul\":3411:3421   */\n      swap1\n      pop\n        /* \"#utility.yul\":3048:3427   */\n      swap2\n      swap1\n      pop\n      jump\t// out\n        /* \"#utility.yul\":3433:3594   */\n    tag_48:\n        /* \"#utility.yul\":3573:3586   */\n      0x63616c6c206661696c6564000000000000000000000000000000000000000000\n        /* \"#utility.yul\":3569:3570   */\n      0x00\n        /* \"#utility.yul\":3561:3567   */\n      dup3\n        /* \"#utility.yul\":3557:3571   */\n      add\n        /* \"#utility.yul\":3550:3587   */\n      mstore\n        /* \"#utility.yul\":3433:3594   */\n      pop\n      jump\t// out\n        /* \"#utility.yul\":3600:3966   */\n    tag_49:\n        /* \"#utility.yul\":3742:3745   */\n      0x00\n        /* \"#utility.yul\":3763:3830   */\n      tag_82\n        /* \"#utility.yul\":3827:3829   */\n      0x0b\n        /* \"#utility.yul\":3822:3825   */\n      dup4\n        /* \"#utility.yul\":3763:3830   */\n      tag_42\n      jump\t// in\n    tag_82:\n        /* \"#utility.yul\":3756:3830   */\n      swap2\n      pop\n        /* \"#utility.yul\":3839:3932   */\n      tag_83\n        /* \"#utility.yul\":3928:3931   */\n      dup3\n        /* \"#utility.yul\":3839:3932   */\n      tag_48\n      jump\t// in\n    tag_83:\n        /* \"#utility.yul\":3957:3959   */\n      0x20\n        /* \"#utility.yul\":3952:3955   */\n      dup3\n        /* \"#utility.yul\":3948:3960   */\n      add\n        /* \"#utility.yul\":3941:3960   */\n      swap1\n      pop\n        /* \"#utility.yul\":3600:3966   */\n      swap2\n      swap1\n      pop\n      jump\t// out\n        /* \"#utility.yul\":3972:4391   */\n    tag_34:\n        /* \"#utility.yul\":4138:4142   */\n      0x00\n        /* \"#utility.yul\":4176:4178   */\n      0x20\n        /* \"#utility.yul\":4165:4174   */\n      dup3\n        /* \"#utility.yul\":4161:4179   */\n      add\n        /* \"#utility.yul\":4153:4179   */\n      swap1\n      pop\n        /* \"#utility.yul\":4225:4234   */\n      dup2\n        /* \"#utility.yul\":4219:4223   */\n      dup2\n        /* \"#utility.yul\":4215:4235   */\n      sub\n        /* \"#utility.yul\":4211:4212   */\n      0x00\n        /* \"#utility.yul\":4200:4209   */\n      dup4\n        /* \"#utility.yul\":4196:4213   */\n      add\n        /* \"#utility.yul\":4189:4236   */\n      mstore\n        /* \"#utility.yul\":4253:4384   */\n      tag_85\n        /* \"#utility.yul\":4379:4383   */\n      dup2\n        /* \"#utility.yul\":4253:4384   */\n      tag_49\n      jump\t// in\n    tag_85:\n        /* \"#utility.yul\":4245:4384   */\n      swap1\n      pop\n        /* \"#utility.yul\":3972:4391   */\n      swap2\n      swap1\n      pop\n      jump\t// out\n\n    auxdata: 0xa26469706673582212209964386812b9c922ce3bf8f6179ed2c25bfccb7f85386a6571aba2d87dded1cd64736f6c634300081a0033\n}\n",
				"bytecode": {
					"linkReferences": {},
					"object": "60806040526103e6806100115f395ff3fe608060405260043610610037575f3560e01c80633e58c58c14610042578063bd6435a71461005e578063f55332ab1461007a5761003e565b3661003e57005b5f80fd5b61005c60048036038101906100579190610264565b610096565b005b61007860048036038101906100739190610264565b610111565b005b610094600480360381019061008f9190610264565b610159565b005b5f8173ffffffffffffffffffffffffffffffffffffffff166108fc3490811502906040515f60405180830381858888f1935050505090508061010d576040517f08c379a0000000000000000000000000000000000000000000000000000000008152600401610104906102e9565b60405180910390fd5b5050565b8073ffffffffffffffffffffffffffffffffffffffff166108fc607b90811502906040515f60405180830381858888f19350505050158015610155573d5f803e3d5ffd5b5050565b5f8173ffffffffffffffffffffffffffffffffffffffff1660de60405161017f90610334565b5f6040518083038185875af1925050503d805f81146101b9576040519150601f19603f3d011682016040523d82523d5f602084013e6101be565b606091505b5050905080610202576040517f08c379a00000000000000000000000000000000000000000000000000000000081526004016101f990610392565b60405180910390fd5b5050565b5f80fd5b5f73ffffffffffffffffffffffffffffffffffffffff82169050919050565b5f6102338261020a565b9050919050565b61024381610229565b811461024d575f80fd5b50565b5f8135905061025e8161023a565b92915050565b5f6020828403121561027957610278610206565b5b5f61028684828501610250565b91505092915050565b5f82825260208201905092915050565b7f73656e64206661696c65640000000000000000000000000000000000000000005f82015250565b5f6102d3600b8361028f565b91506102de8261029f565b602082019050919050565b5f6020820190508181035f830152610300816102c7565b9050919050565b5f81905092915050565b50565b5f61031f5f83610307565b915061032a82610311565b5f82019050919050565b5f61033e82610314565b9150819050919050565b7f63616c6c206661696c65640000000000000000000000000000000000000000005f82015250565b5f61037c600b8361028f565b915061038782610348565b602082019050919050565b5f6020820190508181035f8301526103a981610370565b905091905056fea26469706673582212209964386812b9c922ce3bf8f6179ed2c25bfccb7f85386a6571aba2d87dded1cd64736f6c634300081a0033",
					"opcodes": "PUSH1 0x80 PUSH1 0x40 MSTORE PUSH2 0x3E6 DUP1 PUSH2 0x11 PUSH0 CODECOPY PUSH0 RETURN INVALID PUSH1 0x80 PUSH1 0x40 MSTORE PUSH1 0x4 CALLDATASIZE LT PUSH2 0x37 JUMPI PUSH0 CALLDATALOAD PUSH1 0xE0 SHR DUP1 PUSH4 0x3E58C58C EQ PUSH2 0x42 JUMPI DUP1 PUSH4 0xBD6435A7 EQ PUSH2 0x5E JUMPI DUP1 PUSH4 0xF55332AB EQ PUSH2 0x7A JUMPI PUSH2 0x3E JUMP JUMPDEST CALLDATASIZE PUSH2 0x3E JUMPI STOP JUMPDEST PUSH0 DUP1 REVERT JUMPDEST PUSH2 0x5C PUSH1 0x4 DUP1 CALLDATASIZE SUB DUP2 ADD SWAP1 PUSH2 0x57 SWAP2 SWAP1 PUSH2 0x264 JUMP JUMPDEST PUSH2 0x96 JUMP JUMPDEST STOP JUMPDEST PUSH2 0x78 PUSH1 0x4 DUP1 CALLDATASIZE SUB DUP2 ADD SWAP1 PUSH2 0x73 SWAP2 SWAP1 PUSH2 0x264 JUMP JUMPDEST PUSH2 0x111 JUMP JUMPDEST STOP JUMPDEST PUSH2 0x94 PUSH1 0x4 DUP1 CALLDATASIZE SUB DUP2 ADD SWAP1 PUSH2 0x8F SWAP2 SWAP1 PUSH2 0x264 JUMP JUMPDEST PUSH2 0x159 JUMP JUMPDEST STOP JUMPDEST PUSH0 DUP2 PUSH20 0xFFFFFFFFFFFFFFFFFFFFFFFFFFFFFFFFFFFFFFFF AND PUSH2 0x8FC CALLVALUE SWAP1 DUP2 ISZERO MUL SWAP1 PUSH1 0x40 MLOAD PUSH0 PUSH1 0x40 MLOAD DUP1 DUP4 SUB DUP2 DUP6 DUP9 DUP9 CALL SWAP4 POP POP POP POP SWAP1 POP DUP1 PUSH2 0x10D JUMPI PUSH1 0x40 MLOAD PUSH32 0x8C379A000000000000000000000000000000000000000000000000000000000 DUP2 MSTORE PUSH1 0x4 ADD PUSH2 0x104 SWAP1 PUSH2 0x2E9 JUMP JUMPDEST PUSH1 0x40 MLOAD DUP1 SWAP2 SUB SWAP1 REVERT JUMPDEST POP POP JUMP JUMPDEST DUP1 PUSH20 0xFFFFFFFFFFFFFFFFFFFFFFFFFFFFFFFFFFFFFFFF AND PUSH2 0x8FC PUSH1 0x7B SWAP1 DUP2 ISZERO MUL SWAP1 PUSH1 0x40 MLOAD PUSH0 PUSH1 0x40 MLOAD DUP1 DUP4 SUB DUP2 DUP6 DUP9 DUP9 CALL SWAP4 POP POP POP POP ISZERO DUP1 ISZERO PUSH2 0x155 JUMPI RETURNDATASIZE PUSH0 DUP1 RETURNDATACOPY RETURNDATASIZE PUSH0 REVERT JUMPDEST POP POP JUMP JUMPDEST PUSH0 DUP2 PUSH20 0xFFFFFFFFFFFFFFFFFFFFFFFFFFFFFFFFFFFFFFFF AND PUSH1 0xDE PUSH1 0x40 MLOAD PUSH2 0x17F SWAP1 PUSH2 0x334 JUMP JUMPDEST PUSH0 PUSH1 0x40 MLOAD DUP1 DUP4 SUB DUP2 DUP6 DUP8 GAS CALL SWAP3 POP POP POP RETURNDATASIZE DUP1 PUSH0 DUP2 EQ PUSH2 0x1B9 JUMPI PUSH1 0x40 MLOAD SWAP2 POP PUSH1 0x1F NOT PUSH1 0x3F RETURNDATASIZE ADD AND DUP3 ADD PUSH1 0x40 MSTORE RETURNDATASIZE DUP3 MSTORE RETURNDATASIZE PUSH0 PUSH1 0x20 DUP5 ADD RETURNDATACOPY PUSH2 0x1BE JUMP JUMPDEST PUSH1 0x60 SWAP2 POP JUMPDEST POP POP SWAP1 POP DUP1 PUSH2 0x202 JUMPI PUSH1 0x40 MLOAD PUSH32 0x8C379A000000000000000000000000000000000000000000000000000000000 DUP2 MSTORE PUSH1 0x4 ADD PUSH2 0x1F9 SWAP1 PUSH2 0x392 JUMP JUMPDEST PUSH1 0x40 MLOAD DUP1 SWAP2 SUB SWAP1 REVERT JUMPDEST POP POP JUMP JUMPDEST PUSH0 DUP1 REVERT JUMPDEST PUSH0 PUSH20 0xFFFFFFFFFFFFFFFFFFFFFFFFFFFFFFFFFFFFFFFF DUP3 AND SWAP1 POP SWAP2 SWAP1 POP JUMP JUMPDEST PUSH0 PUSH2 0x233 DUP3 PUSH2 0x20A JUMP JUMPDEST SWAP1 POP SWAP2 SWAP1 POP JUMP JUMPDEST PUSH2 0x243 DUP2 PUSH2 0x229 JUMP JUMPDEST DUP2 EQ PUSH2 0x24D JUMPI PUSH0 DUP1 REVERT JUMPDEST POP JUMP JUMPDEST PUSH0 DUP2 CALLDATALOAD SWAP1 POP PUSH2 0x25E DUP2 PUSH2 0x23A JUMP JUMPDEST SWAP3 SWAP2 POP POP JUMP JUMPDEST PUSH0 PUSH1 0x20 DUP3 DUP5 SUB SLT ISZERO PUSH2 0x279 JUMPI PUSH2 0x278 PUSH2 0x206 JUMP JUMPDEST JUMPDEST PUSH0 PUSH2 0x286 DUP5 DUP3 DUP6 ADD PUSH2 0x250 JUMP JUMPDEST SWAP2 POP POP SWAP3 SWAP2 POP POP JUMP JUMPDEST PUSH0 DUP3 DUP3 MSTORE PUSH1 0x20 DUP3 ADD SWAP1 POP SWAP3 SWAP2 POP POP JUMP JUMPDEST PUSH32 0x73656E64206661696C6564000000000000000000000000000000000000000000 PUSH0 DUP3 ADD MSTORE POP JUMP JUMPDEST PUSH0 PUSH2 0x2D3 PUSH1 0xB DUP4 PUSH2 0x28F JUMP JUMPDEST SWAP2 POP PUSH2 0x2DE DUP3 PUSH2 0x29F JUMP JUMPDEST PUSH1 0x20 DUP3 ADD SWAP1 POP SWAP2 SWAP1 POP JUMP JUMPDEST PUSH0 PUSH1 0x20 DUP3 ADD SWAP1 POP DUP2 DUP2 SUB PUSH0 DUP4 ADD MSTORE PUSH2 0x300 DUP2 PUSH2 0x2C7 JUMP JUMPDEST SWAP1 POP SWAP2 SWAP1 POP JUMP JUMPDEST PUSH0 DUP2 SWAP1 POP SWAP3 SWAP2 POP POP JUMP JUMPDEST POP JUMP JUMPDEST PUSH0 PUSH2 0x31F PUSH0 DUP4 PUSH2 0x307 JUMP JUMPDEST SWAP2 POP PUSH2 0x32A DUP3 PUSH2 0x311 JUMP JUMPDEST PUSH0 DUP3 ADD SWAP1 POP SWAP2 SWAP1 POP JUMP JUMPDEST PUSH0 PUSH2 0x33E DUP3 PUSH2 0x314 JUMP JUMPDEST SWAP2 POP DUP2 SWAP1 POP SWAP2 SWAP1 POP JUMP JUMPDEST PUSH32 0x63616C6C206661696C6564000000000000000000000000000000000000000000 PUSH0 DUP3 ADD MSTORE POP JUMP JUMPDEST PUSH0 PUSH2 0x37C PUSH1 0xB DUP4 PUSH2 0x28F JUMP JUMPDEST SWAP2 POP PUSH2 0x387 DUP3 PUSH2 0x348 JUMP JUMPDEST PUSH1 0x20 DUP3 ADD SWAP1 POP SWAP2 SWAP1 POP JUMP JUMPDEST PUSH0 PUSH1 0x20 DUP3 ADD SWAP1 POP DUP2 DUP2 SUB PUSH0 DUP4 ADD MSTORE PUSH2 0x3A9 DUP2 PUSH2 0x370 JUMP JUMPDEST SWAP1 POP SWAP2 SWAP1 POP JUMP INVALID LOG2 PUSH5 0x6970667358 0x22 SLT KECCAK256 SWAP10 PUSH5 0x386812B9C9 0x22 0xCE EXTCODESIZE 0xF8 0xF6 OR SWAP15 0xD2 0xC2 JUMPDEST 0xFC 0xCB PUSH32 0x85386A6571ABA2D87DDED1CD64736F6C634300081A0033000000000000000000 "
				},
				"gasEstimates": {
					"creation": {
						"codeDepositCost": "199600",
						"executionCost": "219",
						"totalCost": "199819"
					},
					"external": {
						"call(address)": "infinite",
						"send(address)": "infinite",
						"tracfer(address)": "infinite"
					}
				},
				"methodIdentifiers": {
					"call(address)": "f55332ab",
					"send(address)": "3e58c58c",
					"tracfer(address)": "bd6435a7"
				}
			},
			"storageLayout": {
				"storage": [],
				"types": null
			},
			"userdoc": {
				"kind": "user",
				"methods": {},
				"version": 1
			}
		}
	}
}