{
	"contracts/SendEther.sol": {
		"Receive": {
			"abi": [
				{
					"anonymous": false,
					"inputs": [
						{
							"indexed": false,
							"internalType": "string",
							"name": "msg",
							"type": "string"
						},
						{
							"indexed": false,
							"internalType": "address",
							"name": "addr",
							"type": "address"
						},
						{
							"indexed": false,
							"internalType": "uint256",
							"name": "value",
							"type": "uint256"
						},
						{
							"indexed": false,
							"internalType": "uint256",
							"name": "blance",
							"type": "uint256"
						}
					],
					"name": "Log",
					"type": "event"
				},
				{
					"stateMutability": "payable",
					"type": "fallback"
				},
				{
					"inputs": [],
					"name": "getBalance",
					"outputs": [
						{
							"internalType": "uint256",
							"name": "",
							"type": "uint256"
						}
					],
					"stateMutability": "view",
					"type": "function"
				},
				{
					"stateMutability": "payable",
					"type": "receive"
				}
			],
			"devdoc": {
				"kind": "dev",
				"methods": {},
				"version": 1
			},
			"evm": {
				"assembly": "    /* \"contracts/SendEther.sol\":566:973  contract Receive {... */\n  mstore(0x40, 0x80)\n  callvalue\n  dup1\n  iszero\n  tag_1\n  jumpi\n  0x00\n  dup1\n  revert\ntag_1:\n  pop\n  dataSize(sub_0)\n  dup1\n  dataOffset(sub_0)\n  0x00\n  codecopy\n  0x00\n  return\nstop\n\nsub_0: assembly {\n        /* \"contracts/SendEther.sol\":566:973  contract Receive {... */\n      mstore(0x40, 0x80)\n      jumpi(tag_1, lt(calldatasize, 0x04))\n      shr(0xe0, calldataload(0x00))\n      dup1\n      0x12065fe0\n      eq\n      tag_3\n      jumpi\n      jump(tag_2)\n    tag_1:\n      jumpi(tag_2, calldatasize)\n        /* \"contracts/SendEther.sol\":701:746  Log(\"receive\",msg.sender,msg.value,gasleft()) */\n      0xa2455ec11f160d321516c021994881e7678c0b5870cd7aae50107098770e2c28\n        /* \"contracts/SendEther.sol\":715:725  msg.sender */\n      caller\n        /* \"contracts/SendEther.sol\":726:735  msg.value */\n      callvalue\n        /* \"contracts/SendEther.sol\":736:745  gasleft() */\n      gas\n        /* \"contracts/SendEther.sol\":701:746  Log(\"receive\",msg.sender,msg.value,gasleft()) */\n      mload(0x40)\n      tag_6\n      swap4\n      swap3\n      swap2\n      swap1\n      tag_7\n      jump\t// in\n    tag_6:\n      mload(0x40)\n      dup1\n      swap2\n      sub\n      swap1\n      log1\n        /* \"contracts/SendEther.sol\":566:973  contract Receive {... */\n      stop\n    tag_2:\n        /* \"contracts/SendEther.sol\":807:853  Log(\"fallback\",msg.sender,msg.value,gasleft()) */\n      0xa2455ec11f160d321516c021994881e7678c0b5870cd7aae50107098770e2c28\n        /* \"contracts/SendEther.sol\":822:832  msg.sender */\n      caller\n        /* \"contracts/SendEther.sol\":833:842  msg.value */\n      callvalue\n        /* \"contracts/SendEther.sol\":843:852  gasleft() */\n      gas\n        /* \"contracts/SendEther.sol\":807:853  Log(\"fallback\",msg.sender,msg.value,gasleft()) */\n      mload(0x40)\n      tag_10\n      swap4\n      swap3\n      swap2\n      swap1\n      tag_11\n      jump\t// in\n    tag_10:\n      mload(0x40)\n      dup1\n      swap2\n      sub\n      swap1\n      log1\n        /* \"contracts/SendEther.sol\":566:973  contract Receive {... */\n      stop\n        /* \"contracts/SendEther.sol\":871:970  function getBalance() public view returns (uint256) {... */\n    tag_3:\n      callvalue\n      dup1\n      iszero\n      tag_12\n      jumpi\n      0x00\n      dup1\n      revert\n    tag_12:\n      pop\n      tag_13\n      tag_14\n      jump\t// in\n    tag_13:\n      mload(0x40)\n      tag_15\n      swap2\n      swap1\n      tag_16\n      jump\t// in\n    tag_15:\n      mload(0x40)\n      dup1\n      swap2\n      sub\n      swap1\n      return\n    tag_14:\n        /* \"contracts/SendEther.sol\":914:921  uint256 */\n      0x00\n        /* \"contracts/SendEther.sol\":941:962  address(this).balance */\n      selfbalance\n        /* \"contracts/SendEther.sol\":934:962  return address(this).balance */\n      swap1\n      pop\n        /* \"contracts/SendEther.sol\":871:970  function getBalance() public view returns (uint256) {... */\n      swap1\n      jump\t// out\n        /* \"#utility.yul\":7:176   */\n    tag_18:\n        /* \"#utility.yul\":91:102   */\n      0x00\n        /* \"#utility.yul\":125:131   */\n      dup3\n        /* \"#utility.yul\":120:123   */\n      dup3\n        /* \"#utility.yul\":113:132   */\n      mstore\n        /* \"#utility.yul\":165:169   */\n      0x20\n        /* \"#utility.yul\":160:163   */\n      dup3\n        /* \"#utility.yul\":156:170   */\n      add\n        /* \"#utility.yul\":141:170   */\n      swap1\n      pop\n        /* \"#utility.yul\":7:176   */\n      swap3\n      swap2\n      pop\n      pop\n      jump\t// out\n        /* \"#utility.yul\":182:339   */\n    tag_19:\n        /* \"#utility.yul\":322:331   */\n      0x7265636569766500000000000000000000000000000000000000000000000000\n        /* \"#utility.yul\":318:319   */\n      0x00\n        /* \"#utility.yul\":310:316   */\n      dup3\n        /* \"#utility.yul\":306:320   */\n      add\n        /* \"#utility.yul\":299:332   */\n      mstore\n        /* \"#utility.yul\":182:339   */\n      pop\n      jump\t// out\n        /* \"#utility.yul\":345:710   */\n    tag_20:\n        /* \"#utility.yul\":487:490   */\n      0x00\n        /* \"#utility.yul\":508:574   */\n      tag_32\n        /* \"#utility.yul\":572:573   */\n      0x07\n        /* \"#utility.yul\":567:570   */\n      dup4\n        /* \"#utility.yul\":508:574   */\n      tag_18\n      jump\t// in\n    tag_32:\n        /* \"#utility.yul\":501:574   */\n      swap2\n      pop\n        /* \"#utility.yul\":583:676   */\n      tag_33\n        /* \"#utility.yul\":672:675   */\n      dup3\n        /* \"#utility.yul\":583:676   */\n      tag_19\n      jump\t// in\n    tag_33:\n        /* \"#utility.yul\":701:703   */\n      0x20\n        /* \"#utility.yul\":696:699   */\n      dup3\n        /* \"#utility.yul\":692:704   */\n      add\n        /* \"#utility.yul\":685:704   */\n      swap1\n      pop\n        /* \"#utility.yul\":345:710   */\n      swap2\n      swap1\n      pop\n      jump\t// out\n        /* \"#utility.yul\":716:842   */\n    tag_21:\n        /* \"#utility.yul\":753:760   */\n      0x00\n        /* \"#utility.yul\":793:835   */\n      0xffffffffffffffffffffffffffffffffffffffff\n        /* \"#utility.yul\":786:791   */\n      dup3\n        /* \"#utility.yul\":782:836   */\n      and\n        /* \"#utility.yul\":771:836   */\n      swap1\n      pop\n        /* \"#utility.yul\":716:842   */\n      swap2\n      swap1\n      pop\n      jump\t// out\n        /* \"#utility.yul\":848:944   */\n    tag_22:\n        /* \"#utility.yul\":885:892   */\n      0x00\n        /* \"#utility.yul\":914:938   */\n      tag_36\n        /* \"#utility.yul\":932:937   */\n      dup3\n        /* \"#utility.yul\":914:938   */\n      tag_21\n      jump\t// in\n    tag_36:\n        /* \"#utility.yul\":903:938   */\n      swap1\n      pop\n        /* \"#utility.yul\":848:944   */\n      swap2\n      swap1\n      pop\n      jump\t// out\n        /* \"#utility.yul\":950:1068   */\n    tag_23:\n        /* \"#utility.yul\":1037:1061   */\n      tag_38\n        /* \"#utility.yul\":1055:1060   */\n      dup2\n        /* \"#utility.yul\":1037:1061   */\n      tag_22\n      jump\t// in\n    tag_38:\n        /* \"#utility.yul\":1032:1035   */\n      dup3\n        /* \"#utility.yul\":1025:1062   */\n      mstore\n        /* \"#utility.yul\":950:1068   */\n      pop\n      pop\n      jump\t// out\n        /* \"#utility.yul\":1074:1151   */\n    tag_24:\n        /* \"#utility.yul\":1111:1118   */\n      0x00\n        /* \"#utility.yul\":1140:1145   */\n      dup2\n        /* \"#utility.yul\":1129:1145   */\n      swap1\n      pop\n        /* \"#utility.yul\":1074:1151   */\n      swap2\n      swap1\n      pop\n      jump\t// out\n        /* \"#utility.yul\":1157:1275   */\n    tag_25:\n        /* \"#utility.yul\":1244:1268   */\n      tag_41\n        /* \"#utility.yul\":1262:1267   */\n      dup2\n        /* \"#utility.yul\":1244:1268   */\n      tag_24\n      jump\t// in\n    tag_41:\n        /* \"#utility.yul\":1239:1242   */\n      dup3\n        /* \"#utility.yul\":1232:1269   */\n      mstore\n        /* \"#utility.yul\":1157:1275   */\n      pop\n      pop\n      jump\t// out\n        /* \"#utility.yul\":1281:2031   */\n    tag_7:\n        /* \"#utility.yul\":1531:1535   */\n      0x00\n        /* \"#utility.yul\":1569:1572   */\n      0x80\n        /* \"#utility.yul\":1558:1567   */\n      dup3\n        /* \"#utility.yul\":1554:1573   */\n      add\n        /* \"#utility.yul\":1546:1573   */\n      swap1\n      pop\n        /* \"#utility.yul\":1619:1628   */\n      dup2\n        /* \"#utility.yul\":1613:1617   */\n      dup2\n        /* \"#utility.yul\":1609:1629   */\n      sub\n        /* \"#utility.yul\":1605:1606   */\n      0x00\n        /* \"#utility.yul\":1594:1603   */\n      dup4\n        /* \"#utility.yul\":1590:1607   */\n      add\n        /* \"#utility.yul\":1583:1630   */\n      mstore\n        /* \"#utility.yul\":1647:1778   */\n      tag_43\n        /* \"#utility.yul\":1773:1777   */\n      dup2\n        /* \"#utility.yul\":1647:1778   */\n      tag_20\n      jump\t// in\n    tag_43:\n        /* \"#utility.yul\":1639:1778   */\n      swap1\n      pop\n        /* \"#utility.yul\":1788:1860   */\n      tag_44\n        /* \"#utility.yul\":1856:1858   */\n      0x20\n        /* \"#utility.yul\":1845:1854   */\n      dup4\n        /* \"#utility.yul\":1841:1859   */\n      add\n        /* \"#utility.yul\":1832:1838   */\n      dup7\n        /* \"#utility.yul\":1788:1860   */\n      tag_23\n      jump\t// in\n    tag_44:\n        /* \"#utility.yul\":1870:1942   */\n      tag_45\n        /* \"#utility.yul\":1938:1940   */\n      0x40\n        /* \"#utility.yul\":1927:1936   */\n      dup4\n        /* \"#utility.yul\":1923:1941   */\n      add\n        /* \"#utility.yul\":1914:1920   */\n      dup6\n        /* \"#utility.yul\":1870:1942   */\n      tag_25\n      jump\t// in\n    tag_45:\n        /* \"#utility.yul\":1952:2024   */\n      tag_46\n        /* \"#utility.yul\":2020:2022   */\n      0x60\n        /* \"#utility.yul\":2009:2018   */\n      dup4\n        /* \"#utility.yul\":2005:2023   */\n      add\n        /* \"#utility.yul\":1996:2002   */\n      dup5\n        /* \"#utility.yul\":1952:2024   */\n      tag_25\n      jump\t// in\n    tag_46:\n        /* \"#utility.yul\":1281:2031   */\n      swap5\n      swap4\n      pop\n      pop\n      pop\n      pop\n      jump\t// out\n        /* \"#utility.yul\":2037:2195   */\n    tag_26:\n        /* \"#utility.yul\":2177:2187   */\n      0x66616c6c6261636b000000000000000000000000000000000000000000000000\n        /* \"#utility.yul\":2173:2174   */\n      0x00\n        /* \"#utility.yul\":2165:2171   */\n      dup3\n        /* \"#utility.yul\":2161:2175   */\n      add\n        /* \"#utility.yul\":2154:2188   */\n      mstore\n        /* \"#utility.yul\":2037:2195   */\n      pop\n      jump\t// out\n        /* \"#utility.yul\":2201:2566   */\n    tag_27:\n        /* \"#utility.yul\":2343:2346   */\n      0x00\n        /* \"#utility.yul\":2364:2430   */\n      tag_49\n        /* \"#utility.yul\":2428:2429   */\n      0x08\n        /* \"#utility.yul\":2423:2426   */\n      dup4\n        /* \"#utility.yul\":2364:2430   */\n      tag_18\n      jump\t// in\n    tag_49:\n        /* \"#utility.yul\":2357:2430   */\n      swap2\n      pop\n        /* \"#utility.yul\":2439:2532   */\n      tag_50\n        /* \"#utility.yul\":2528:2531   */\n      dup3\n        /* \"#utility.yul\":2439:2532   */\n      tag_26\n      jump\t// in\n    tag_50:\n        /* \"#utility.yul\":2557:2559   */\n      0x20\n        /* \"#utility.yul\":2552:2555   */\n      dup3\n        /* \"#utility.yul\":2548:2560   */\n      add\n        /* \"#utility.yul\":2541:2560   */\n      swap1\n      pop\n        /* \"#utility.yul\":2201:2566   */\n      swap2\n      swap1\n      pop\n      jump\t// out\n        /* \"#utility.yul\":2572:3322   */\n    tag_11:\n        /* \"#utility.yul\":2822:2826   */\n      0x00\n        /* \"#utility.yul\":2860:2863   */\n      0x80\n        /* \"#utility.yul\":2849:2858   */\n      dup3\n        /* \"#utility.yul\":2845:2864   */\n      add\n        /* \"#utility.yul\":2837:2864   */\n      swap1\n      pop\n        /* \"#utility.yul\":2910:2919   */\n      dup2\n        /* \"#utility.yul\":2904:2908   */\n      dup2\n        /* \"#utility.yul\":2900:2920   */\n      sub\n        /* \"#utility.yul\":2896:2897   */\n      0x00\n        /* \"#utility.yul\":2885:2894   */\n      dup4\n        /* \"#utility.yul\":2881:2898   */\n      add\n        /* \"#utility.yul\":2874:2921   */\n      mstore\n        /* \"#utility.yul\":2938:3069   */\n      tag_52\n        /* \"#utility.yul\":3064:3068   */\n      dup2\n        /* \"#utility.yul\":2938:3069   */\n      tag_27\n      jump\t// in\n    tag_52:\n        /* \"#utility.yul\":2930:3069   */\n      swap1\n      pop\n        /* \"#utility.yul\":3079:3151   */\n      tag_53\n        /* \"#utility.yul\":3147:3149   */\n      0x20\n        /* \"#utility.yul\":3136:3145   */\n      dup4\n        /* \"#utility.yul\":3132:3150   */\n      add\n        /* \"#utility.yul\":3123:3129   */\n      dup7\n        /* \"#utility.yul\":3079:3151   */\n      tag_23\n      jump\t// in\n    tag_53:\n        /* \"#utility.yul\":3161:3233   */\n      tag_54\n        /* \"#utility.yul\":3229:3231   */\n      0x40\n        /* \"#utility.yul\":3218:3227   */\n      dup4\n        /* \"#utility.yul\":3214:3232   */\n      add\n        /* \"#utility.yul\":3205:3211   */\n      dup6\n        /* \"#utility.yul\":3161:3233   */\n      tag_25\n      jump\t// in\n    tag_54:\n        /* \"#utility.yul\":3243:3315   */\n      tag_55\n        /* \"#utility.yul\":3311:3313   */\n      0x60\n        /* \"#utility.yul\":3300:3309   */\n      dup4\n        /* \"#utility.yul\":3296:3314   */\n      add\n        /* \"#utility.yul\":3287:3293   */\n      dup5\n        /* \"#utility.yul\":3243:3315   */\n      tag_25\n      jump\t// in\n    tag_55:\n        /* \"#utility.yul\":2572:3322   */\n      swap5\n      swap4\n      pop\n      pop\n      pop\n      pop\n      jump\t// out\n        /* \"#utility.yul\":3328:3550   */\n    tag_16:\n        /* \"#utility.yul\":3421:3425   */\n      0x00\n        /* \"#utility.yul\":3459:3461   */\n      0x20\n        /* \"#utility.yul\":3448:3457   */\n      dup3\n        /* \"#utility.yul\":3444:3462   */\n      add\n        /* \"#utility.yul\":3436:3462   */\n      swap1\n      pop\n        /* \"#utility.yul\":3472:3543   */\n      tag_57\n        /* \"#utility.yul\":3540:3541   */\n      0x00\n        /* \"#utility.yul\":3529:3538   */\n      dup4\n        /* \"#utility.yul\":3525:3542   */\n      add\n        /* \"#utility.yul\":3516:3522   */\n      dup5\n        /* \"#utility.yul\":3472:3543   */\n      tag_25\n      jump\t// in\n    tag_57:\n        /* \"#utility.yul\":3328:3550   */\n      swap3\n      swap2\n      pop\n      pop\n      jump\t// out\n\n    auxdata: 0xa2646970667358221220b79cfce65062912c6f641e06edc3d469cf53be607ad8af2787a1610fd7552fb164736f6c634300081a0033\n}\n",
				"bytecode": {
					"linkReferences": {},
					"object": "6080604052348015600e575f80fd5b506102ab8061001c5f395ff3fe608060405260043610610021575f3560e01c806312065fe0146100a057610063565b36610063577fa2455ec11f160d321516c021994881e7678c0b5870cd7aae50107098770e2c2833345a60405161005993929190610182565b60405180910390a1005b7fa2455ec11f160d321516c021994881e7678c0b5870cd7aae50107098770e2c2833345a60405161009693929190610214565b60405180910390a1005b3480156100ab575f80fd5b506100b46100ca565b6040516100c1919061025c565b60405180910390f35b5f47905090565b5f82825260208201905092915050565b7f72656365697665000000000000000000000000000000000000000000000000005f82015250565b5f6101156007836100d1565b9150610120826100e1565b602082019050919050565b5f73ffffffffffffffffffffffffffffffffffffffff82169050919050565b5f6101548261012b565b9050919050565b6101648161014a565b82525050565b5f819050919050565b61017c8161016a565b82525050565b5f6080820190508181035f83015261019981610109565b90506101a8602083018661015b565b6101b56040830185610173565b6101c26060830184610173565b949350505050565b7f66616c6c6261636b0000000000000000000000000000000000000000000000005f82015250565b5f6101fe6008836100d1565b9150610209826101ca565b602082019050919050565b5f6080820190508181035f83015261022b816101f2565b905061023a602083018661015b565b6102476040830185610173565b6102546060830184610173565b949350505050565b5f60208201905061026f5f830184610173565b9291505056fea2646970667358221220b79cfce65062912c6f641e06edc3d469cf53be607ad8af2787a1610fd7552fb164736f6c634300081a0033",
					"opcodes": "PUSH1 0x80 PUSH1 0x40 MSTORE CALLVALUE DUP1 ISZERO PUSH1 0xE JUMPI PUSH0 DUP1 REVERT JUMPDEST POP PUSH2 0x2AB DUP1 PUSH2 0x1C PUSH0 CODECOPY PUSH0 RETURN INVALID PUSH1 0x80 PUSH1 0x40 MSTORE PUSH1 0x4 CALLDATASIZE LT PUSH2 0x21 JUMPI PUSH0 CALLDATALOAD PUSH1 0xE0 SHR DUP1 PUSH4 0x12065FE0 EQ PUSH2 0xA0 JUMPI PUSH2 0x63 JUMP JUMPDEST CALLDATASIZE PUSH2 0x63 JUMPI PUSH32 0xA2455EC11F160D321516C021994881E7678C0B5870CD7AAE50107098770E2C28 CALLER CALLVALUE GAS PUSH1 0x40 MLOAD PUSH2 0x59 SWAP4 SWAP3 SWAP2 SWAP1 PUSH2 0x182 JUMP JUMPDEST PUSH1 0x40 MLOAD DUP1 SWAP2 SUB SWAP1 LOG1 STOP JUMPDEST PUSH32 0xA2455EC11F160D321516C021994881E7678C0B5870CD7AAE50107098770E2C28 CALLER CALLVALUE GAS PUSH1 0x40 MLOAD PUSH2 0x96 SWAP4 SWAP3 SWAP2 SWAP1 PUSH2 0x214 JUMP JUMPDEST PUSH1 0x40 MLOAD DUP1 SWAP2 SUB SWAP1 LOG1 STOP JUMPDEST CALLVALUE DUP1 ISZERO PUSH2 0xAB JUMPI PUSH0 DUP1 REVERT JUMPDEST POP PUSH2 0xB4 PUSH2 0xCA JUMP JUMPDEST PUSH1 0x40 MLOAD PUSH2 0xC1 SWAP2 SWAP1 PUSH2 0x25C JUMP JUMPDEST PUSH1 0x40 MLOAD DUP1 SWAP2 SUB SWAP1 RETURN JUMPDEST PUSH0 SELFBALANCE SWAP1 POP SWAP1 JUMP JUMPDEST PUSH0 DUP3 DUP3 MSTORE PUSH1 0x20 DUP3 ADD SWAP1 POP SWAP3 SWAP2 POP POP JUMP JUMPDEST PUSH32 0x7265636569766500000000000000000000000000000000000000000000000000 PUSH0 DUP3 ADD MSTORE POP JUMP JUMPDEST PUSH0 PUSH2 0x115 PUSH1 0x7 DUP4 PUSH2 0xD1 JUMP JUMPDEST SWAP2 POP PUSH2 0x120 DUP3 PUSH2 0xE1 JUMP JUMPDEST PUSH1 0x20 DUP3 ADD SWAP1 POP SWAP2 SWAP1 POP JUMP JUMPDEST PUSH0 PUSH20 0xFFFFFFFFFFFFFFFFFFFFFFFFFFFFFFFFFFFFFFFF DUP3 AND SWAP1 POP SWAP2 SWAP1 POP JUMP JUMPDEST PUSH0 PUSH2 0x154 DUP3 PUSH2 0x12B JUMP JUMPDEST SWAP1 POP SWAP2 SWAP1 POP JUMP JUMPDEST PUSH2 0x164 DUP2 PUSH2 0x14A JUMP JUMPDEST DUP3 MSTORE POP POP JUMP JUMPDEST PUSH0 DUP2 SWAP1 POP SWAP2 SWAP1 POP JUMP JUMPDEST PUSH2 0x17C DUP2 PUSH2 0x16A JUMP JUMPDEST DUP3 MSTORE POP POP JUMP JUMPDEST PUSH0 PUSH1 0x80 DUP3 ADD SWAP1 POP DUP2 DUP2 SUB PUSH0 DUP4 ADD MSTORE PUSH2 0x199 DUP2 PUSH2 0x109 JUMP JUMPDEST SWAP1 POP PUSH2 0x1A8 PUSH1 0x20 DUP4 ADD DUP7 PUSH2 0x15B JUMP JUMPDEST PUSH2 0x1B5 PUSH1 0x40 DUP4 ADD DUP6 PUSH2 0x173 JUMP JUMPDEST PUSH2 0x1C2 PUSH1 0x60 DUP4 ADD DUP5 PUSH2 0x173 JUMP JUMPDEST SWAP5 SWAP4 POP POP POP POP JUMP JUMPDEST PUSH32 0x66616C6C6261636B000000000000000000000000000000000000000000000000 PUSH0 DUP3 ADD MSTORE POP JUMP JUMPDEST PUSH0 PUSH2 0x1FE PUSH1 0x8 DUP4 PUSH2 0xD1 JUMP JUMPDEST SWAP2 POP PUSH2 0x209 DUP3 PUSH2 0x1CA JUMP JUMPDEST PUSH1 0x20 DUP3 ADD SWAP1 POP SWAP2 SWAP1 POP JUMP JUMPDEST PUSH0 PUSH1 0x80 DUP3 ADD SWAP1 POP DUP2 DUP2 SUB PUSH0 DUP4 ADD MSTORE PUSH2 0x22B DUP2 PUSH2 0x1F2 JUMP JUMPDEST SWAP1 POP PUSH2 0x23A PUSH1 0x20 DUP4 ADD DUP7 PUSH2 0x15B JUMP JUMPDEST PUSH2 0x247 PUSH1 0x40 DUP4 ADD DUP6 PUSH2 0x173 JUMP JUMPDEST PUSH2 0x254 PUSH1 0x60 DUP4 ADD DUP5 PUSH2 0x173 JUMP JUMPDEST SWAP5 SWAP4 POP POP POP POP JUMP JUMPDEST PUSH0 PUSH1 0x20 DUP3 ADD SWAP1 POP PUSH2 0x26F PUSH0 DUP4 ADD DUP5 PUSH2 0x173 JUMP JUMPDEST SWAP3 SWAP2 POP POP JUMP INVALID LOG2 PUSH5 0x6970667358 0x22 SLT KECCAK256 0xB7 SWAP13 0xFC 0xE6 POP PUSH3 0x912C6F PUSH5 0x1E06EDC3D4 PUSH10 0xCF53BE607AD8AF2787A1 PUSH2 0xFD7 SSTORE 0x2F 0xB1 PUSH5 0x736F6C6343 STOP ADDMOD BYTE STOP CALLER "
				},
				"gasEstimates": {
					"creation": {
						"codeDepositCost": "136600",
						"executionCost": "181",
						"totalCost": "136781"
					},
					"external": {
						"": "infinite",
						"getBalance()": "312"
					}
				},
				"methodIdentifiers": {
					"getBalance()": "12065fe0"
				}
			},
			"storageLayout": {
				"storage": [],
				"types": null
			},
			"userdoc": {
				"kind": "user",
				"methods": {},
				"version": 1
			}
		}
	}
}